:020000040800F2
:1000000098300020D14E00089106000893060008A1
:1000100095060008970600089906000800000000F1
:100020000000000000000000000000009B06000827
:100030009D060008000000006FBA0008C14C0008CF
:10004000EB4E0008EB4E0008EB4E0008EB4E0008AC
:10005000EB4E0008EB4E0008EB4E0008EB4E00089C
:10006000EB4E0008EB4E0008EB4E0008EB4E00088C
:10007000EB4E0008EB4E0008EB4E0008EB4E00087C
:10008000EB4E0008EB4E0008EB4E0008EB4E00086C
:10009000EB4E0008EB4E0008EB4E0008EB4E00085C
:1000A000EB4E0008EB4E0008EB4E0008EB4E00084C
:1000B000EB4E0008EB4E0008EB4E0008EB4E00083C
:1000C000EB4E0008EB4E0008EB4E0008EB4E00082C
:1000D000EB4E0008694E0008EB4E0008EB4E00089E
:1000E000EB4E0008EB4E0008EB4E0008EB4E00080C
:1000F000EB4E0008EB4E0008EB4E0008EB4E0008FC
:10010000EB4E0008EB4E0008EB4E0008EB4E0008EB
:10011000EB4E0008EB4E0008EB4E0008EB4E0008DB
:10012000EB4E0008EB4E0008EB4E0008EB4E0008CB
:1001300000F002F800F062F80AA090E8000C824497
:100140008344AAF10107DA4501D100F057F8AFF274
:10015000090EBAE80F0013F0010F18BFFB1A43F0A5
:1001600001031847F8D5000018D600000A444FF0E4
:10017000000C10F8013B13F0070408BF10F8014B06
:100180001D1108BF10F8015B641E05D010F8016B4B
:10019000641E01F8016BF9D113F0080F1EBF10F8AF
:1001A000014BAD1C0C1B09D16D1E58BF01F801CBD2
:1001B000FAD505E014F8016B01F8016B6D1EF9D555
:1001C0009142D6D37047000000230024002500266A
:1001D000103A28BF78C1FBD8520728BF30C148BFAA
:1001E0000B60704764290BF0038378290BF03C8384
:1001F000002070471FB51FBD10B510BD0BF0ECFB04
:100200001146FFF7F7FF00F045F90BF00AFC03B4C5
:10021000FFF7F2FF03BC04F0CFFD00000EB5DB4E8C
:1002200000242546348005F003FCD94F3978491C59
:10023000397005F001FC4FF49D73EA226E217D2098
:1002400004F0A5FB8223EA2219467D2004F054FB2A
:100250001F2030801026CFA0CDE9006033466E22EB
:100260006F217E2004F0F3FC05F0E2FB3978491E93
:1002700011F0FF01397007D1CA49098821B105F091
:10028000DBFB07F0CFF801E005F0D6FBC64FDFF847
:100290001CA34FF080084FF00E090DF1080B641CF1
:1002A000D7F89401E4B2C043C7F894012146C0A036
:1002B0000BF05EFACDE90068032322466F21CE20C1
:1002C00004F076FCB4FBF9F109FB1140C0F10D011B
:1002D00040F239133AF82100E92280B200908321DC
:1002E0007E2004F09DFA0023CDE9005B012219462F
:1002F00018460AF09AFCD2E70EB5A44F0024264611
:100300003C8005F095FBA24D2978491C297005F029
:1003100093FB4FF49D7373226E21052004F037FB8D
:10032000822373221946052004F0E6FA1F20388044
:100330001027A5A0CDE900703B466E226F21062054
:1003400004F085FC05F074FB2978491E11F0FF01CB
:10035000297007D19349098821B105F06DFB07F099
:1003600061F801E005F068FB9B4DDFF840A20DF15C
:1003700008084FF00E094FF0800B641CD5F894016B
:10038000E4B2C043C5F89401214694A00BF0F0F903
:10039000052C06D102A9974809F07CFC96A00BF029
:1003A000E7F9B4FBF9F109FB114140F239133AF8CE
:1003B0002100722280B200908321062004F030FADE
:1003C000CDE9007B032322466F21562004F0F0FB89
:1003D0000023CDE900680122194618460AF025FCE1
:1003E000CBE72DE9F0438BB005F04DFA09A809F0F1
:1003F000DAF8012109AA084606F09FFC05F018FB6F
:10040000634D2978491C297005F016FB0024032749
:10041000CDE9064709AE4FF00C097C4A08960594D1
:1004200004208DE805024FF080082346AFF2371212
:100430007648CDE9038476A1C43809F04AFB6D4AB9
:10044000CDE90647C4320520089605948DE80502DB
:100450000023AFF23722CDE9038470A1654809F08B
:1004600038FB05F0E5FA2978491E11F0FF012970E3
:1004700007D14C49098821B105F0DEFA06F0D2FF18
:1004800001E005F0D9FA09A9002009F003FC0BB03E
:10049000BDE8F08330B58BB004F020FC4FF4A060D1
:1004A00004F036FD4FF4E13004F090FC00F0A4F9C4
:1004B00000F0F5FE35494FF47840102408805AA02A
:1004C000CDE900402346C8220A211E2004F0BFFBCC
:1004D0005AA0CDE900401E211023C822084604F08E
:1004E000B6FB5BA0CDE900401023C82232211E20BC
:1004F00004F0ADFB5BA0CDE900401023C8224621EB
:100500001E2004F0A4FB5BA0CDE900401023C8220C
:100510005A211E2004F09BFB09A806F0A4FA05F05E
:1005200087FA1B4C2178491C217005F085FA0020C0
:1005300006AB09AA0321059083E8070080220C235B
:10054000CDE902324E4D04900346AFF26912CDE977
:1005500000154CA1A5F1C40009F0BBFA05F068FA3A
:100560002178491E11F0FF01217007D10D4909883A
:1005700021B105F061FA06F055FF01E005F05CFAE3
:1005800009A806F096FC0BB0002030BD4C000020FE
:10059000E80000205461736B322052756E3A30309F
:1005A00030000000AC0000200000234200000020CA
:1005B000C8CECEF132D2D1BEADD6B4D0D0A3BA25FA
:1005C00064B4CE0D0A0000005461736B3120527583
:1005D0006E3A30303000000000802142C8CECEF1AB
:1005E00031D2D1BEADD6B4D0D0A3BA2564B4CE0D2D
:1005F0000A000000D4060020C8CECEF131C9BEB337
:10060000FDC1CBC8CECEF132210D0A00D4040020AA
:100610005461736B31207461736B00007461736B90
:1006200032207461736B0000414C49454E54454B78
:100630002053544D333246310000000055434F5390
:10064000494949204578616D7020362D3100000000
:100650005461736B20437265617420616E64204441
:10066000656C000041544F4D40414C49454E544546
:100670004B000000323031352F332F31390000006C
:10068000100200207374617274207461736B000037
:100690007047FEE7FEE7FEE7FEE7704770470000A1
:1006A0000CB500224C4800920192016841F480315F
:1006B00001604FF4A063016801F4003101910099D9
:1006C000491C0091019911B900999942F3D101682F
:1006D000890333D50121019140490A6842F0100293
:1006E0000A600A6822F003020A600A6842F0020205
:1006F0000A604168416041684160416841F480613D
:100700004160416821F47C114160416841F4E81185
:100710004160016841F08071016001688901FCD588
:10072000416821F003014160416841F002014160EC
:100730004168C1F381010229FAD10CBD01920CBDBF
:10074000254810B5016841F0010101604168244A63
:10075000114041600168234A11400160016821F4A1
:1007600080210160416821F4FE0141604FF41F01C6
:100770008160FFF795FF1C494FF00060086010BDD5
:10078000154A10B55068194B10F00C01184803D0E9
:10079000042901D0082901D0036012E05168536890
:1007A00001F470114FF0020413F4803F04EB914107
:1007B00002D053689B0301D50E4B00E00B4B59430D
:1007C000016051680A4AC1F30311121D515C0268AD
:1007D000CA40026010BD000000100240002002402C
:1007E0000000FFF8FFFFF6FE08ED00E000127A00BF
:1007F0003800002000093D0038B50121482004F0F0
:10080000B2FF2024ADF8004010208DF80300032033
:100810000B4D8DF802006946284604F028FC202183
:10082000284604F08EFCADF80040064C6946204690
:1008300004F01DFC2021204604F083FC38BD00009C
:10084000000C01400018014001B5BDF80000ADF8F2
:100850000000BDF80000F849088008BD01B5BDF8EA
:100860000000ADF80000BDF80000F349891C0880C5
:1008700008BDF14808B5801C0088ADF80000BDF83F
:10088000000008BD03B5BDF80000EB490880BDF8C5
:100890000400891C08800CBD01B5BDF80000FFF7FD
:1008A000D3FF052004F040FABDE80840E1E7E34843
:1008B000E149008908807047DF49891C088070473A
:1008C000C0F34511C20AC00200EB4110104480B2CF
:1008D0007047401EC0B2FCD27047F0B5D74E0C46F0
:1008E0000246050AB1883046A1F5134340894FEA14
:1008F000142C413B1AD0A1F5A643103B16D0B646A6
:10090000B3793688A1F5D047B61A761E043F17D0C2
:100910007746A1F5C85EBEF1630E25D0A1F5A04EC5
:10092000BEF5A26E57D0012B6ED06EE0FFF78CFFA4
:100930002846FFF793FFD0B2FFF790FFB0890CE095
:100940007546012B00D1B2B2FFF77EFF100AFFF708
:1009500085FFD0B2FFF782FFA889FFF775FF6046D9
:10096000FFF77CFFE0B225E03BB3FFF76DFF2846C1
:10097000FFF774FFD0B2FFF771FF3888401EC0F355
:100980000F20FFF76BFF3878401EC0B2FFF766FFFD
:10099000B889FFF759FF6046FFF760FFE0B2FFF745
:1009A0005DFF7888401EC0F30F20FFF757FFB8782F
:1009B000401EC0B2BDE8F04050E7B2B2FFF744FFBE
:1009C0000020FFF74BFF0020FFF748FF100AFFF75A
:1009D00045FFD0B2DAE7FFF737FF2846FFF73EFFC3
:1009E0007889401C80B2FFF72FFFD0B2FFF736FFA7
:1009F000B889FFF729FF6046FFF730FFB889401C30
:100A000080B2FFF721FFADE7B2B21146FFF73AFF20
:100A1000B8892146BDE8F04034E7FEB50022ADF8C4
:100A20000020ADF80420ADF80820844D2A888242C9
:100A300002D96A888A4201D80020FEBDFFF74DFF27
:100A4000A88849F2413641F6631745F2103245F263
:100A50001054B04207D0A0F5D041043903D09042E1
:100A600001D0B84201D12E2005E0A04202D14FF4BE
:100A7000385000E02220FFF7E7FEA888A0F51341D8
:100A8000203903D10220401EC0B2FCD2FFF7F1FE94
:100A9000ADF80000A888B84249D00220401EC0B27C
:100AA000FCD2FFF7E6FEADF80000A888B04203D004
:100AB000904201D0A04214D10220401EC0B2FCD20C
:100AC000FFF7D7FEADF80800BDF80000C0B2ADF8E2
:100AD0000400BDF804004FF6FF7101EA0020ADF8F4
:100AE0000400A888A0F51341253920D0A0F58A413B
:100AF00035391CD0091D1AD0A0F53541053916D05D
:100B0000B1F5805113D0B04203D0904201D0A04241
:100B100010D1BDF80000BDF804106FF30A00890A77
:100B200040EA4110BDF8081040EAD120FEBDBDF8F2
:100B30000000FEBDBDF80000BDE8FE40C0E63F4835
:100B40008088A0F51341413913D0A0F5D041043974
:100B50000FD0A0F5A64110390BD0A0F5C8516339CC
:100B600007D0A0F5AA41103905D040F27311072033
:100B700088E6292001E04FF4245065E62F4880885C
:100B8000A0F51341413912D0A0F5D04104390ED05F
:100B9000A0F5A64110390AD0A0F5C851633906D096
:100BA000A0F5AA41103904D0002107206AE62820C8
:100BB00001E04FF4205047E6F0B5204F00243946BD
:100BC000BA79898846F6040341F66315012A01D0F3
:100BD0002AB11DE099421BD0A94202D118E0A942D6
:100BE00016D1082814D2DFE800F00406080A0C0E1B
:100BF000101206200CE007200AE0042008E005207F
:100C000006E0012004E0002002E0032000E00220D2
:100C1000A1F5134C45F2103245F21056BCF1410CCF
:100C200007D0994205D0914203D0B14201D0A942E8
:100C30007ED1082817D203E0FE07006C9809002037
:100C4000DFE800F0110406080A0C0E1080240AE008
:100C5000402408E0C02406E0202404E0602402E0F0
:100C6000A02400E0E024B14202D14FF4585000E04B
:100C70003620914205D0B14203D0A94201D044F0C0
:100C80000804994201D144F002042146FFF7FAFD1D
:100C9000BA88AA420AD0A0063888798802D5884244
:100CA00002D303E0884201D9398078807889B24242
:100CB00042D1FFF7C9FD0020FFF7D0FD7889401C25
:100CC00080B2FFF7C1FD0020FFF7C8FD7889801CC6
:100CD00080B2FFF7B9FD3888401EC0F30F20FFF740
:100CE000BDFD7889C01C80B2FFF7AEFD3878401E8C
:100CF000C0B2FFF7B3FDB889FFF7A6FD0020FFF7EC
:100D0000ADFDB889401C80B2FFF79EFD0020FFF7C3
:100D1000A5FDB889801C80B2FFF796FD7888401E3B
:100D2000C0F30F20FFF79AFDB889C01C80B200E025
:100D30002AE0FFF789FD21E0FFF786FD0020FFF79D
:100D40008DFD0020FFF78AFD3888401EC0F30F207C
:100D5000FFF784FD3878401EC0B2FFF77FFDB889E9
:100D6000FFF772FD0020FFF779FD0020FFF776FD09
:100D70007888401EC0F30F20FFF770FDB878BDE8FB
:100D8000F040401EC0B269E5082812D2DFE800F04A
:100D9000040608110A0C0E1030240AE0102408E0A2
:100DA000202406E0382404E0282402E0182400E08F
:100DB000082444F48051BDE8F040032062E500B50A
:100DC000FFF78BFDFFF773FDFE48FF4900880880A1
:100DD00000BD2DE9F041FD4D90460C460246060A45
:100DE000A9882846A1F5134340894FEA142C413BBA
:100DF00016D0A1F5A643103B12D0B3F5007313D063
:100E00002E46A1F5C857B3793688B61A761E633FC9
:100E100023D0A1F5D047043F3AD0012B4DD04DE06F
:100E2000FFF712FD304639E0FFF70EFD3046FFF7C1
:100E300015FD6889401C80B2FFF706FDD0B2FFF7B0
:100E40000DFDA889FFF700FD6046FFF707FDA889A3
:100E5000401C80B2FFF7F8FC2BE003B9B2B2FFF7F9
:100E6000F3FC160A3046FFF7F9FCD0B2FFF7F6FCA8
:100E70003046FFF7F3FCD0B2FFF7F0FCA889FFF78C
:100E8000E3FC6046FFF7EAFCE0B2FFF7E7FC0DE0A9
:100E9000012B00D1B2B2FFF7D7FC100AFFF7DEFC3E
:100EA000D0B2FFF7DBFCA889FFF7CEFC6046FFF766
:100EB000D5FCE0B2FFF7D2FC07E0B2B21146FFF773
:100EC000E1FCA8892146FFF7DDFCBF492889891E7E
:100ED0000880891CA1F80080BDE8F08110B50246A9
:100EE000BE20FFF7B1FC0520FFF7B8FC10460AF062
:100EF0001CFE4FF06632B64B0AF02AFE0AF0E8FDFF
:100F000080B2FFF7ABFC0120FFF7A8FCFF20FFF742
:100F1000A5FC0020FFF7A2FCBDE8104000209DE4E6
:100F20002DE9F04FA9492A232B24898845F2105A2C
:100F30004FF4305B4FF4285E4FF448754FF0F00CDF
:100F400049F241394FF4A07745F210364FF4F07270
:100F500080B19E484FF00108494580F8068007801F
:100F6000A0F802C001D0B1423ED12C2505814381B9
:100F7000848157E095484FF00008494580F8068085
:100F8000A0F800C0478006D0A1F5D04CBCF1040CFD
:100F900001D0B1420CD12C2505814381A1F5D0436C
:100FA0008481043B01D0B14244D10780428041E0BA
:100FB000514507D1A0F808B0A0F80AE04FF42C5131
:100FC00081810EE0A1F5C856633E06D02221018141
:100FD00020214181212181812CE02C21018144812A
:100FE00083810280458025E0A1F5D04CBCF1040C42
:100FF00009D051450BD1A0F808B0A0F80AE04FF491
:101000002C53838120E02C250581448109E0A1F542
:10101000C85CBCF1630C11D02223038121234381DE
:1010200020238381A1F5D043043B01D0B14201D1FB
:1010300002804780BDE8F04F0020BDE54FF02C0C4A
:10104000A0F808C04381848105804280EAE72DE949
:10105000FE4F0446104401EB0308DFF87091401E78
:10106000A8F1010887B2B9F80400C8F30723029376
:101070000B0A0093A3185B1EC3F3072301934B468F
:101080000D465B89A0F513411FFA88F64FEA142B31
:10109000413910D0A0F5A64110390CD0A0F5D041AF
:1010A000043908D099F806A041F6631CBAF1010F83
:1010B0001ED160451CD14A461846FFF7C5FB58466D
:1010C000FFF7CCFBE0B2FFF7C9FB0198FFF7C6FBC7
:1010D000F8B2FFF7C3FB9089FFF7B6FB0098FFF764
:1010E000BDFBE8B2FFF7BAFB0298FFF7B7FB96E04B
:1010F00036496045098825D1881A001B84B24E46BE
:101100001FFA88F71846FFF79FFB200AFFF7A6FB98
:10111000E0B2FFF7A3FB2244521EC2F30F20FFF7F9
:101120009DFBD0B2FFF79AFBB089FFF78DFB0098CB
:10113000FFF794FBE8B2FFF791FB380AFFF78EFB4D
:10114000F8B26DE0A0F5A04C4A46BCF5A26C23D0E5
:10115000BAF1010F68D0BC4620462F465022014606
:101160004FF0510A4FF052094FF053081046FFF765
:1011700089FB61465046FFF785FB39464846FFF735
:1011800081FB31464046FFF77DFB03B029462046F0
:10119000BDE8F04FFFF7A1BB1846FFF755FB5846D7
:1011A000FFF75CFB5089401C80B2FFF74DFBE0B2BB
:1011B000FFF754FB5089801C80B2FFF745FB019874
:1011C00008E000004C0000200008006C9809002096
:1011D00066660440FFF742FB5089C01C80B2FFF7EF
:1011E00033FBF8B2FFF73AFB9089FFF72DFB00982D
:1011F000FFF734FB9089401C80B2FFF725FBE8B273
:10120000FFF72CFB9089801C80B2FFF71DFB029832
:10121000FFF724FB9089C01C80B2FFF715FBF0B2EA
:10122000BDE8FE4FFFF71ABBCA1B521E091BB4468E
:10123000491E284697B28EB290E72DE9F043FF4F42
:101240000646002438887D884543B888A0F5D041FB
:10125000043902D1B879012807D000210846FFF7E8
:101260003CFBFFF724FBF64815E00020B8714FF077
:101270002A09A7F80A904FF02B08A7F80C8001461E
:10128000FFF72BFB0120B871A7F80A80A7F80C9094
:10129000E7E70680641CAC42FBD3BDE8F0832DE990
:1012A000F05FE8484069E74940F480704861886928
:1012B00040F008008861886940F0200088618869F2
:1012C00040F040008861886940F480708861DE48A1
:1012D000016821F00F010160016841F00301016024
:1012E000DA480168DA4A114001600168D94A1143BD
:1012F0000160001F016801F0FF210160016841F0F9
:10130000BB110160D448016800210160026842F00D
:10131000BB320260001F026822F070420260026865
:1013200042F030420260CD48426822F470224260AE
:10133000426842F430224260026822F00F020260EA
:10134000026842F00B0202604FF020408161C161EF
:10135000C0F81C11816941F480518161816941F4B7
:1013600080418161816941F010018161C169C16180
:10137000C16941F00101C161C16941F47061C1619C
:10138000D0F81C11C0F81C11D0F81C11C0F81C11A9
:10139000D0F81C1141F44071C0F81C11816941F072
:1013A00001018161322003F0DEFC0020FFF774FAB6
:1013B000A24F49F2413546F60408B88045F210398B
:1013C00045F210544FF6FF76FF2804D3B04202D006
:1013D000B0F5134F76D1D320FFF736FAFFF749FA6D
:1013E000B880FFF746FAB880FFF743FA06EA002014
:1013F000B880FFF73EFAB9880843B880A84261D0A8
:10140000BF20FFF721FAFFF734FAB880FFF731FA6F
:10141000B880FFF72EFAB880FFF72BFA06EA002013
:10142000B880FFF726FAB9880843B880404549D00C
:10143000D420FFF709FAFFF71CFAB880FFF719FA72
:10144000B880FFF716FA06EA0020B880FFF711FA15
:10145000B9880843B880484534D04FF45A40FFF764
:10146000F3F9FFF706FAB8804FF45B40FFF7ECF9A9
:10147000FFF7FFF906EA0020B8804FF45C40FFF761
:10148000E3F9FFF7F6F9B9880843B880B0F5004FE3
:101490007ED0A04216D0A120FFF7D6F9FFF7E9F9D8
:1014A000B880FFF7E6F906EA0020B880FFF7E1F917
:1014B000B9880843A0F5AE41B880613902D141F640
:1014C0006310B880B98866A00AF052F9B888A842BB
:1014D0007ED1CF20FFF7B8F90020FFF7BFF9C12078
:1014E000FFF7BCF93020FFF7B9F9ED20FFF7ACF9B1
:1014F0006420FFF7B3F90320FFF7B0F91220FFF7DC
:10150000ADF98120FFF7AAF9E820FFF79DF98520C2
:10151000FFF7A4F91020FFF7A1F97A20FFF79EF951
:10152000CB20FFF791F93920FFF798F92C20FFF72E
:1015300095F90020FFF792F93420FFF78FF9022088
:10154000FFF78CF9F720FFF77FF92020FFF786F9E6
:10155000EA20FFF779F90020FFF780F90020FFF774
:101560007DF9C020FFF770F91B20FFF777F9C12044
:10157000FFF76AF90120FFF771F9C520FFF764F959
:101580003020FFF76BF93020FFF768F9C72000E043
:10159000CEE0FFF759F9B720FFF760F93620FFF7E3
:1015A00053F94820FFF75AF93A20FFF74DF9552033
:1015B000FFF754F9B120FFF747F90020FFF74EF984
:1015C0001A20FFF74BF9B620FFF73EF90A2000E09A
:1015D000B0E0FFF743F9A220FFF740F9F220FFF750
:1015E00033F90020FFF73AF92620FFF72DF9012003
:1015F000FFF734F9E020FFF727F90F20FFF72EF966
:101600002A20FFF72BF92820FFF728F90820FFF7F9
:1016100025F90E20FFF722F90820FFF71FF95420C3
:10162000FFF71CF9A920FFF719F94320FFF716F976
:101630000A20FFF713F90F201AE000009809002094
:101640000008006C00100240000C0140041401402E
:1016500000F0FF00BB0B00BB04180140002001405C
:10166000204C43442049443A25780D0A00000000EC
:10167000FFF7F4F80020FFF7F1F80020FFF7EEF88D
:101680000020FFF7EBF80020FFF7E8F8E120FFF774
:10169000DBF80020FFF7E2F81520FFF7DFF817204E
:1016A000FFF7DCF80720FFF7D9F81120FFF7D6F88D
:1016B0000620FFF7D3F82B20FFF7D0F85620FFF7CE
:1016C000CDF83C20FFF7CAF80520FFF7C7F8102037
:1016D000FFF7C4F80F20FFF7C1F83F20FFF7BEF86F
:1016E0003F20FFF7BBF80F20FFF7B8F82B20FFF7DC
:1016F000ABF80020FFF7B2F80020FFF7AFF80120A9
:10170000FFF7ACF83F20FFF7A9F82A20FFF79CF875
:101710000020FFF7A3F80020FFF7A0F80020FFF754
:101720009DF8EF20FFF79AF81120FFF78DF8A7E05A
:10173000BC80C7E640457CD11120FFF785F8142016
:1017400003F011FBD020FFF77FF80720FFF786F8A2
:101750004220FFF783F81D20FFF780F8D120FFF724
:1017600073F80020FFF77AF81A20FFF777F80920BE
:10177000FFF774F8D220FFF767F80120FFF76EF843
:101780002220FFF76BF8C020FFF75EF81020FFF76C
:1017900065F83B20FFF762F80020FFF75FF80220B2
:1017A000FFF75CF81120FFF759F8C520FFF74CF858
:1017B0000320FFF753F8C820FFF746F80020FFF793
:1017C0004DF82520FFF74AF82120FFF747F80520BC
:1017D000FFF744F80020FFF741F80A20FFF73EF832
:1017E0006520FFF73BF82520FFF738F87720FFF753
:1017F00035F85020FFF732F80F20FFF72FF80020C0
:10180000FFF72CF8F820FFF71FF80120FFF726F864
:10181000FE20FFF719F80020FFF720F80220FFF75D
:101820001DF82020FFF710F83620FFF70DF80820EC
:1018300000E02BE0FFF712F83A20FFF705F85520FB
:10184000FFF70CF82B20FEF7FFFF0020FFF706F84C
:101850000020FFF703F80120FFF700F83F20FEF714
:10186000FDFF2A20FEF7F0FF0020FEF7F7FF002023
:10187000FEF7F4FF0120FEF7F1FFDF20FEF7EEFF99
:10188000782003F070FA292001F0FCBE48457CD195
:10189000ED20FEF7D9FF0120FEF7E0FFFE20FEF766
:1018A000DDFFEE20FEF7D0FFDE20FEF7D7FF212080
:1018B000FEF7D4FFF120FEF7C7FF0120FEF7CEFFB1
:1018C000DF20FEF7C1FF1020FEF7C8FFC420FEF79F
:1018D000BBFF8F20FEF7C2FFC620FEF7B5FF00203A
:1018E000FEF7BCFFE220FEF7B9FFE220FEF7B6FFED
:1018F000E220FEF7B3FFBF20FEF7A6FFAA20FEF707
:10190000ADFFB020FEF7A0FF0D20FEF7A7FF0020DF
:10191000FEF7A4FF0D20FEF7A1FF0020FEF79EFFBB
:101920001120FEF79BFF0020FEF798FF1920FEF71D
:1019300095FF0020FEF792FF2120FEF78FFF002089
:10194000FEF78CFF2D20FEF789FF0020FEF786FFB3
:101950003D20FEF783FF0020FEF780FF5D20FEF7AD
:101960007DFF0020FEF77AFF5D20FEF777FF002065
:10197000FEF774FFB120FEF767FF8020FEF76EFFD1
:101980000020FEF76BFF8B2000E0FCE3FEF766FF14
:101990000020FEF763FF9620FEF760FF0020FEF7B1
:1019A0005DFFB220FEF750FF0020FEF757FF00203A
:1019B000FEF754FF0220FEF751FF0020FEF74EFF16
:1019C0000320FEF74BFF0020FEF748FFB320FEF791
:1019D0003BFF0020FEF742FF0020FEF73FFF002004
:1019E000FEF73CFF0020FEF739FF0020FEF736FF30
:1019F0000020FEF733FF0020FEF730FF0020FEF747
:101A00002DFF0020FEF72AFF0020FEF727FF002011
:101A1000FEF724FF0020FEF721FF0020FEF71EFF47
:101A20000020FEF71BFF0020FEF718FF0020FEF746
:101A300015FF0020FEF712FF0020FEF70FFF002029
:101A4000FEF70CFF0020FEF709FF0020FEF706FF5F
:101A50000020FEF703FF0020FEF700FF0020FEF746
:101A6000FDFEB420FEF7F0FE8B20FEF7F7FE00200F
:101A7000FEF7F4FE9620FEF7F1FE0020FEF7EEFEE4
:101A8000A120FEF7EBFE0020FEF7E8FEB520FEF7F2
:101A9000DBFE0220FEF7E2FE0020FEF7DFFE032061
:101AA000FEF7DCFE0020FEF7D9FE0420FEF7D6FE8E
:101AB0000020FEF7D3FEB620FEF7C6FE0020FEF79C
:101AC000CDFE0020FEF7CAFEB720FEF7BDFE0020C7
:101AD000FEF7C4FE0020FEF7C1FE3F20FEF7BEFE6B
:101AE0000020FEF7BBFE5E20FEF7B8FE0020FEF7EA
:101AF000B5FE6420FEF7B2FE0020FEF7AFFE8C209C
:101B0000FEF7ACFE0020FEF7A9FEAC20FEF7A6FE15
:101B10000020FEF7A3FEDC20FEF7A0FE0020FEF76B
:101B20009DFE7020FEF79AFE0020FEF797FE9020A3
:101B3000FEF794FE0020FEF791FEEB20FEF78EFEEE
:101B40000020FEF78BFEDC20FEF788FE0020FEF76B
:101B500085FEB820FEF778FE0020FEF77FFE00200D
:101B6000FEF77CFE0020FEF779FE0020FEF776FEF1
:101B70000020FEF773FE0020FEF770FE0020FEF747
:101B80006DFE0020FEF76AFEBA20FEF75DFE2420FF
:101B9000FEF764FE0020FEF761FE0020FEF75EFE09
:101BA0000020FEF75BFEC120FEF74EFE2020FEF770
:101BB00055FE0020FEF752FE5420FEF74FFE002097
:101BC000FEF74CFEFF20FEF749FE0020FEF746FE22
:101BD000C220FEF739FE0A20FEF740FE0020FEF785
:101BE0003DFE0420FEF73AFE0020FEF737FEC3203C
:101BF000FEF72AFE3C20FEF731FE0020FEF72EFE07
:101C00003A20FEF72BFE0020FEF728FE3920FEF7D3
:101C100025FE0020FEF722FE3720FEF71FFE0020E3
:101C2000FEF71CFE3C20FEF719FE0020FEF716FE14
:101C30003620FEF713FE0020FEF710FE3220FEF7DE
:101C40000DFE0020FEF70AFE2F20FEF707FE002003
:101C5000FEF704FE2C20FEF701FE0020FEF7FEFD3D
:101C60002920FEF7FBFD0020FEF7F8FD2620FEF7F9
:101C7000F5FD0020FEF7F2FD2420FEF7EFFD002029
:101C8000FEF7ECFD2420FEF7E9FD0020FEF7E6FD5F
:101C90002320FEF7E3FD0020FEF7E0FD3C20FEF7E9
:101CA000DDFD0020FEF7DAFD3620FEF7D7FD00202F
:101CB000FEF7D4FD3220FEF7D1FD0020FEF7CEFD69
:101CC0002F20FEF7CBFD0020FEF7C8FD2C20FEF7ED
:101CD000C5FD0020FEF7C2FD2920FEF7BFFD002054
:101CE000FEF7BCFD2620FEF7B9FD0020FEF7B6FD8D
:101CF0002420FEF7B3FD0020FEF7B0FD2420FEF700
:101D0000ADFD0020FEF7AAFD2320FEF7A7FD002071
:101D1000FEF7A4FDC420FEF797FD6220FEF79EFDAE
:101D20000020FEF79BFD0520FEF798FD0020FEF742
:101D300095FD8420FEF792FD0020FEF78FFDF02038
:101D4000FEF78CFD0020FEF789FD1820FEF786FDCA
:101D50000020FEF783FDA420FEF780FD0020FEF7A3
:101D60007DFD1820FEF77AFD0020FEF777FD50205C
:101D7000FEF774FD0020FEF771FD0C20FEF76EFDEE
:101D80000020FEF76BFD1720FEF768FD0020FEF730
:101D900065FD9520FEF762FD0020FEF75FFDF32054
:101DA000FEF75CFD0020FEF759FDE620FEF756FD2C
:101DB0000020FEF753FDC520FEF746FD3220FEF75A
:101DC0004DFD0020FEF74AFD4420FEF747FD0020B0
:101DD000FEF744FD6520FEF741FD0020FEF73EFDC5
:101DE0007620FEF73BFD0020FEF738FD8820FEF749
:101DF00035FD0020FEF732FDC620FEF725FD202030
:101E0000FEF72CFD0020FEF729FD1720FEF726FD2A
:101E10000020FEF723FD0120FEF720FD0020FEF745
:101E20001DFDC720FEF710FD0020FEF717FD002066
:101E3000FEF714FD0020FEF711FD0020FEF70EFD59
:101E4000C820FEF701FD0020FEF708FD0020FEF788
:101E500005FD0020FEF702FD0020FEF7FFFCC92073
:101E6000FEF7F2FC0020FEF7F9FC0020FEF7F6FC7E
:101E70000020FEF7F3FC0020FEF7F0FC0020FEF748
:101E8000EDFC0020FEF7EAFC0020FEF7E7FC002056
:101E9000FEF7E4FC0020FEF7E1FC0020FEF7DEFC8C
:101EA0000020FEF7DBFC0020FEF7D8FC0020FEF748
:101EB000D5FC0020FEF7D2FC0020FEF7CFFC00206E
:101EC000FEF7CCFCE020FEF7BFFC1620FEF7C6FCB8
:101ED0000020FEF7C3FC1C20FEF7C0FC0020FEF72C
:101EE000BDFC2120FEF7BAFC0020FEF7B7FC36202F
:101EF000FEF7B4FC0020FEF7B1FC4620FEF7AEFC76
:101F00000020FEF7ABFC5220FEF7A8FC0020FEF7F5
:101F1000A5FC6420FEF7A2FC0020FEF79FFC7A20BF
:101F2000FEF79CFC0020FEF799FC8B20FEF796FC48
:101F30000020FEF793FC9920FEF790FC0020FEF7AE
:101F40008DFCA820FEF78AFC0020FEF787FCB92054
:101F5000FEF784FC0020FEF781FCC420FEF77EFC27
:101F60000020FEF77BFCCA20FEF778FC0020FEF77D
:101F700075FCD220FEF772FC0020FEF76FFCD92022
:101F8000FEF76CFC0020FEF769FCE020FEF766FC23
:101F90000020FEF763FCF320FEF760FC0020FEF754
:101FA0005DFCE120FEF750FC1620FEF757FC0020F8
:101FB000FEF754FC1C20FEF751FC0020FEF74EFCFF
:101FC0002220FEF74BFC0020FEF748FC3620FEF7EF
:101FD00045FC0020FEF742FC4520FEF73FFC0020B8
:101FE000FEF73CFC5220FEF739FC0020FEF736FCE1
:101FF0006420FEF733FC0020FEF730FC7A20FEF769
:102000002DFC0020FEF72AFC8B20FEF727FC002089
:10201000FEF724FC9920FEF721FC0020FEF71EFCB1
:10202000A820FEF71BFC0020FEF718FCB920FEF7E5
:1020300015FC0020FEF712FCC420FEF70FFC002068
:10204000FEF70CFCCA20FEF709FC0020FEF706FC98
:10205000D220FEF703FC0020FEF700FCD820FEF79C
:10206000FDFB0020FEF7FAFBE020FEF7F7FB002067
:10207000FEF7F4FBF320FEF7F1FB0020FEF7EEFB8A
:10208000E220FEF7E1FB0520FEF7E8FB0020FEF76B
:10209000E5FB0B20FEF7E2FB0020FEF7DFFB1B2039
:1020A000FEF7DCFB0020FEF7D9FB3420FEF7D6FB61
:1020B0000020FEF7D3FB4420FEF7D0FB0020FEF704
:1020C000CDFB4F20FEF7CAFB0020FEF7C7FB6120C7
:1020D000FEF7C4FB0020FEF7C1FB7920FEF7BEFB34
:1020E0000020FEF7BBFB8820FEF7B8FB0020FEF7C0
:1020F000B5FB9720FEF7B2FB0020FEF7AFFBA62052
:10210000FEF7ACFB0020FEF7A9FBB720FEF7A6FB0D
:102110000020FEF7A3FBC220FEF7A0FB0020FEF785
:102120009DFBC720FEF79AFB0020FEF797FBD1200E
:10213000FEF794FB0020FEF791FBD620FEF78EFB06
:102140000020FEF78BFBDD20FEF788FB0020FEF76A
:1021500085FBF320FEF782FB0020FEF77FFBE320E8
:10216000FEF772FB0520FEF779FB0020FEF776FBF9
:102170000A20FEF773FB0020FEF770FB1C20FEF721
:102180006DFB002000E0FDE2FEF768FB3320FEF768
:1021900065FB0020FEF762FB4420FEF75FFB00209A
:1021A000FEF75CFB5020FEF759FB0020FEF756FBC4
:1021B0006220FEF753FB0020FEF750FB7820FEF76D
:1021C0004DFB0020FEF74AFB8820FEF747FB00206E
:1021D000FEF744FB9720FEF741FB0020FEF73EFB95
:1021E000A620FEF73BFB0020FEF738FBB720FEF7EA
:1021F00035FB0020FEF732FBC220FEF72FFB00204C
:10220000FEF72CFBC720FEF729FB0020FEF726FB7C
:10221000D120FEF723FB0020FEF720FBD520FEF7A0
:102220001DFB0020FEF71AFBDD20FEF717FB002048
:10223000FEF714FBF320FEF711FB0020FEF70EFB68
:10224000E420FEF701FB0120FEF708FB0020FEF76B
:1022500005FB0120FEF702FB0020FEF7FFFA02203B
:10226000FEF7FCFA0020FEF7F9FA2A20FEF7F6FA4C
:102270000020FEF7F3FA3C20FEF7F0FA0020FEF70C
:10228000EDFA4B20FEF7EAFA0020FEF7E7FA5D20B0
:10229000FEF7E4FA0020FEF7E1FA7420FEF7DEFA1A
:1022A0000020FEF7DBFA8420FEF7D8FA0020FEF7C4
:1022B000D5FA9320FEF7D2FA0020FEF7CFFAA2203B
:1022C000FEF7CCFA0020FEF7C9FAB320FEF7C6FAF3
:1022D0000020FEF7C3FABE20FEF7C0FA0020FEF78A
:1022E000BDFAC420FEF7BAFA0020FEF7B7FACD20F7
:1022F000FEF7B4FA0020FEF7B1FAD320FEF7AEFAEB
:102300000020FEF7ABFADD20FEF7A8FA0020FEF76A
:10231000A5FAF320FEF7A2FA0020FEF79FFAE520C7
:10232000FEF792FA0020FEF799FA0020FEF796FADF
:102330000020FEF793FA0020FEF790FA0220FEF745
:102340008DFA0020FEF78AFA2920FEF787FA00208E
:10235000FEF784FA3C20FEF781FA0020FEF77EFAB1
:102360004B20FEF77BFA0020FEF778FA5D20FEF79F
:1023700075FA0020FEF772FA7420FEF76FFA00205B
:10238000FEF76CFA8420FEF769FA0020FEF766FA81
:102390009320FEF763FA0020FEF760FAA220FEF712
:1023A0005DFA0020FEF75AFAB320FEF757FA002034
:1023B000FEF754FABE20FEF751FA0020FEF74EFA5F
:1023C000C420FEF74BFA0020FEF748FACD20FEF7B6
:1023D00045FA0020FEF742FAD320FEF73FFA00202C
:1023E000FEF73CFADC20FEF739FA0020FEF736FA59
:1023F000F320FEF733FA0020FEF730FAE620FEF76E
:1024000023FA1120FEF72AFA0020FEF727FA3420DB
:10241000FEF724FA0020FEF721FA5620FEF71EFAF6
:102420000020FEF71BFA7620FEF718FA0020FEF7D0
:1024300015FA7720FEF712FA0020FEF70FFA662051
:10244000FEF70CFA0020FEF709FA8820FEF706FADC
:102450000020FEF703FA9920FEF700FA0020FEF7AD
:10246000FDF9BB20FEF7FAF90020FEF7F7F99920F5
:10247000FEF7F4F90020FEF7F1F96620FEF7EEF919
:102480000020FEF7EBF95520FEF7E8F90020FEF7F3
:10249000E5F95520FEF7E2F90020FEF7DFF94520C7
:1024A000FEF7DCF90020FEF7D9F94320FEF7D6F954
:1024B0000020FEF7D3F94420FEF7D0F90020FEF704
:1024C000CDF9E720FEF7C0F93220FEF7C7F900206A
:1024D000FEF7C4F95520FEF7C1F90020FEF7BEF95A
:1024E0007620FEF7BBF90020FEF7B8F96620FEF76C
:1024F000B5F90020FEF7B2F96720FEF7AFF900202A
:10250000FEF7ACF96720FEF7A9F90020FEF7A6F95F
:102510008720FEF7A3F90020FEF7A0F99920FEF727
:102520009DF90020FEF79AF9BB20FEF797F90020ED
:10253000FEF794F99920FEF791F90020FEF78EF945
:102540007720FEF78BF90020FEF788F94420FEF78C
:1025500085F90020FEF782F95620FEF77FF900206A
:10256000FEF77CF92320FEF779F90020FEF776F9D3
:102570003320FEF773F90020FEF770F94520FEF7CF
:102580006DF90020FEF76AF9E820FEF75DF90020FA
:10259000FEF764F90020FEF761F99920FEF75EF975
:1025A0000020FEF75BF98720FEF758F90020FEF7C0
:1025B00055F98820FEF752F90020FEF74FF97720F1
:1025C000FEF74CF90020FEF749F96620FEF746F9C0
:1025D0000020FEF743F98820FEF740F90020FEF7BF
:1025E0003DF9AA20FEF73AF90020FEF737F9BB20A3
:1025F000FEF734F90020FEF731F99920FEF72EF9A5
:102600000020FEF72BF96620FEF728F90020FEF7E0
:1026100025F95520FEF722F90020FEF71FF9552075
:10262000FEF71CF90020FEF719F94420FEF716F911
:102630000020FEF713F94420FEF710F90020FEF702
:102640000DF95520FEF70AF90020FEF707F9E920F9
:10265000FEF7FAF8AA20FEF701F90020FEF7FEF8CF
:102660000020FEF7FBF80020FEF7F8F80020FEF748
:10267000EBF8AA20FEF7F2F8CF20FEF7E5F80020ED
:10268000FEF7ECF80020FEF7E9F80020FEF7E6F888
:102690000020FEF7E3F80020FEF7E0F80020FEF748
:1026A000DDF80020FEF7DAF80020FEF7D7F800206A
:1026B000FEF7D4F80020FEF7D1F80020FEF7CEF8A0
:1026C0000020FEF7CBF80020FEF7C8F80020FEF748
:1026D000C5F80020FEF7C2F80020FEF7BFF8002082
:1026E000FEF7BCF8F020FEF7AFF80020FEF7B6F8D2
:1026F0005020FEF7B3F80020FEF7B0F80020FEF7F8
:10270000ADF80020FEF7AAF8F320FEF79DF80020B0
:10271000FEF7A4F8F920FEF797F80620FEF79EF8DA
:102720001020FEF79BF82920FEF798F80020FEF70E
:1027300095F83A20FEF788F85520FEF78FF811201B
:10274000FEF782F8642002F00EFB2920FEF77CF8E9
:102750003520FEF779F80020FEF780F85120FEF7CB
:1027600073F8FF20FEF77AF85320FEF76DF82C205F
:10277000FEF774F85520FEF767F88220FEF76EF832
:102780002C20FDE3A0427CD14FF47044552120461B
:10279000FEF778F8651CAA212846FEF773F8A71CF7
:1027A00052213846FEF76EF84FF2030C08216046BE
:1027B000FEF768F84FF2040801214046FEF762F880
:1027C0000D214FF43040FEF75DF80D214BF2010072
:1027D000FEF758F80D214BF20200FEF753F84FF4C4
:1027E000364934214846FEF74DF834214BF201605A
:1027F000FEF748F834214BF20260FEF743F84FF43D
:10280000314A0D215046FEF73DF84BF2011B0D21D8
:102810005846FEF737F80D214BF20210FEF732F85A
:1028200034214FF43740FEF72DF834214BF201707C
:10283000FEF728F834214BF20270FEF723F800214E
:102840004FF43240FEF71EF800214BF20120FEF754
:1028500019F800214BF20220FEF714F824214FF45E
:102860003840FEF70FF824214BF60100FEF70AF876
:1028700024214BF60200FEF705F801214FF43F40FA
:1028800000E0FCE3FDF7FEFF0F214FF43340FDF7BE
:10289000F9FF0F214BF20130FDF7F4FF0F214BF24E
:1028A0000230FDF7EFFF34214FF43940FDF7EAFF26
:1028B00034214BF60110FDF7E5FF34214BF60210F1
:1028C000FDF7E0FF08214FF43540FDF7DBFF08215D
:1028D0004BF20150FDF7D6FF08214BF20250FDF7F5
:1028E000D1FF03214FF44240FDF7CCFF24214FF4E8
:1028F0003A40FDF7C7FF24214BF60120FDF7C2FF48
:1029000024214BF60220FDF7BDFF00214FF43C408F
:10291000FDF7B8FF78214BF60140FDF7B3FF00212A
:102920004BF60240FDF7AEFF00214FF43D40FDF7AE
:10293000A9FF78214BF60150FDF7A4FF00214BF6CB
:102940000250FDF79FFF00214FF43E40FDF79AFF34
:1029500064214BF60160FDF795FF00214FF45140D3
:10296000FDF790FF33214DF20110FDF78BFF0021A1
:102970004DF20210FDF786FF34214DF20310FDF7F2
:1029800081FF00214DF20410FDF77CFF3A214DF24A
:102990000510FDF777FF00214DF20610FDF772FFDD
:1029A0004A214DF20710FDF76DFF00214DF208108E
:1029B000FDF768FF5C214DF20910FDF763FF002170
:1029C0004DF20A10FDF75EFF81214DF20B10FDF76D
:1029D00059FF00214DF20C10FDF754FFA6214DF2D6
:1029E0000D10FDF74FFF00214DF20E10FDF74AFFCD
:1029F000E5214DF20F10FDF745FF01214DF21010BA
:102A0000FDF740FF13214DF21110FDF73BFF0121AF
:102A10004DF21210FDF736FF54214DF21310FDF761
:102A200031FF01214DF21410FDF72CFF82214DF2F0
:102A30001510FDF727FF01214DF21610FDF722FFBB
:102A4000CA214DF21710FDF71DFF02214DF218109B
:102A5000FDF718FF00214DF21910FDF713FF0221B9
:102A60004DF21A10FDF70EFF01214DF21B10FDF77C
:102A700009FF02214DF21C10FDF704FF34214DF235
:102A80001D10FDF7FFFE02214DF21E10FDF7FAFEAC
:102A900067214DF21F10FDF7F5FE02214DF22010C7
:102AA000FDF7F0FE84214DF22110FDF7EBFE02212F
:102AB0004DF22210FDF7E6FEA4214DF22310FDF7A2
:102AC000E1FE02214DF22410FDF7DCFEB7214DF2AC
:102AD0002510FDF7D7FE02214DF22610FDF7D2FE9C
:102AE000CF214DF22710FDF7CDFE02214DF2281027
:102AF000FDF7C8FEDE214DF22910FDF7C3FE0221CD
:102B00004DF22A10FDF7BEFEF2214DF22B10FDF71B
:102B1000B9FE02214DF22C10FDF7B4FEFE214DF25C
:102B20002D10FDF7AFFE03214DF22E10FDF7AAFE8A
:102B300010214DF22F10FDF7A5FE03214DF23010AC
:102B4000FDF7A0FE33214DF23110FDF79BFE03216E
:102B50004DF23210FDF796FE6D214DF23310FDF768
:102B600091FE00214FF45240FDF78CFE33214DF2CF
:102B70000120FDF787FE00214DF20220FDF782FEC5
:102B800034214DF20320FDF77DFE00214DF204209B
:102B9000FDF778FE3A214DF20520FDF773FE002186
:102BA0004DF20620FDF76EFE4A214DF20720FDF79B
:102BB00069FE00214DF20820FDF764FE5C214DF214
:102BC0000920FDF75FFE00214DF20A20FDF75AFEB5
:102BD00081214DF20B20FDF755FE00214DF20C2016
:102BE000FDF750FEA6214DF20D20FDF74BFE002112
:102BF0004DF20E20FDF746FEE5214DF20F20FDF7C8
:102C000041FE01214DF21020FDF73CFE13214DF253
:102C10001120FDF737FE01214DF21220FDF732FEA3
:102C200054214DF21320FDF72DFE01214DF2142009
:102C3000FDF728FE82214DF21520FDF723FE01212C
:102C40004DF21620FDF71EFECA214DF21720FDF7AA
:102C500019FE02214DF21820FDF714FE00214DF25D
:102C60001920FDF70FFE02214DF21A20FDF70AFE92
:102C700001214DF21B20FDF705FE02214DF21C2023
:102C8000FDF700FE34214DF21D20FDF7FBFD022172
:102C90004DF21E20FDF7F6FD67214DF21F20FDF7D6
:102CA000F1FD02214DF22020FDF7ECFD84214DF2D3
:102CB0002120FDF7E7FD02214DF22220FDF7E2FD84
:102CC000A4214DF22320FDF7DDFD02214DF2242049
:102CD000FDF7D8FDB7214DF22520FDF7D3FD0221E8
:102CE0004DF22620FDF7CEFDCF214DF22720FDF736
:102CF000C9FD02214DF22820FDF7C4FDDE214DF271
:102D00002920FDF7BFFD02214DF22A20FDF7BAFD73
:102D1000F2214DF22B20FDF7B5FD02214DF22C20C2
:102D2000FDF7B0FDFE214DF22D20FDF7ABFD032197
:102D30004DF22E20FDF7A6FD10214DF22F20FDF7BC
:102D4000A1FD03214DF23020FDF79CFD33214DF212
:102D50003120FDF797FD03214DF23220FDF792FD62
:102D60006D214DF23320FDF78DFD00214FF45340CE
:102D7000FDF788FD33214DF20130FDF783FD002181
:102D80004DF20230FDF77EFD34214DF20330FDF7A8
:102D900079FD00214DF20430FDF774FD3A214DF22A
:102DA0000530FDF76FFD00214DF20630FDF76AFD9D
:102DB0004A214DF20730FDF765FD00214DF2083044
:102DC000FDF760FD5C214DF20930FDF75BFD002150
:102DD0004DF20A30FDF756FD81214DF20B30FDF723
:102DE00051FD00214DF20C30FDF74CFDA6214DF2B6
:102DF0000D30FDF747FD00214DF20E30FDF742FD8D
:102E0000E5214DF20F30FDF73DFD01214DF210306F
:102E1000FDF738FD13214DF21130FDF733FD01218F
:102E20004DF21230FDF72EFD54214DF21330FDF717
:102E300029FD01214DF21430FDF724FD82214DF2D0
:102E40001530FDF71FFD01214DF21630FDF71AFD7B
:102E5000CA214DF21730FDF715FD02214DF2183051
:102E6000FDF710FD00214DF21930FDF70BFD022199
:102E70004DF21A30FDF706FD01214DF21B30FDF732
:102E800001FD02214DF21C30FDF7FCFC34214DF216
:102E90001D30FDF7F7FC02214DF21E30FDF7F2FC6C
:102EA00067214DF21F30FDF7EDFC02214DF220307D
:102EB000FDF7E8FC84214DF22130FDF7E3FC02210F
:102EC0004DF22230FDF7DEFCA4214DF22330FDF758
:102ED000D9FC02214DF22430FDF7D4FCB7214DF28C
:102EE0002530FDF7CFFC02214DF22630FDF7CAFC5C
:102EF000CF214DF22730FDF7C5FC02214DF22830DD
:102F0000FDF7C0FCDE214DF22930FDF7BBFC0221AC
:102F10004DF22A30FDF7B6FCF2214DF22B30FDF7D1
:102F2000B1FC02214DF22C30FDF7ACFCFE214DF23C
:102F30002D30FDF7A7FC03214DF22E30FDF7A2FC4A
:102F400010214DF22F30FDF79DFC03214DF2303062
:102F5000FDF798FC33214DF23130FDF793FC03214E
:102F60004DF23230FDF78EFC6D214DF23330FDF71E
:102F700089FC00214FF45440FDF784FC332100E02C
:102F800080E34DF20140FDF77DFC00214DF202404F
:102F9000FDF778FC34214DF20340FDF773FC00216E
:102FA0004DF20440FDF76EFC3A214DF20540FDF76D
:102FB00069FC00214DF20640FDF764FC4A214DF208
:102FC0000740FDF75FFC00214DF20840FDF75AFC79
:102FD0005C214DF20940FDF755FC00214DF20A40FD
:102FE000FDF750FC81214DF20B40FDF74BFC002119
:102FF0004DF20C40FDF746FCA6214DF20D40FDF7C9
:1030000041FC00214DF20E40FDF73CFCE5214DF264
:103010000F40FDF737FC01214DF21040FDF732FC67
:1030200013214DF21140FDF72DFC01214DF212400C
:10303000FDF728FC54214DF21340FDF723FC01213C
:103040004DF21440FDF71EFC82214DF21540FDF7B4
:1030500019FC01214DF21640FDF714FCCA214DF276
:103060001740FDF70FFC02214DF21840FDF70AFC56
:1030700000214DF21940FDF705FC022100E004E3B8
:103080004DF21A40FDF7FEFB01214DF21B40FDF70A
:10309000F9FB02214DF21C40FDF7F4FB34214DF207
:1030A0001D40FDF7EFFB02214DF21E40FDF7EAFB4C
:1030B00067214DF21F40FDF7E5FB02214DF2204054
:1030C000FDF7E0FB84214DF22140FDF7DBFB0221FF
:1030D0004DF22240FDF7D6FBA4214DF22340FDF72F
:1030E000D1FB02214DF22440FDF7CCFBB7214DF27C
:1030F0002540FDF7C7FB02214DF22640FDF7C2FB3C
:10310000CF214DF22740FDF7BDFB02214DF22840B3
:10311000FDF7B8FBDE214DF22940FDF7B3FB02219C
:103120004DF22A40FDF7AEFBF2214DF22B40FDF7A8
:10313000A9FB02214DF22C40FDF7A4FBFE214DF22C
:103140002D40FDF79FFB03214DF22E40FDF79AFB2A
:1031500010214DF22F40FDF795FB03214DF2304039
:10316000FDF790FB33214DF23140FDF78BFB03213E
:103170004DF23240FDF786FB6D214DF23340FDF7F5
:1031800081FB00214FF45540FDF77CFB33214DF2CC
:103190000150FDF777FB00214DF20250FDF772FB65
:1031A00034214DF20350FDF76DFB00214DF2045028
:1031B000FDF768FB3A214DF20550FDF763FB002156
:1031C0004DF20650FDF75EFB4A214DF20750FDF728
:1031D00059FB00214DF20850FDF754FB5C214DF2E4
:1031E0000950FDF74FFB00214DF20A50FDF74AFB55
:1031F00081214DF20B50FDF745FB00214DF20C50A3
:10320000FDF740FBA6214DF20D50FDF73BFB0021E1
:103210004DF20E50FDF736FBE5214DF20F50FDF754
:1032200031FB01214DF21050FDF72CFB13214DF223
:103230001150FDF727FB01214DF21250FDF722FB43
:1032400054214DF21350FDF71DFB01214DF2145096
:10325000FDF718FB82214DF21550FDF713FB0121FC
:103260004DF21650FDF70EFBCA214DF21750FDF737
:1032700009FB02214DF21850FDF704FB00214DF22D
:103280001950FDF7FFFA02214DF21A50FDF7FAFA34
:1032900001214DF21B50FDF7F5FA02214DF21C50B1
:1032A000FDF7F0FA34214DF21D50FDF7EBFA022143
:1032B0004DF21E50FDF7E6FA67214DF21F50FDF763
:1032C000E1FA02214DF22050FDF7DCFA84214DF2A3
:1032D0002150FDF7D7FA02214DF22250FDF7D2FA24
:1032E000A4214DF22350FDF7CDFA02214DF22450D6
:1032F000FDF7C8FAB7214DF22550FDF7C3FA0221B8
:103300004DF22650FDF7BEFACF214DF22750FDF7C2
:10331000B9FA02214DF22850FDF7B4FADE214DF240
:103320002950FDF7AFFA02214DF22A50FDF7AAFA13
:10333000F2214DF22B50FDF7A5FA02214DF22C504F
:10334000FDF7A0FAFE214DF22D50FDF79BFA032167
:103350004DF22E50FDF796FA10214DF22F50FDF749
:1033600091FA03214DF23050FDF78CFA33214DF2E2
:103370003150FDF787FA03214DF23250FDF782FA02
:103380006D214DF23350FDF77DFA00214FF4564088
:10339000FDF778FA33214DF20160FDF773FA002151
:1033A0004DF20260FDF76EFA34214DF20360FDF735
:1033B00069FA00214DF20460FDF764FA3A214DF2FA
:1033C0000560FDF75FFA00214DF20660FDF75AFA3D
:1033D0004A214DF20760FDF755FA00214DF20860D1
:1033E000FDF750FA5C214DF20960FDF74BFA002120
:1033F0004DF20A60FDF746FA81214DF20B60FDF7B0
:1034000041FA00214DF20C60FDF73CFAA6214DF285
:103410000D60FDF737FA00214DF20E60FDF732FA2C
:10342000E5214DF20F60FDF72DFA01214DF21060FC
:10343000FDF728FA13214DF21160FDF723FA01215F
:103440004DF21260FDF71EFA54214DF21360FDF7A4
:1034500019FA01214DF21460FDF714FA82214DF2A0
:103460001560FDF70FFA01214DF21660FDF70AFA1B
:10347000CA214DF21760FDF705FA02214DF21860DE
:10348000FDF700FA00214DF21960FDF7FBF902216A
:103490004DF21A60FDF7F6F901214DF21B60FDF7C0
:1034A000F1F902214DF21C60FDF7ECF934214DF2E7
:1034B0001D60FDF7E7F902214DF21E60FDF7E2F90C
:1034C00067214DF21F60FDF7DDF902214DF220600A
:1034D000FDF7D8F984214DF22160FDF7D3F90221DF
:1034E0004DF22260FDF7CEF9A4214DF22360FDF7E5
:1034F000C9F902214DF22460FDF7C4F9B7214DF25C
:103500002560FDF7BFF902214DF22660FDF7BAF9FB
:10351000CF214DF22760FDF7B5F902214DF2286069
:10352000FDF7B0F9DE214DF22960FDF7ABF902217C
:103530004DF22A60FDF7A6F9F2214DF22B60FDF75E
:10354000A1F902214DF22C60FDF79CF9FE214DF20C
:103550002D60FDF797F903214DF22E60FDF792F9EA
:1035600010214DF22F60FDF78DF903214DF23060EF
:10357000FDF788F933214DF23160FDF783F903211E
:103580004DF23260FDF77EF96D214DF23360FDF7AB
:1035900079F955212046FDF775F9AA212846FDF74E
:1035A00071F952213846FDF76DF908216046FDF7A3
:1035B00069F900214046FDF765F9CC215046FDF739
:1035C00061F900215846FDF75DF905214846FDF7F0
:1035D00059F970214FF43740FDF754F970214BF23F
:1035E0000170FDF74FF901214FF43840FDF74AF91A
:1035F00003214BF60100FDF745F903214BF60200CC
:10360000FDF740F903214BF60300FDF73BF90221DA
:103610004FF43C40FDF736F900214BF60140FDF731
:1036200031F900214BF60240FDF72CF9D0214FF47F
:103630004940FDF727F902214CF60110FDF722F968
:1036400050214CF60210FDF71DF950214CF60310E5
:10365000FDF718F950214CF60410FDF713F900217D
:103660004FF45450FDF70EF955214FF46850FDF713
:1036700009F94FF48850FDF7E7F8782001F054FB82
:103680004FF42450FDF7E0F8FEE3A0F513414FF4AA
:1036900080744FF4E06740F2022840F23F194FF483
:1036A000274A253925D0FD1DC91E7DD04FF4887BC2
:1036B0004FF41C5A083178D0113977D0A0F5A841C1
:1036C000083974D0A0F5A8514FF4407B05396FD06C
:1036D000B1F520416DD0B1F580516BD0A0F58A4194
:1036E000313968D0091F67D0A0F5C85163397CD043
:1036F000CAE747F6F001E520FDF7C4F821460120AE
:10370000FDF7C0F839460220FDF7BCF841F2300160
:103710000320FDF7B7F800210420FDF7B3F8414678
:103720000820FDF7AFF800210920FDF7ABF80021D4
:103730000A20FDF7A7F800210C20FDF7A3F80021CF
:103740000D20FDF79FF800210F20FDF79BF80021C9
:103750001020FDF797F807211120FDF793F80021BD
:103760001220FDF78FF800211320FDF78BF80021C0
:103770000720FDF787F841F290611020FDF782F8ED
:1037800040F227211120FDF77DF89D211220FDF741
:1037900079F84FF4C8511320FDF774F8252129203A
:1037A000FDF770F80D2108E07AE031E1D4E1A8E2FC
:1037B00042E3FDE3FDE3FDE3FDE32B20FDF762F8CB
:1037C00007213020FDF75EF840F203313120FDF78C
:1037D00059F803213220FDF755F840F20621352033
:1037E000FDF750F80821362000E0FCE3FDF74AF829
:1037F00040F206413720FDF745F84FF4417138207B
:10380000FDF740F807213920FDF73CF840F202614E
:103810003C20FDF737F808213D20FDF733F8002163
:103820005020FDF72FF8EF215120FDF72BF8002154
:103830005220FDF727F849465320FDF723F851465B
:103840006020FDF71FF801216120FDF71BF8002122
:103850006A20FDF717F800218020FDF713F80021FA
:103860008120FDF70FF800218220FDF70BF80021E1
:103870008320FDF707F800218420FDF703F80021DD
:103880008520FCF7FFFF10219020FCF7FBFF4FF491
:10389000C0619220FCF7F6FF40F233110720FCE3F1
:1038A00041F28F01EC20FCF7EDFF41F23421EF20D3
:1038B000FCF7E8FF21460120FCF7E4FF394602202F
:1038C000FCF7E0FF41F230010320FCF7DBFF0021B1
:1038D0000420FCF7D7FF41460820FCF7D3FF002166
:1038E0000920FCF7CFFF00210A20FCF7CBFF0121C4
:1038F0000C20FCF7C7FF00210D20FCF7C3FF0021BF
:103900000F20FCF7BFFF00211020FCF7BBFF0721B1
:103910001120FCF7B7FF00211220FCF7B3FF0021B4
:103920001320FCF7AFFF01210720FCF7ABFF32208B
:1039300001F019FA41F290411020FCF7A3FF40F288
:1039400027211120FCF79EFF322001F00CFA8A217A
:103950001220FCF797FF322001F005FA4FF4D05106
:103960001320FCF78FFF06212920FCF78BFF0D2188
:103970002B20FCF787FF322001F0F5F900212020F1
:10398000FCF780FF00212120FCF77CFF322001F0B2
:10399000EAF900213020FCF775FF40F20461312084
:1039A000FCF770FF40F205313220FCF76BFF00217D
:1039B0003520FCF767FF40F609413620FCF762FF2F
:1039C0004FF401713720FCF75DFF40F201313820E0
:1039D000FCF758FF29463920FCF754FF00213C2012
:1039E000FCF750FF40F60A213D20FCF74BFF322048
:1039F00001F0B9F900215020FCF744FFEF215120DC
:103A0000FCF740FF00215220FCF73CFF494649E10A
:103A100000210846FCF736FF21460120FCF732FF63
:103A200039460220FCF72EFF41F230010320FCF75B
:103A300029FF00210420FCF725FF41460820FCF760
:103A400021FF00210920FCF71DFF00210A20FCF7BF
:103A500019FF01210C20FCF715FF00210D20FCF7B8
:103A600011FF00210F20FCF70DFF322001F07BF940
:103A700040F201110720FCF705FF322001F073F935
:103A80004FF486511020FCF7FDFE07211120FCF7B2
:103A9000F9FE5C4659461220FCF7F4FE4FF4306103
:103AA0001320FCF7EFFE00212920FCF7EBFE44F287
:103AB00010012B20FCF7E6FE00215020FCF7E2FE6F
:103AC000EF215120FCF7DEFE00215220FCF7DAFE48
:103AD00049465320FCF7D6FE51466020FCF7D2FE43
:103AE00001216120FCF7CEFE00216A20FCF7CAFE0E
:103AF00000218020FCF7C6FE00218120FCF7C2FED9
:103B000000218220FCF7BEFE00218320FCF7BAFED4
:103B100000218420FCF7B6FE00218520FCF7B2FED0
:103B200010219020FCF7AEFE00219220FCF7AAFEA7
:103B300001219320FCF7A6FE21469520FCF7A2FE6A
:103B400000219720FCF79EFE00219820FCF79AFEAA
:103B500040F2731107207CE341F21401E720FCF7E7
:103B600091FE21460120FCF78DFE4FF400710220EA
:103B7000FCF788FE41F238010320FCF783FE414642
:103B80000820FCF77FFE00210920FCF77BFE0021C6
:103B90000A20FCF777FE00210C20FCF773FE0021C1
:103BA0000D20FCF76FFE00210F20FCF76BFE0021BB
:103BB0001020FCF767FE07211120FCF763FE0021AF
:103BC0001220FCF75FFE00211320FCF75BFEC820EB
:103BD00001F0C9F841F290611020FCF753FE40F269
:103BE00027211120FCF74EFE322001F0BCF80C21F9
:103BF0001220FCF747FE322001F0B5F84FF40061C7
:103C00001320FCF73FFE11212920FCF73BFE0B217E
:103C10002B20FCF737FE322001F0A5F800212020F0
:103C2000FCF730FE4F4649462120FCF72BFE0021D1
:103C30003020FCF727FE4FF4837421463120FCF737
:103C400021FE00213220FCF71DFE4FF401713520CA
:103C5000FCF718FE41F20A613620FCF713FE2946F4
:103C60003720FCF70FFE21463820FCF70BFE2946D3
:103C70003920FCF707FE40F202413C20FCF702FE2F
:103C800040F60F413D20FCF7FDFD00215020FCF7E0
:103C9000F9FDEF215120FCF7F5FD00215220FCF742
:103CA000F1FD39465320FCF7EDFD51466020FCF74D
:103CB000E9FD01216120FCF7E5FD00216A20FCF708
:103CC000E1FD00218020FCF7DDFD00218120FCF7D3
:103CD000D9FD00218220FCF7D5FD00218320FCF7CF
:103CE000D1FD00218420FCF7CDFD00218520FCF7CB
:103CF000C9FD10219020FCF7C5FD4FF4C061922052
:103D0000FEE321460120FCF7BDFD39460220FCF709
:103D1000B9FD41F230010320FCF7B4FD002104207D
:103D2000FCF7B0FD40F207210820FCF7ABFD0021B5
:103D30000920FCF7A7FD00210A20FCF7A3FD0021C4
:103D40000C20FCF79FFD00210D20FCF79BFD0021BE
:103D50000F20FCF797FD142001F005F841F2B06147
:103D60001020FCF78FFD01211120FCF78BFD0121B4
:103D70001720FCF787FD4FF49C711220FCF782FDA1
:103D80004FF400611320FCF77DFD09212920FCF789
:103D900079FD09212A20FCF775FD0021A420FCF7FC
:103DA00071FD00215020FCF76DFDEF215120FCF743
:103DB00069FD00215220FCF765FD49465320FCF7C0
:103DC00061FD51466020FCF75DFD01216120FCF79B
:103DD00059FD00216A20FCF755FD00218020FCF7E9
:103DE00051FD00218120FCF74DFD00218220FCF7D0
:103DF00049FD00218320FCF745FD00218420FCF7CC
:103E000041FD00218520FCF73DFD13219020FCF7AA
:103E100039FD00219220FCF735FD03219320FCF7AA
:103E200031FD59469520FCF72DFD40F27311072016
:103E3000FCF728FD32200EE100210720FCF722FDCF
:103E4000322000F090FF4FF48E711220FCF71AFD23
:103E50000121A420FCF716FD0F210820FCF712FD1C
:103E600008210A20FCF70EFD08210D20FCF70AFDB1
:103E700029463020FCF706FD07213120FCF702FD22
:103E800040F20361322000E061E3FCF7FBFC3946BD
:103E90003320FCF7F7FC41463420FCF7F3FC022109
:103EA0003520FCF7EFFC41F60F713620FCF7EAFCF9
:103EB00029463720FCF7E6FC00213820FCF7E2FC1D
:103EC00000213920FCF7DEFC29463A20FCF7DAFC19
:103ED00000213B20FCF7D6FC07213C20FCF7D2FC5C
:103EE00000213D20FCF7CEFC322000F03CFF0121F8
:103EF0000720FCF7C7FC01211720FCF7C3FC322088
:103F000000F031FF4FF4BD511020FCF7BBFC40F234
:103F100017211120FCF7B6FC4FF48F711220FCF72B
:103F2000B1FC4FF470611320FCF7ACFC00212A2097
:103F3000FCF7A8FC0A212920FCF7A4FC4FF49F7190
:103F40001220FCF79FFC00215020FCF79BFCEF2186
:103F50005120FCF797FC00215220FCF793FC4946C6
:103F60005320FCF78FFC51466020FCF78BFC0121AD
:103F70006120FCF787FC00216A20FCF783FC00210C
:103F80008020FCF77FFC00218120FCF77BFC0021D6
:103F90008220FCF777FC00218320FCF773FC0021D2
:103FA0008420FCF76FFC00218520FCF76BFC03E00C
:103FB00054E04FE116E2CBE213219020FCF762FCC3
:103FC00059469220FCF75EFC05219320FCF75AFC31
:103FD00000219520FCF756FC00219720FCF752FCAD
:103FE0000021982000E05AE3FCF74CFC2146012018
:103FF000FCF748FC39460220FCF744FC41F238014A
:104000000320FCF73FFC00210420FCF73BFC0021CF
:104010000C20FCF737FC00210F20FCF733FC0021BB
:104020002020FCF72FFC00212120FCF72BFC212174
:104030000720FCF727FC142000F095FE61210720E3
:10404000FCF720FC142000F08EFE40F273110720D4
:10405000FCF718FC142000F086FED5E3002108468A
:10406000FCF710FC00210846FCF70CFC0021084678
:10407000FCF708FC00210846FCF704FC0121A42001
:10408000FCF700FC142000F06EFE51466020FCF7A7
:10409000F9FB45464146082000E0D6E0FCF7F2FB7C
:1040A0004FF405713020FCF7EDFB43F21571312020
:1040B000FCF7E8FB40F204613220FCF7E3FB40F63A
:1040C00016613320FCF7DEFB42F211213420FCF7AD
:1040D000D9FB4FF4A8513520FCF7D4FB48F2075127
:1040E0003620FCF7CFFB41F207413720FCF7CAFB33
:1040F00041F203413820FCF7C5FB20213920FCF7B1
:10410000C1FB1A219020FCF7BDFB00211020FCF719
:10411000B9FB07211120FCF7B5FB00211220FCF7A9
:10412000B1FB00211320FCF7ADFB142000F01BFEB7
:104130004FF4E6611020FCF7A5FB40F23711112087
:10414000FCF7A0FB142000F00EFE4FF4DC711220EF
:10415000FCF798FB142000F006FE4FF4706113206A
:10416000FCF790FB80212A20FCF78CFB48212920BA
:10417000FCF788FB142000F0F6FD21460120FCF737
:1041800081FB39460220FCF77DFB41F23801032018
:10419000FCF778FB29460820FCF774FB00210A2075
:1041A000FCF770FB00210C20FCF76CFB00210D20BC
:1041B000FCF768FB30210E20FCF764FB0021502047
:1041C000FCF760FBEF215120FCF75CFB0021522043
:1041D000FCF758FB49465320FCF754FB514660203E
:1041E000FCF750FB01216120FCF74CFB00216A2009
:1041F000FCF748FB11219020FCF744FB4FF4C06111
:104200009220FCF73FFB40F202419320FCF73AFB7F
:1042100002219420FCF736FB142000F0A4FD0121BC
:104220000720FCF72FFB142000F09DFD61210720E3
:10423000FCF728FB40F273110720FCF723FB002159
:104240002020FCF71FFB00212120FCF71BFB222173
:1042500000207AE100210846FCF714FB0021084603
:10426000FCF710FB142000F07EFD00210846FCF74F
:1042700009FB00210846FCF705FB00210846FCF776
:1042800001FB00210846FCF7FDFA0121A420FCF700
:10429000F9FA142000F067FD51466020FCF7F2FAAD
:1042A00040F606010820FCF7EDFA40F203773946A4
:1042B0003020FCF7E7FA01213120FCF7E3FA042172
:1042C0003220FCF7DFFA4FF481713320FCF7DAFA81
:1042D0005D4659463420FCF7D5FA40F203113520EB
:1042E000FCF7D0FA1F213620FCF7CCFA39463720EC
:1042F000FCF7C8FA01213820FCF7C4FA0421392060
:10430000FCF7C0FA15219020FCF7BCFA4FF482614B
:104310001020FCF7B7FA40F247211120FCF7B2FA5F
:104320004FF4DE711220FCF7ADFA4FF460611320F8
:10433000FCF7A8FA782000F016FD21460120FCF7D2
:10434000A1FA4FF400710220FCF79CFA41F230010F
:104350000320FCF797FA08210A20FCF793FA0021C2
:104360000C20FCF78FFA20210E20FCF78BFA00219D
:104370000F20FCF787FA00212020FCF783FA0021A8
:104380002120FCF77FFA3D212A20FCF77BFA14203C
:1043900000F0E9FC2D212920FCF774FA00215020BF
:1043A000FCF770FA4DF2EF015120FCF76BFA002197
:1043B0005220FCF767FA49465320FCF763FA0021C4
:1043C0006120FCF75FFA00216A20FCF75BFA2946BE
:1043D0009220FCF757FA05219320FCF753FA214667
:1043E000FFF7B8BB01210020FCF74CFA0A2000F0CF
:1043F000BAFC41F228611020FCF744FA0E21122089
:10440000FCF740FA40F639211320FCF73BFA0A206A
:1044100000F0A9FC40211120FCF734FA50211520AE
:10442000FCF730FA0A2000F09EFC1E211220FCF757
:1044300029FA0A2000F097FC4FF4B1511020FCF744
:1044400021FA42F639211320FCF71CFA0A2000F069
:104450008AFC21460120FCF715FA59460220FCF798
:1044600011FA41F238010320FCF70CFA414608200A
:10447000FCF708FA08210A20FCF704FA0021302092
:10448000FCF700FA40F202413120FCF7FBF94FF44F
:1044900083713220FCF7F6F940F203513320FCF728
:1044A000F1F94FF482713420FCF7ECF940F201315C
:1044B0003520FCF7E7F929463620FCF7E3F940F20E
:1044C00005313720FCF7DEF94FF402713820FCF794
:1044D000D9F940F60B713920FCF7D4F902214120BB
:1044E000FCF7D0F951466020FCF7CCF9012161209E
:1044F000FCF7C8F94FF404719020FCF7C3F900E011
:10450000C8E04FF485719220FCF7BCF90421932098
:10451000FCF7B8F92146A020FCF7B4F901210720E7
:10452000FCF7B0F921210720FCF7ACF92321072083
:10453000FCF7A8F933210720FCF7A4F940F2331166
:104540000720FCF79FF90021A020FCF79BF95BE115
:1045500030211520FCF796F910219A20FCF792F9EA
:1045600020211120FCF78EF943F228411020FCF79E
:1045700089F902211220FCF785F941F23801132054
:10458000FCF780F9282000F0EEFB12210846FCF72A
:1045900079F9282000F0E7FB43F220411020FCF7D6
:1045A00071F943F238011320FCF76CF9462000F052
:1045B000DAFB00213020FCF765F940F2024131209E
:1045C000FCF760F940F207313220FCF75BF94FF459
:1045D00041713320FCF756F904213420FCF752F9DD
:1045E00040F201413520FCF74DF929463620FCF711
:1045F00049F940F205313720FCF744F94FF4C26520
:1046000029463820FCF73EF929463920FCF73AF9CB
:1046100021460120FCF736F959460220FCF732F911
:1046200041F230010320FCF72DF940F60801082083
:10463000FCF728F908210A20FCF724F951466020EC
:10464000FCF720F901216120FCF71CF94FF49F7160
:104650009020FCF717F921469220FCF713F9214628
:104660009320FCF70FF94FF44051A020FCF70AF912
:104670001021A320FCF706F901210720FCF702F91D
:1046800021210720FCF7FEF823210720FCF7FAF888
:1046900033210720FCF7F6F840F23311A0E6E220C0
:1046A000FCF7D2F82320FCF7D9F80220FCF7D6F863
:1046B0000420FCF7D3F8642000F036FBE020FCF780
:1046C000C3F80120FCF7CAF80A2000F04CFBE020F8
:1046D000FCF7BAF80320FCF7C1F80C2000F043FB0C
:1046E0000120FCF7B1F80A2000F03DFBE620FCF7C2
:1046F000ABF80320FCF7B2F8FF20FCF7AFF8FF207F
:10470000FCF7ACF8B020FCF79FF82020FCF7A6F8E7
:104710000020FCF7A3F80320FCF7A0F840F21F30BC
:10472000FCF79CF80120FCF799F840F2DF10FCF749
:1047300095F80020FCF792F8B420FCF785F80420E7
:10474000FCF78CF840F21F40FCF788F80020FCF7DB
:1047500085F8D220FCF782F80020FCF77FF80020D3
:10476000FCF77CF80020FCF779F80020FCF776F8DD
:10477000B620FCF769F80220FCF770F84FF40370DC
:10478000FCF76CF80020FCF769F82220FCF766F8CB
:104790000920FCF763F80020FCF760F80020FCF724
:1047A0005DF8F020FCF750F80320FCF757F82920BB
:1047B000FCF74AF8D020FCF747F80020FCF74EF849
:1047C000BE20FCF741F80520FCF748F8FE20FCF776
:1047D00045F80120FCF742F8FF20FCF73FF80020E5
:1047E000FCF73CF8B820FCF72FF80F20FCF736F860
:1047F0000120FCF733F8BA20FCF726F80120FCF77B
:104800002DF86420FCF76AFB0020FCF789FBFF49C8
:104810000120C1F880013046BDE8F05FFCF70DBD16
:104820002DE9F843FA4D1F468046AB88089EA3F554
:10483000D040043802D1A879012807D0A2EB0800A3
:10484000401C85B20C46DFF8CC9328E02B88084644
:10485000991A0024AC713A462A24A3EB08036C8110
:104860002B27491E5B1EAF8189B29BB20096FFF7D2
:10487000D7FF0120A8716F81AC81BDE8F883214684
:104880004046FCF72AF8FCF712F80020494602E0FF
:10489000401C0E8080B2A842FAD3641CA4B2BC4271
:1048A000EDD9EAE72DE9F0478246A2EB0A00401C69
:1048B0000E4685B2981B401C87B20024DFF8549343
:1048C000DDF8208014E0301981B25046FCF705F87D
:1048D000FBF7EDFF0020494606E004FB0503401C02
:1048E00038F813200A8080B2A842F6D3641CA4B220
:1048F000BC42E8D3BDE8F0872DE9FE4F0026A2EBCD
:10490000000882465F1A701E35468946B8F1000FCE
:1049100002DD4FF0010102E003D14FF000010191EF
:1049200002E0C8F100080190002F02DD4FF0010005
:1049300002E003D14FF00000009002E0C7F1000751
:1049400000904046B84501DD044600E03C46601C4E
:104950004FF0000B029015E01FFA89F11FFA8AF060
:10496000FCF72DFA46443D44A64202DD0199361B70
:104970008A44A54202DD00992D1B89440BF10100F8
:104980001FFA80FB02998B45E6DDBDE8FE8FF0B58E
:104990001C4615460E4607460B46FFF7ADFF3A4646
:1049A000234631461046FFF7A7FF23462A461946FD
:1049B0003846FFF7A1FF2A4623463146BDE8F040BE
:1049C000104699E72DE9FC4F804600241546032048
:1049D0000F46A0EB450649E0781B81B208EB040ABC
:1049E00001901FFA8AF0FCF7EAF9381B81B208EB54
:1049F000050900901FFA89F0FCF7E1F907EB040BB9
:104A00001FFA8BF11FFA89F0FCF7D9F907EB0509BA
:104A10001FFA89F11FFA8AF0FCF7D1F9A8EB040A12
:104A20001FFA89F11FFA8AF0FCF7C9F9A8EB05090A
:104A30001FFA8BF11FFA89F0FCF7C1F9019881B2D6
:104A40001FFA8AF0FCF7BBF9009881B21FFA89F0CF
:104A5000FCF7B5F9641C002E03DA06EB8406B61DDC
:104A600004E0601B06EB80066D1E0A36AC42B3DD27
:104A7000BDE8FC8F2DE9F84F82461F460C468B4659
:104A8000580700D0012000EBD70079084843203AAE
:104A9000C0B202F0FF090026009041E00C2F10D0B8
:104AA000102F12D0182F3ED15B4909EBC90001EB42
:104AB00080004FF00008855D28060AD55748028817
:104AC0000BE009EB49005649F1E7564901EB0910A3
:104AD000EFE70A9828B95148428821465046FCF72A
:104AE00078F96806050E4A48641CA4B24088A042C2
:104AF00019D9A4EB0B00B84209D10AF101001FFA41
:104B000080FA43485C46018851450CD906E008F11B
:104B1000010000F0FF08B8F1080FCDD3761CF6B203
:104B200000988642BAD3BDE8F88F0346012000E022
:104B30005843491EC9B2FBD270472DE9FF4F81B0DF
:104B40000027DDF838B01D46924680463C46B946FF
:104B50004FEA5B0627E0281B401EC1B20A20FFF780
:104B6000E4FFBAFBF0F00A21B0FBF1F201FB120006
:104B700027B9691E8C4201DA48B101273030C2B230
:104B800006FB048080B25B46CDF8009006E006FB91
:104B9000048080B25B462022CDF800900299FFF796
:104BA00069FF641CE4B2AC42D5D305B0BDE8F08F18
:104BB0002DE9FF4F81B08046DDF83CA00E984FF004
:104BC00000091F4693464C460AF00105460839E0A5
:104BD000381B401EC1B20A20FFF7A7FFBBFBF0F055
:104BE0000A21B0FBF1F201FB1200B9F1000F05D16F
:104BF000791E8C4202DAB8B14FF001093030C2B2EE
:104C000006FB048080B200950E9B16E000802142D6
:104C1000980900200008006CB0C700084C00002074
:104C20004CBD0008C0C100085FEA0A6006FB0480B2
:104C30000E9B80B2009508D530220299FFF71AFF2B
:104C4000641CE4B2BC42C3D3AFE72022F5E72DE9F0
:104C5000F84F044600F0FF0810190D46DDE90A760A
:104C60001FFA80FA58191FFA80F94FF0000B11E073
:104C7000544502D3E819444685B24D450FD23B4610
:104C800029462046CDF800B0FFF7F4FE04EB5700AC
:104C900084B2761C3278A2F120005E28E8D942E77F
:104CA00008B5684601F0E2FF08BD08B5684602F0A5
:104CB00016F808BD08B56A46082105F067FF08BD6B
:104CC000364810B50078012807D101F05DFF06F0E5
:104CD000BAF8BDE8104001F062BF10BD10B56FF02A
:104CE000040000F05AF92E482E492F4B0068304C32
:104CF000B0FBF1F2B0FBF1F01A702C4A1168B4FB72
:104D0000F1F1414310684FF47A72B2FBF0F0588031
:104D10004FF0E020026942F0020202614161016944
:104D200041F00101016110BDF8B54FF0E02700240A
:104D30007E691D49097800FB01F5684601F096FF80
:104D4000B969B8698842FCD002D2A1EB000102E047
:104D5000A6EB000211440C440146AC42F1D3684674
:104D600001F0BDFFF8BD70B504460C48007878B17D
:104D70001048007860B90C4D6888844203D3B4FBB6
:104D8000F0F0FFF797FF6888B4FBF0F100FB1144E7
:104D90004FF47A706043BDE87040C5E7A100002081
:104DA0003800002000127A005000002000D70008D0
:104DB00040420F00A0000020704741490A88520677
:104DC000FCD53F4AC1B2121D11807047F0B50646AE
:104DD00087B0012144F2040000F0C5FC384D28469C
:104DE00000F020FA6815ADF8100003248DF8124089
:104DF0001820344F8DF8130004A9384600F037F915
:104E00002815ADF8100004208DF8130004A93846C9
:104E100000F02DF925208DF814008DF815408DF83F
:104E2000164001208DF8170005A800F076F8002143
:104E3000ADF80810ADF804100C20ADF80610ADF870
:104E40000C10ADF80A0000966946284600F01AFAE0
:104E5000012240F22551284600F091FA012128460E
:104E600000F083FA07B0F0BD70B5154C40F2255143
:104E7000204600F03BFB00280ED0204600F0CFFA81
:104E8000114AC1B21088030406D444044FF0000351
:104E900006D50A2901D0138070BD40F400400DE012
:104EA0000D2909D0C0F30D04084D401C80B22955CE
:104EB0001080C728EFD870BD40F48040108070BDCE
:104EC000003801400008014054000020A6090020DD
:104ED0000948804709480047FEE7FEE7FEE7FEE78E
:104EE000FEE7FEE7FEE7FEE7FEE7FEE704480549CA
:104EF000054A064B704700004107000831010008D1
:104F0000982A002098300020982C0020982C00200F
:104F10002849084328490860704730B50F23C278F4
:104F200001780125F2B1244A126801F1E02102F46E
:104F3000E062C2F5E062120AC2F10404D340427892
:104F4000A24084781C401443220181F80024007898
:104F500000F01F018D404009800000F1E020C0F802
:104F6000005130BD01F01F0085404809800000F16C
:104F7000E020C0F8805130BD104A114001430E4876
:104F8000001F016070470C4A121D0029116801D0F2
:104F9000014300E08143116070474FF0E021042895
:104FA000086903D020F004000861704740F0040055
:104FB000FAE700000000FA050CED00E080FFFF1F9B
:104FC0008F4910B5884206D10121042000F0DDFB95
:104FD000002104203BE08B49884206D101210820B2
:104FE00000F0D3FB0021082031E08749884206D138
:104FF0000121102000F0C9FB0021102027E0834987
:10500000884206D10121202000F0BFFB0021202092
:105010001DE07F49884206D10121402000F0B5FB08
:105020000021402013E07B49884206D101218020E5
:1050300000F0ABFB0021802009E0774988420AD1CB
:1050400084150121204600F0A0FB00212046BDE888
:10505000104000F09ABB10BD10B50121084600F0C9
:1050600094FB0021BDE81040012000F08EBBF0B59C
:10507000CC78002204F00F03E40601D58C7823439A
:105080000C784FF00F0C14F0FF0F4FF0010E1BD0F7
:1050900005680E880EFA02F42640A64210D196004A
:1050A0000CFA06F725EA070703FA06F5CE783D4322
:1050B000282E02D0482E02D002E0446100E00461B4
:1050C000521C082AE5D305600A88FF2A1CD94468C7
:1050D000002202F108060EFA06F50E882E40AE42B6
:1050E0000ED196000CFA06F7BC4303FA06F7CE7809
:1050F0003C43282E00D14561CE78482E00D1056171
:10510000521C082AE5D34460F0BD4FF6FF710180C0
:10511000022181700421C17070470246002092680C
:105120000A4200D001207047806880B27047024672
:105130000020D2680A4200D001207047C06880B2C7
:10514000704701617047416170470AB10161704762
:1051500041617047C160704741F480328261816172
:1051600082618169806970472C4B10B51A684FF6CF
:105170008074224042EA00100843186010BD28499C
:10518000C8617047F0B5254C002801DAE36900E0FA
:105190006368450D2E0185B2C0F30157B540C0F3D9
:1051A0000342032F05D0C6020AD503269640B34317
:1051B00007E023F07062636823F07063636002E0CD
:1051C000AB4343F0706201B12A43002801DAE26187
:1051D000F0BD6260F0BD10B58A0721F003040F49ED
:1051E000120F21440F238C6893409C438C608B6882
:1051F000904003438B6010BD0949C1F8DC00704743
:1052000000080140000C0140001001400014014062
:1052100000180140001C0140002001400000014036
:1052200000002042C44910B588420AD101218C03F4
:10523000204600F0AAFA2046BDE81040002100F008
:10524000A4BABE49884202D101214C0410E0BC49F5
:10525000884202D101218C040AE0BA49884202D175
:105260000121CC0404E0B84988420AD101210C058F
:10527000204600F093FA2046BDE81040002100F0DF
:105280008DBA10BD30B50446008A85B00D464CF687
:10529000FF710840E98801432182A0894EF6F3118D
:1052A0000840A9882A8911436A8902431143A181D0
:1052B000A08A4FF6FF410840A9890143A1826846B0
:1052C00000F006FA9C48844201D1039800E002985D
:1052D000A189090400EBC00101EB0010296801D588
:1052E000490000E08900B0FBF1F06422B0FBF2F16C
:1052F00009010B096FF018056B4300EB8300A389CC
:105300001D044FF0320306D503EBC000B0FBF2F0F2
:1053100000F0070005E003EB0010B0FBF2F000F036
:105320000F000843208105B030BD4FF416510160D5
:1053300000218180C18001810C22428181817047DE
:1053400010B5028A4FF2FF031A400B884C882343A2
:105350008C88C9880C4323431343038210BD00216A
:10536000018041808180C18070470029818902D0FD
:1053700041F4005101E021F400518181704710B5E2
:10538000C1F3421301F01F040121A140012B07D0FA
:10539000022B07D01430002A026805D00A4304E02B
:1053A0000C30F8E71030F6E78A43026010BD002A9F
:1053B000828A01D00A4300E08A4382827047028ACF
:1053C00022F00F020282028A0A4302827047828917
:1053D00022F40062828182890A4382817047002917
:1053E000818902D041F0020101E021F002018181B6
:1053F0007047028A22F020020282028A0A43028255
:1054000070470029018A02D041F4804101E021F473
:10541000804101827047C1F3080181807047808814
:10542000C0F308007047818941F001018181704714
:10543000028BD2B20283028B42EA012101837047C0
:10544000028B02F47F420283028B0A43028370477D
:105450000029818A02D041F0200101E021F02001E1
:10546000818270470029818A02D041F0100101E059
:1054700021F01001818270470029818A02D041F019
:10548000080101E021F0080181827047002981892B
:1054900002D041F4004101E0C1F30E018181704767
:1054A0000029818A02D041F4006101E021F4006109
:1054B00081827047828A22F004028282828A0A43B1
:1054C000828270470029818A02D041F0020101E006
:1054D00021F00201818270470246002012880A42B0
:1054E00000D001207047C9430180704770B501F0BA
:1054F0001F0501260024C1F3421306FA05F2012B11
:105500000FD0022B0FD0838A4FEA1121008813425B
:1055100006FA01F600EA060001D000B10124204697
:1055200070BD8389F0E7038AEEE70A0A0121914002
:10553000C94301807047000000380140004400402A
:1055400000480040004C004000500040A548016861
:1055500041F0010101604168A34A114041600168C6
:10556000A24A11400160016821F480210160416874
:1055700021F4FE0141604FF41F0181607047994999
:105580000A6822F480320A600A6822F480220A60E3
:10559000B0F5803F07D0B0F5802F03D1086840F404
:1055A000A02008607047086840F48030F9E703469F
:1055B000002059098B4A01290AD002290AD0516AD0
:1055C00003F01F02012393400B4200D001207047DB
:1055D0001168F5E7116AF3E718B500204FF4A064ED
:1055E00000903120FFF7E3FF0099491C0091A14290
:1055F00001D00028F5D03120FFF7D9FF002800D0D6
:10560000012018BD774A116821F0F80141EAC00075
:1056100010607047764908607047724B5A680843BB
:1056200022F47C1210435860704771490866704735
:105630006C4A516821F00301014351607047694889
:10564000406800F00C007047664A516821F0F00194
:10565000014351607047634A516821F4E06101439E
:10566000516070475F4A516821F4605141EAC000BF
:10567000506070475B4A0029517A01D0014300E035
:105680008143517270475A49C1F8D8007047554A52
:10569000516821F440410143516070475149002253
:1056A00081F8202081F82020012802D0042802D18E
:1056B000052081F8200070474E490860704749492D
:1056C0000A6A02430A6270474A49443908607047CF
:1056D00030B5444A5168484B11F00C0103D00429FD
:1056E00001D0082901D0036012E05168536801F429
:1056F00070114FF0020413F4803F04EB914102D08B
:1057000053689B0301D53D4B00E03B4B594301607F
:1057100051680F2303EA1111394B5C5C0168E140C9
:1057200041605468072505EA14241C5D21FA04F43D
:105730008460546805EAD4241B5DD940C160526876
:10574000032303EA92322E4B1B1F9A5CB1FBF2F14A
:10575000016130BD234A0029516901D0014300E0B5
:105760008143516170471F4A0029916901D001436B
:1057700000E08143916170471A4A0029D16901D044
:10578000014300E08143D1617047164A0029D16886
:1057900001D0014300E08143D1607047114A0029E4
:1057A000116901D0014300E0814311617047114943
:1057B0004039086070470E49C86470470949C8718C
:1057C00070470848416A41F0807141627047054A5C
:1057D0000146002092680A4200D00120704701492A
:1057E00088727047001002400000FFF8FFFFF6FECD
:1057F000000042428004424200127A0000093D004B
:105800006000002000B585B06846FFF761FF019891
:1058100005B000BD10B5FFF7F5FF11490A6842F069
:1058200080720A600F4900224A600A6842F0010251
:105830000A60BDE8104000F075B80A48406870473B
:1058400010B50446FFF7DEFF0021074A0B4605F0BE
:1058500018FF02460B462046002105F012FF10BD3E
:10586000FCED00E0001000E040420F0010B500F039
:10587000DFF804461021694800F0D8F92046BDE859
:10588000104000F0D9B8664910B500200860FFF755
:10589000C1FFBDE81040E9E7FEE770B505460C0022
:1058A0000ED075B100F0C4F8064610225B492846B8
:1058B00000F0C4FC304600F0BFF80020208070BD2E
:1058C000FEE70A20088070BD70B50C00054612D0B6
:1058D00095B1102100F0A4FC102810D200F0A8F817
:1058E0000646102229464D4800F0A8FC304600F03C
:1058F000A3F8002005E0FEE70A20088070BD4FF401
:105900007A70208070BDFFF798BF7047020004D006
:105910004348006810B1002102E0FEE74FF4FA614D
:10592000118070473E490860704710B500F08BF851
:10593000183810BD10B500F086F8103810BD00F012
:1059400082B8F0B50C0E0B0C0D0A0026354AD0F1CA
:10595000FF378E411BD24FF6FF76D0F1FF378E41D5
:105960000AD26FF07F45D0F1FF308D4101D2105D3A
:10597000F0BDD05C0830F0BDFF23D0F1FF308B418B
:1059800002D2505D1030F0BD505C1830F0BD4FF6C3
:10599000FF740023241A8B4111D26FF07F4400233F
:1059A000241A8B4105D2000E40EA0120105C203001
:1059B000F0BD000C40EA0140105C2830F0BD00232F
:1059C000D0F1FF048B4105D2000A40EA0160105C6F
:1059D0003030F0BD105C3830F0BD08B100F036B8A2
:1059E0000820704708B100F031B81020704708B1A6
:1059F00000F02CB82020704700B550EA01020BD00F
:105A0000C243521CCB4343F1000310401940FFF73F
:105A100098FFC0F13F0000BD402000BD6E0A00208D
:105A2000700000200CD5000872B6704762B670474F
:105A3000EFF3108072B6704780F31088704730BF64
:105A4000704720BF7047B0FA80F0704790FAA0F01E
:105A5000B0FA80F0704790FAA0F07047A0F14101D1
:105A6000192902D96138192801D80120704700206E
:105A70007047A0F14101192905D92039192902D906
:105A80003038092801D8012070470020704761385C
:105A9000192801D801207047002070474138192883
:105AA00001D801207047002070473038092801D8FC
:105AB00001207047002070473038072801D80120A6
:105AC000704700207047A0F13001092905D911392C
:105AD000052902D96138052801D801207047002026
:105AE0007047202803D0092801D0002070470120EA
:105AF000704720280BD00D2809D00A2807D00C2881
:105B000005D0092803D00B2801D0002070470120C0
:105B1000704720385E2801D8012070470020704768
:105B200021385D2801D80120704700207047A0F17E
:105B300020015E2916D8202814D00D2812D00A285A
:105B400010D00C280ED009280CD00B280AD02139EF
:105B50001A2907D320391A2904D330380A2801D347
:105B6000012070470020704741B2002901DB1F2847
:105B700003D97F2801D00020704701207047A0F191
:105B80004101192900D82030C0B27047A0F161014D
:105B9000192900D82038C0B2704700B50B46FFF76E
:105BA000F5FF02461846FFF7F1FF824201D10120BE
:105BB00000BD002000BD0000FD48FE490246C0E9CE
:105BC000001200218160C160016141618161C16198
:105BD00001620163C162416200F148018163C163F6
:105BE0004FF4806101644164F3480260704710B56E
:105BF00000231C46641C41EA0323042CFAD310F052
:105C0000030404D109E0521E00F8011B641C22B1F8
:105C1000042CF8D301E008C0121F042AFBD202E0D2
:105C200000F8011B521E002AFAD110BD0A460021BD
:105C3000DDE730B4814202D930BC00F0C5BD10446C
:105C40001144401E491E431A042B28D300F00303BD
:105C500001F00304A34201D1012400E00024F4B1C7
:105C6000032B07D109E05B1E11F8014900F8014937
:105C70005BB2521E0AB1002BF5DAC01EC91E04E049
:105C800051F8043940F80439121F042AF8D2C01C14
:105C9000C91C04E011F8013900F80139521E002A2C
:105CA000F8D130BC704770B5034662B16BB161B1D9
:105CB00013441144012003F0030401F00305AC4236
:105CC00005D1012504E0012070BD002070BD002534
:105CD000DDB1BCB113F8015D11F8016DB54200D022
:105CE0000020521E641E0128F0D1002AF1D109E0E3
:105CF00053F8044D51F8045DAC4200D00020121F4F
:105D000001280AD1042AF3D207E013F8014D11F853
:105D1000015DAC4200D00020521E0128D6D1002ADD
:105D2000F3D170BD30B5C36BB3FBF2F402FB143496
:105D30000CB1121B00E00022446C11448C4201D2D1
:105D4000002030BD5D18611AC5631A4441641046D5
:105D500030BD10B5B0FBF3F403FB140000B1181A0A
:105D6000B2FBF3F403FB14240CB11B1B00E0002373
:105D700010441A44491E02FB010010BD2DE9FC5FCE
:105D80001F4614008A46834600D101AC0020884E8D
:105D90002060FFF74DFE009053465A460121D6F889
:105DA0004480F06BFFF7D5FF054642F2E2794045AB
:105DB00006D90098FFF740FEA5EB0800206012E02E
:105DC000524659463046FFF7ADFF0600009807D00F
:105DD000FFF732FE42F2107038803046BDE8FC9F7B
:105DE000FFF72AFE2560A7F800900020F6E72DE9CE
:105DF000F04116460D460446FFF71AFE6368996B9C
:105E000001B96B4BDF6B5C6CFFF716FE012D06D9F9
:105E1000B7FBF5F005FB107000B1281A241A42F206
:105E2000107030802046BDE8F0810A460146604887
:105E3000DDE7B8B1614A0260002242608260C26060
:105E4000026142618261C2610262826242630263F4
:105E5000C26242628263C2630264426442F21070B0
:105E60000880704742F21170FAE72DE9FF4F89B0C0
:105E70008A46DDE91879044607B906AF0020386084
:105E800049462046FFF7D5FFB9F80010A1F51C5090
:105E9000103859D14848006890B10020DFF81081CF
:105EA0000290FFF7C5FD05905FEA0A000BD002469D
:105EB0000B98002613184048B3465B1E056848E05F
:105EC00042F2E7713EE0D8F83C1003910423C34648
:105ED00045461A460C990398FFF73BFF0399049037
:105EE00008440890DDE916230C99FFF732FF009073
:105EF00000990498464608440290D8F8441001914D
:105F0000884261D90598FFF797FDDDE901103CE073
:105F1000A86B504506D1D5F840C00B998C4501D1EE
:105F20002E4618E0296C0144491E834213D3824255
:105F300003D98B4201D98A4209D80598FFF77CFD25
:105F400042F27F71A9F800100DB0BDE8F08FAB46AA
:105F5000ED68002DDCD136B9C4E90EAA0B98206497
:105F60000B982646606404231A46D8F83C000C9926
:105F7000FFF7EFFE0490D8F844100191884206D94B
:105F80000598FFF759FD01990498401A34E0F06B29
:105F90000890DDE916230C99FFF7DBFE0090716C89
:105FA0000191884210D90598FFF746FD08E00000EE
:105FB000800A002048454150740000204E4F4E4555
:105FC000DDE90001401A46E00C98042280000146F9
:105FD00001904046FFF7A6FE039008B100201CE0A8
:105FE000D8F844400598FFF727FDBAF1000F07D015
:105FF0000198A04200D9001B386042F2E27054E0E0
:106000000298F6E7DDE916123046FFF78BFE90B1F5
:10601000039941F8280008F101000C998046884254
:10602000F0D3A64220D1C4E902B55FEA0B0016D036
:10603000CBF80C4015E0F56B746C0598FFF7FCFC91
:106040000C98DDE91623A0EB08012846FFF781FE36
:10605000A04200D9001B386042F2D87025E06E489B
:1060600004603DB1AC6005E07069C4E9046074612E
:1060700000B104616948C4E900060898A06100996C
:1060800008980844401EE061039820620098A062CE
:1060900017986063169820630C98E0620C98606211
:1060A0000598FFF7C9FC42F21070A9F800004BE711
:1060B00070B50D460446FFF7BBFC646AFFF7BCFCF5
:1060C00042F210702880204670BD70B51546044617
:1060D000FFF7AEFC616A49B1E26A91420BD9FFF762
:1060E000ABFC42F295702880002070BDFFF7A4FC45
:1060F00042F2DE70F7E7491E6162226A52F82140DF
:10610000FFF79AFC42F210702880204670BD70B5EF
:1061100014460E460546FFF78BFCEA6A911B491EA2
:1061200042F295768A4202D96A6A8A4204D9FFF716
:1061300083FC2680002070BD2A6A52F82150FFF7A8
:106140007BFC42F210702080284670BD2DE9F041A2
:1061500016460D460446FFF76BFCE76A626A844602
:10616000BA4204D3FFF768FC42F2DD701EE04FF044
:10617000000E1346206A04E050F82310A94205D00F
:106180005B1C9F42F8D8BEF1000F03D050F82210DC
:1061900040F82310D4E9080140F82150606A401CFF
:1061A00060626046FFF748FC42F2107030803AE6C9
:1061B0002DE9F04115460E4604464FF0FF37FFF734
:1061C00037FC0246E16A606A884205D31046FFF751
:1061D00033FC42F2DD701CE04FF0000C05E0236A56
:1061E00053F82030B34205D0401C8142F7D8BCF1AF
:1061F000000F09D00C1A1046641EFFF71DFC42F276
:106200001070288020460EE61046FFF715FC42F27B
:1062100088702880384606E674000020504F4F4CA6
:10622000002201E0401C521C18B103780BB18A42D5
:10623000F8D3104670474FF0FF31F1E730B5002832
:1062400011D089B10346002405E0491C03F8015B25
:10625000641C4BB141B10D780DB19442F5D3944219
:1062600001D20021197030BD002030BD4FF0FF3247
:10627000E4E730B5002816D0B1B1002A13D00346A8
:1062800001E05B1C10D01C78002CFAD104E0491C02
:1062900003F8015B641C3BB131B10D780DB1944240
:1062A000F5D30021197030BD002030BD4FF0FF3212
:1062B000DFE7F0B532B330B111B304460B46401CF2
:1062C000491C002508E0E9B108784042F0BD401CB7
:1062D000491C5B1C641C6D1C26781F78BE4204D1CF
:1062E0001EB110B109B19542F1D395420AD0F4B272
:1062F000FAB2944201D0B01AF0BD1EB10028E2D02B
:106300000078F0BD0020F0BD4FF0FF32D1E72DE95D
:10631000F0475FEA020A41D070B181B10446461CE1
:106320000F464D1C0078FFF72AFC81463878FFF7AE
:1063300026FC4FF0000811E079B3087829E00078D6
:1063400021E008F1010814F8010F6D1C761C7F1C78
:10635000FFF715FC81463878FFF711FC814505D120
:10636000217819B116B10DB1D045EAD3D04515D079
:106370004946814503D0A9EB0000BDE8F08708003D
:10638000FBD026B13078BDE8F047FFF7F8BB25B168
:106390002878FFF7F4FB4042EFE7FFE70020ECE747
:1063A0004FF0FF32B3E710B5002812D081B10023BF
:1063B00003E0401C03F101030BD004781CB19442AC
:1063C00001D08B42F5D38B4202D2E1B2914200D090
:1063D000002010BD0A464FF0FF31E4E730B5154606
:1063E00004000FD071B1491EFFF71AFF20180AD020
:1063F00000E0401EA04202D00178A942F9D1017804
:10640000A94200D0002030BD0A464FF0FF31E5E739
:1064100030B5002803D00BB1044607E0002030BDA2
:106420008D4200D122705B1E641CF8D02578002DAF
:10643000F5D0002BF4D130BD4FF0FF33E8E72DE964
:10644000F0418C46060032D0BCF1000F2FD072B361
:10645000501C01D0511C01E04FF0FF310D46114698
:106460003046FFF7DDFE044629466046FFF7D8FEBA
:10647000050014D0A5421AD8301911D01CEB050024
:106480000ED0671B0024301980462A466146FFF76C
:1064900010FF010006D00020641C28B106E0304641
:1064A000BDE8F0810120F7E7BC42ECD909B100203A
:1064B000F6E74046F4E74FF0FF32C0E72DE9FF5F13
:1064C000074611980E9D1446894600286CD0002678
:1064D000B246B9F1000F00D10126A01E232800D337
:1064E000012615B32846FFF714FB01281CD1302DD7
:1064F0001BD0A5F13000C1B20F98012802D0A5F140
:10650000410001E0A5F16100C0B20A2C02D8A1420D
:1065100006D307E00A2903D3A4F10A01884201D275
:10652000012000E0002000B10126119A56BBB846B8
:10653000012003E0B8FBF4F8401CC0B2A045F9D23A
:106540000399012900D0002100EB010CCC4518D89B
:106550004FF0000B4B46484500D318464DB1A9EB10
:106560000000401A4B4610F0FF0F04D0302D04D02D
:1065700001E00844C3B2002000E0012082460EB9C9
:1065800001E001264B461099D01809B10021017095
:106590000021401E04E056B13F2200F80129491CA9
:1065A0009942F8D39EB3002004B0BDE8F09F27B90C
:1065B00019B1039A012A16D024E0B7FBF4F204FBC8
:1065C0001272D2B20A2A01D2303207E0DDF83CC0A2
:1065D000BCF1010F01D0373200E05732B7FBF4F7BE
:1065E00000F80129DBE75AEA0B0205D0BAF1000FE7
:1065F00008D05A1E914205D12D2200F801294FF0F2
:10660000010BCCE7002DCAD000F80159C7E7FFE71E
:106610001198C9E77FB50DF1200C9CE870008DE85A
:1066200078000023FFF74AFF04B070BD2DE9FF4159
:106630001C46DDE90B650A9F002802DA404201236F
:1066400000E00023CDE90047CDE90265FFF736FF02
:1066500004B025E72DE9FF5F1E4615465FEA0109F4
:10666000824601D10DF10809C9F800A00E9808B9B9
:1066700003A80E90002101705FEA0A0003D0012DEB
:1066800001D0242D01D900208EE70446007801E0D6
:1066900014F8010FFFF72DFA0128F9D020782B28E4
:1066A00003D02D2805D0002007E04FF0000B641C1C
:1066B00004E0012E00D1641C01208346019425B121
:1066C000082D11D0102D22D112E02078302801D0D1
:1066D0000A251CE014F8010F582803D0782801D0AF
:1066E000082514E010250CE0207830280ED00EE0AC
:1066F000207830280BD114F8010F582801D07828C1
:1067000005D16078FFF7DFF9012800D1641C00266D
:10671000B046009627783846FFF7ABF9012824D118
:106720003846FFF7C2F901280CD03846FFF7AFF919
:10673000012809D0373FF9B2A94216D2B8F1000FAB
:1067400004D00EE0303FF6E7573FF4E71D4850F81D
:106750002500B04203D306FB05168E4201D24FF04E
:1067600001080098641C0028D4D0B8F1010F01D1B1
:106770004FF0FF360198844202D0C9F8004001E092
:10678000C9F800A00E99304681F800B00CE708B5B2
:1067900000230093FFF75EFF08BD1CB501AB00931B
:1067A0000123FFF757FF9DF804204FF0004122B16D
:1067B000884200D2414208461CBD8842FCD36FF09B
:1067C00000401CBD0CD60008002800D170470029ED
:1067D00000D17047002A00D170472DE9F81F00F062
:1067E000030301F00304A34211D1C3F1040303F036
:1067F0000303012B1DD3012A00D2F2E011F8014B53
:1068000000F8014BA3F10103A2F10102F1E700F04E
:10681000010301F00104A34200D094E0012B44D312
:1068200011F8014B00F8014BA3F10103A2F10102A1
:10683000F4E7B2F5B47F26D3B1E8F81FA0E8F81F5B
:10684000B1E8F81FA0E8F81FB1E8F81FA0E8F81FAA
:10685000B1E8F81FA0E8F81FB1E8F81FA0E8F81F9A
:10686000B1E8F81FA0E8F81FB1E8F81FA0E8F81F8A
:10687000B1E8F81FA0E8F81FB1E8F81FA0E8F81F7A
:10688000A2F5B472D5E7282A06D3B1E8F81FA0E82C
:10689000F81FA2F12802F6E7042A06D351F8043BB8
:1068A00040F8043BA2F10402F6E7202A42D331F873
:1068B000023B20F8023B31F8023B20F8023B31F862
:1068C000023B20F8023B31F8023B20F8023B31F852
:1068D000023B20F8023B31F8023B20F8023B31F842
:1068E000023B20F8023B31F8023B20F8023B31F832
:1068F000023B20F8023B31F8023B20F8023B31F822
:10690000023B20F8023B31F8023B20F8023B31F811
:10691000023B20F8023B31F8023B20F8023B31F801
:10692000023B20F8023B31F8023B20F8023BA2F187
:106930002002BAE7022A06D331F8023B20F8023BD4
:10694000A2F10202F6E7102A42D311F8013B00F847
:10695000013B11F8013B00F8013B11F8013B00F845
:10696000013B11F8013B00F8013B11F8013B00F835
:10697000013B11F8013B00F8013B11F8013B00F825
:10698000013B11F8013B00F8013B11F8013B00F815
:10699000013B11F8013B00F8013B11F8013B00F805
:1069A000013B11F8013B00F8013B11F8013B00F8F5
:1069B000013B11F8013B00F8013B11F8013B00F8E5
:1069C000013B11F8013B00F8013BA2F11002BAE7CC
:1069D000012A06D311F8013B00F8013BA2F10102A4
:1069E000F6E7BDE8F81F704770470000F64CF74D1A
:1069F000FFF71EF82168491C21602968491C29609D
:106A0000FFF71AF804F078FDF2E700B5EE4A89B016
:106A1000002111600B2205910691CDE90720EC4879
:106A2000EC4AED4B006812681B680292CDE9030145
:106A30003F20CDE900030023AFF24F02E7A1EC486D
:106A400003F047F809B000BD0020EA4B024600EB16
:106A5000400103EB8101401C0A810A60C0B24A6018
:106A60004028F4D3704710B5044604F04BFDE248CB
:106A700000220A210270E1480270E1480270E148F8
:106A80000260E1480260E1480270E1480270E148BA
:106A90000270E1480260E1480260E1480260E148BA
:106AA0000270E1480068B0FBF1F0E0490860E0499D
:106AB000086830B1DF48006818B1096804C0491E91
:106AC000FCD1DD480260DD480260DD480260DD483F
:106AD0000260DD480260DD480260DD480260DD489A
:106AE000027001F02BFFFFF7AFFF204601F08DF899
:106AF0002088002847D1204601F0D9FA20880028B4
:106B000041D1204601F0FCFA208800283BD12046E4
:106B100001F0FDFE2088002835D1204602F03AFA27
:106B2000208800282FD1204602F0E2FC208800288F
:106B300029D1204603F058FE2088002823D1204682
:106B400001F062F9208800281DD12046FFF75DFF83
:106B50002088002817D1204603F046FF208800280F
:106B600011D1204602F04FFE208800280BD120468C
:106B700004F032FC2088002805D100F0A5FCBDE817
:106B80001040FFF731BF10BD9C480078012805D1A7
:106B900099490878FA2801D2401C08707047974834
:106BA00010B5007801282BD1FEF742FF9249044628
:106BB000087800B3401E10F0FF0008701BD1904809
:106BC0000078C0B901F0C3FE91490870894900EB13
:106BD000400051F820008C4908608A4909688842C1
:106BE00009D050F8901F491C01609B480168491C5E
:106BF000016004F037FF2046BDE81040FEF71CBFDF
:106C000010BD7D4810B50078002824D17C4800785C
:106C1000002820D1FEF70CFF044601F098FE7C49C5
:106C20000870744900EB400051F820007649086074
:106C300074490968884209D050F8901F491C0160C6
:106C400085480168491C016004F007FF2046BDE843
:106C50001040FEF7F1BE10BD694810B5007801285C
:106C600003D1FEF7EAFD6C49086010BD70B504461B
:106C70006148007810B146F6625019E05F4800782C
:106C8000012802D045F6896012E05D4D2878FA2887
:106C900002D345F209200BE0FEF7CAFE064628782B
:106CA000401C2870FFF7D8FF3046FEF7C5FE0020D5
:106CB000208070BD524810B5007800280ED1FEF734
:106CC000BCFD55490968401A54490A68824200D2FD
:106CD000086053490A68824200D2086010BD70B54E
:106CE00004464548007810B146F6655023E0434815
:106CF0000078012802D045F689601CE0404E3078CB
:106D000070B1FEF795FE05463078401E10F0FF008A
:106D1000307008D02846FEF78FFE46F663500AE032
:106D200046F6645007E0FFF7C5FF2846FEF784FEED
:106D3000FFF767FF0020208070BD2DE9F041164667
:106D40000C460746FEF774FE36490025012F01D098
:106D50000D7001E001220A7034490CB10C6005E0AD
:106D6000314A0A231268B2FBF3F20A60FEF764FEAE
:106D70003580BDE8F08110B50189002914D00129C2
:106D800012D00024022907D0D0E90013CA68146188
:106D9000C1E90343D96005E0D0E90012C1E903422B
:106DA000C2E90314C0E9002110BD70B504461248C1
:106DB000007810B148F2D14079E01148007810B164
:106DC00046F6635073E049E09C000020000100207B
:106DD000B4D60008B0D60008ACD6000875432F4FD3
:106DE000532D4949492049646C65205461736B00F7
:106DF00058230020EC240020A0000020A100002047
:106E0000E80000204001002044010020CE000020C6
:106E1000CF000020D0000020DC000020E000002097
:106E2000E4000020F000002000D70008EC00002063
:106E3000D8D60008D4D600088000002084000020A6
:106E4000880000208C00002090000020940000208A
:106E5000980000201E01002014010020F74800784F
:106E6000012802D046F67B1021E0FEF7E1FD064640
:106E7000F348F449007800EB400001EB80052889D5
:106E8000022805D23046FEF7D7FD46F67A100EE00E
:106E90002846FFF770FF2868416D09B9EA4909687B
:106EA00081653046FEF7C8FDFFF7ABFE002020806D
:106EB00070BD70B5E54D0446287818B145F68A6076
:106EC000208070BD01F043FDE1490870DC49087085
:106ED000DC4900EB400051F82000DE490860DE4943
:106EE00008600120287004F0A7FD43F69920E7E729
:106EF0000021018047F25C60704738B14268C1F8F8
:106F0000C02081688968096AC161704791F83400BE
:106F1000022803D0072803D0D0A002E0D0A000E0D0
:106F2000D1A0C1F8C000704730B58A68002592F83A
:106F3000374002891AB1521C028102680BE001221B
:106F400002814D600D60016014E0936893F8373062
:106F5000A34203D85268002AF7D107E032B1136880
:106F600053B1C1E900325960116030BD4D604268D3
:106F70000A605160416030BD1160C1E9005201609A
:106F800030BD10B5C2870024234601630EE04B607C
:106F900041F8103B641C41F8103BA4B241F80C3C92
:106FA00021F8083C41F8043C41F8180C9442EED317
:106FB00010BD70B5044690F83700A24900EB4000C0
:106FC00001EB8001D4E90320002540B10B895B1E51
:106FD0000B81C26092B110612561E56070BD2AB17C
:106FE0000889401E088115610A60F5E70D810D6072
:106FF0004D6094F8370001F0C8FCEDE74860EBE71E
:1070000038B50446022531B16B46022203F025FD56
:10701000BDF8000028B184F836502046FFF7C9FFBC
:1070200038BD032084F83600F7E72DE9F0418A4D9A
:1070300007460C4628680026194680F8342080F858
:107040003560FFF7DDFF64B1FC6004F10806012242
:1070500039462868FFF795FF39463046FFF764FF49
:1070600002E02868C687066320462968BDE8F0412B
:1070700043E710B502890024012A0BD00A6862B1E7
:107080004B6873B153601A600289521E02814C60D2
:107090000C6010BD04604460F6E74A68146002604A
:1070A000F2E754604260EFE770B50646C58F046BA7
:1070B00007E0E06821460830FFF7DBFF6D1EADB248
:1070C0002034002DF5D10020F087306370BD10B55D
:1070D0000B6BC98F08E0DC68844202D1DA61186169
:1070E00010BD491E89B220330029F4D110BD90F89B
:1070F0003710544A01EB410102EB810100230A8958
:1071000042B1521C0A810A68C0E903230A6810616F
:107110000860704701220A81C3600361086048600B
:10712000704790F83710474A01EB410102EB8101AB
:1071300000230A893AB1521C0A81C3604A6802617D
:10714000D0604860704701220A81C3600361086013
:10715000F7E710B5044690F8370001F008FC38490D
:1071600094F8370009788842204602D1BDE81040E3
:10717000D7E7BDE81040BAE710B5044603F05EFB60
:1071800094F83610490703D42046BDE81040E0E7E4
:1071900010BD2DE9F041064691F8360000270C4657
:1071A00015464FF00108082835D2DFE800F03434E6
:1071B000040434341A1A94F83400032803D1214605
:1071C0003046FFF784FFE765A4F86070256416B1C8
:1071D0002046FFF769FF2046FFF7CEFF84F83670A0
:1071E00015E094F83400032803D121463046FFF718
:1071F0006EFFE765A4F86070256416B12046FFF7BE
:1072000053FF204603F01AFB042084F8360084F86C
:10721000358084F83470ACE516A2C1F8C0208168CE
:1072200011B18968096A00E012A1C161704770B5A7
:1072300080F83710C58F046B2EE00000F0000020AE
:10724000CE000020EC240020EC000020A100002053
:10725000CF00002044010020400100202000000059
:107260005461736B205100005461736B2053656D42
:107270000000000020000000E668308A083601287F
:1072800007D921463046FFF7F4FE21463046FFF786
:107290004BFE6D1EADB22034002DEDD170BD00212E
:1072A00001604160018170470289521C02810268BD
:1072B0004A6000220A60026802B11160016002891E
:1072C000012A00D14160704710B50B6BC98F08E0EF
:1072D000DC68844202D1DA61186110BD491E89B2AE
:1072E00020330029F4D110BD2DE9F0410C4691F86E
:1072F0003610002502261746082933D2DFE801F0B0
:10730000323204043232191994F83410032903D1AB
:107310003A462146FFF7D8FFE565A4F860502046BD
:107320002764FFF7C1FE2046FFF726FF84F836509A
:1073300014E094F83410032903D13A462146FFF7AC
:10734000C3FFE565A4F860502046276403F076FA91
:107350002046FFF7A9FE042084F8360084F8356043
:1073600084F8345005E570B50C6B049DC98F0AE0B4
:10737000E668864204D1C4E904022383E56170BD56
:10738000491E89B220340029F2D170BDF8B50C46EF
:10739000054691F836100026069808293BD2DFE80A
:1073A00001F03A3A04043A3A202094F834100329C0
:1073B00011D0E265A4F86030206435B12046FFF7B3
:1073C00073FE21462846FFF727FF2046FFF7D4FE2D
:1073D00084F836601BE0009021462846FFF7C3FF83
:1073E000EBE794F83410032916D0E265A4F8603076
:1073F0002064204603F022FA35B12046FFF754FE00
:1074000021462846FFF708FF042084F8360084F858
:10741000356084F83460F8BD009021462846FFF7B7
:10742000A2FFE6E710B5FEF703FB1F490446002064
:1074300008701F481D49016051F8900F401C0860FA
:107440001C490868401C086004F007FB2046BDE8A2
:107450001040FEF7F1BA70B50546174800780128CC
:1074600020D1FEF7E5FA04462868B0B113498842F6
:1074700013D0816D11B1491E81650ED12889022872
:107480000BD30F48007840B92846FFF774FC2868F2
:10749000416D09B90B49096881652046BDE8704016
:1074A000FEF7CABA70BD0000CF0000201C240020E7
:1074B0004401002014010020F00000205823002087
:1074C000E8000020EC000020704700000023FF4A85
:1074D000FDA14361C161116819B18161486110600A
:1074E00070478361FBE72DE9F0410446F848904678
:1074F0000F4600781D4610B142F6E16025E014B356
:10750000FEF796FAF34E3178491C3170FEF794FA83
:10751000F148C4E900070027C4E9088704F108001E
:10752000FFF7BDFE2046FFF7D1FFEC490888401C5D
:107530000880FEF77DFA3178491E3170FEF77CFA3B
:107540002F80BDE8F08145F6C3501880F9E7E44983
:1075500002C0E4A102C000218161FFF7A0BED0E912
:10756000052100232AB151B191614A6183614361D0
:107570007047D64A116001B14B61836170479361D6
:10758000F5E72DE9F05F8046D1481446894600783A
:1075900010B143F2C92013E0B8F1000F06D0080083
:1075A00007D0012905D045F6256009E045F6C3500E
:1075B00006E0C949D8F80000884205D045F6C45015
:1075C00010800020BDE8F09FFEF732FAC14F3978F5
:1075D000491C3970FEF730FAB8F810505FEA09001C
:1075E000DFF8F8B2DFF8049308F10806AA460AD0DB
:1075F000012842D0FEF71CFA3978491E11F0FF012C
:1076000039705DD064E05FEA0A0008D0FEF710FA36
:107610003978491E11F0FF0139701FD026E040462D
:10762000FFF79DFFBBF800104046491EABF8001065
:10763000FFF78DFFFEF7FCF93978491E11F0FF01C5
:10764000397007D1B9F8001021B1FEF7F5F9FFF74D
:10765000E9FE01E0FEF7F0F900200BE0B9F80010B8
:1076600021B1FEF7E9F9FFF7DDFE01E0FEF7E4F9ED
:1076700047F25F1020805046A4E7FEF7DEF881460F
:1076800007E030684A4681684046FFF72DFE6D1ED0
:10769000ADB2002DF5D14046FFF761FFBBF80010F9
:1076A0004046491EABF80010FFF751FFFEF7C0F946
:1076B0003978491E3970FEF7BFF9FFF7A2FACBE718
:1076C000B9F8001021B1FEF7B7F9FFF7ABFE01E002
:1076D000FEF7B2F945F62560CCE730B4844C029D44
:1076E000246844F8802F0022238162602B4630BC3E
:1076F0000122FFF79ABC2DE9FF4F05468BB0744875
:10770000DDE9186400781F46894610B146F2AE10D4
:1077100007E1ADB148F20101781A8F4229D019DC96
:1077200040F20111A7F201108F4222D00BDC012F91
:107730001FD0022F1DD0042F1BD0082F16D118E008
:1077400045F6C350EDE0012813D0032811D00728D7
:107750000CD10EE0B0F5807F0BD0F4DDA0F5807089
:10776000013806D0022804D0062802D045F625604C
:10777000D7E059492868884202D045F6C450D0E085
:10778000F80501D5012000E0002080464FF0000BF5
:107790000EB1C6F800B007F00F010991FEF748F9E5
:1077A00009994C4A4FF0010E012934D0022938D0F2
:1077B000042902D008296ED123E0296A01EA090AC6
:1077C000CA4524D011E021EA0A0135E0484A12688E
:1077D000C2F884A00EB1696A3160FEF72DF9A4F8F1
:1077E00000B050460FB0BDE8F08F390426D5FEF743
:1077F00023F946F2B01094E0FEF71EF946F6635006
:107800008FE0296A01EA09035FEA030AEDD0B8F1C3
:10781000000FDBD0D7E7296A29EA010ACA4506D05A
:10782000E3E7296A29EA01035FEA030ADDD0B8F138
:10783000000FCBD041EA0A012962C7E7117800297D
:10784000DAD1924682F800E0FEF7F6F80D98009043
:107850003B464A46294601A8FFF73FFFFEF7E8F8F6
:107860009AF80010491E8AF80010FEF7E5F8FFF7B5
:10787000C8F9FEF7DDF81E4B1A6892F8351059B1B9
:10788000012937D0022945D003293BD0FEF7D4F88F
:1078900046F62E6045E014E00EB1116C3160A4F89C
:1078A00000B019685F46B8F1000FD1F8846041D08C
:1078B000099901293BD0022939D0042934D008295B
:1078C00032D0FEF7B9F851E720000000B8000020E0
:1078D000A0000020E8000020464C4147BC000020EA
:1078E0004E4F4E453F464C4147000000AC00002043
:1078F000400100200EB1116C3160FEF79DF846F298
:10790000A9100EE00EB1C6F800B0FEF795F847F2E8
:10791000D92006E00EB1116C3160FEF78DF845F606
:10792000C250208000205DE7296AB14301E0296A46
:1079300031432962FEF780F82780304652E72DE96F
:10794000F05F8046B4480F461446007810B146F206
:10795000AA1012E0B8F1000F0DD04FF4807A77B181
:1079600057450CD0B7F5004F09D0B7F5014F06D0F9
:1079700045F6256001E045F6C350108021E0A74997
:10798000D8F80000884202D045F6C450F5E7FEF76B
:107990004FF8B8F8101008F1080569B1DFF88092C7
:1079A00099F80020521C89F80020FEF745F80026BF
:1079B000FDF743FF834610E0FEF73EF846F2AB10BA
:1079C00020800020FEE528685A4681684046FFF77F
:1079D000E0FB761CB6B2574502D128890028F2D1C7
:1079E000FEF726F899F80020521E89F80020FEF7CD
:1079F00023F8380401D4FFF704F900202080304632
:107A0000E0E570B504468448007820B146F2AE1037
:107A10002080002070BDFEF70BF882490968D1F87C
:107A20008450FEF709F800202080284670BD70B50C
:107A30000025C0F8841080F8355080F83450044692
:107A4000026490F8360008280ED2DFE800F00D0D31
:107A500004040D0D0A0A2046FFF78EFB84F8365009
:107A600002E0042084F836002046BDE87040FFF7AD
:107A70001BBB2DE9F0479A4690460D460446089EEA
:107A8000FDF7D6FF01465FEA080022D0012807D0A3
:107A9000B0F5004F1DD06FF4004218EB020F12D169
:107AA000206AA843C4E9080A208A04F108054FF0B7
:107AB000000988B15A4F3878401C38700846FDF7E5
:107AC000BBFF2D6841E00846FDF7B6FF45F625608F
:107AD0005FE0206A2843E5E70846FDF7ADFFA6F81A
:107AE0000090206ABDE8F08790F888106D6801F07A
:107AF0000F01012918D002291ED004290AD0082913
:107B00000DD0FDF795FF3978491E11F0FF0139704E
:107B100033D03AE0216AD0F88020114009E0216A90
:107B2000D0F8802011400BE0D0F88010236A0A467C
:107B300099438A4205D007E0D0F88010226A914329
:107B400011B15246FFF773FF15B1A8680028CBD1D9
:107B5000FDF76EFF3978491E3970FDF76DFF5FEA5A
:107B6000084001D4FFF74DF8FDF762FF246AFDF7E6
:107B700063FFA6F800902046B4E72B49098821B19D
:107B8000FDF75AFFFFF74EFC01E0FDF755FF43F606
:107B9000FF2030800020A5E72DE9FF4115468846EB
:107BA00006001C460DD07DB1012D0DD0B5F5004F5E
:107BB0000AD06FF40040C54206D045F62560188013
:107BC00019E045F6C350FAE7144F3068B84202D0C6
:107BD00045F6C450F3E7FDF730FE03460E48007843
:107BE00060B1CDE90234CDE9008500231A46314663
:107BF000384600F01FF8002004B0A2E42A464146AF
:107C000030460094FFF735FFF6E7084A002111607F
:107C1000074A118001807047A0000020464C414770
:107C2000E800002040010020AC000020B800002047
:107C3000BC0000202DE9F05F1E46DDE90AAB90464E
:107C40000F4681460D9CFDF7F3FEA049A04A05466C
:107C50000888128890422BD2401C80B208809D492F
:107C60000A88824200D208809B4A1068C0F80090BF
:107C7000C0E902780682C0F814A0A0F818B00C99E8
:107C8000C1614068106095480121018194490160FB
:107C90004160002000F06BFE9248007808B19249E4
:107CA0000870002020802846BDE8F05FFDF7C4BEC4
:107CB0008E480188491C018044F25360F2E73EB5CA
:107CC0008B4C8C4A02AB206801688D1A914245D0DA
:107CD00015DC894A89182DD0884A891822D0884A0B
:107CE000891832D0874AD14208D1C169CDE9001341
:107CF000038B028AC168806802F086F93EBD824922
:107D000069181DD0814A891823D0814AD142F5D102
:107D1000C169CDE90013038B028AC168806801F054
:107D20008FF83EBD0093028BC36941698068FFF7FD
:107D3000A0FE3EBD018BC269806801F014FB3EBD10
:107D40008068194602F049FA3EBD018BC26980681D
:107D500022E08068194602F0B6FC3EBD62485F49E9
:107D6000007800EB400001EB8000FFF774FB206817
:107D700002AB0021C269674802F092FB66490868BD
:107D8000401E0860E9D1654800680860FDF755FDB0
:107D9000024602AB0021624802F082FB3EBD614F09
:107DA0004A4C0025DFF84881FDF742FE0646208850
:107DB000E8B13046FDF740FEFDF73FFD0646FFF710
:107DC0007EFFFDF73AFD3968801B814200D23860A2
:107DD000FDF72EFED8F800205268C8F80020218850
:107DE000491E2180FDF728FE002DDDD0D9E73B4953
:107DF000002008810860486000F0C7FD3046FDF7AC
:107E00001BFEFEF7FEFECCE7F0B53849464D89B0C3
:107E100000240C80296831B12D4E3188022905D209
:107E200044F2546135E044F2526132E03D490023AE
:107E30003E4F0C60296801F1200210E041F8087BF8
:107E40005B1C41F8084B9BB241F8044C21F8104BE5
:107E500041F80C4C21F8084C41F81C2C2032B6F8A3
:107E600000C06345EAD32A6841F81C2C1A490A600D
:107E70001F490A6015492E4A0C8016490C8011686A
:107E800051B12C492C4D0B682D68AB4207D244F2FE
:107E90005661018009B0F0BD44F25561F9E7032352
:107EA00005940694CDE90730086824491268002338
:107EB0000968CDE903040094CDE90121AFF2211254
:107EC0001FA1074801F005FEE4E70000AC00002018
:107ED000A4D60008AE000020A4000020EC2400205E
:107EE0001C240020CE000020D0000020B000002084
:107EF000A80000205449434BADBAB2BE0DF90BFAAD
:107F0000F2F8F7FF0006F6FF00F7FDF700FFEFFFBE
:107F100003FE0FFEB02800203C01002038010020A5
:107F200074290020B4000020BCD600084E4F4E45F6
:107F3000C4D60008CCD60008FCD60008C8D6000875
:107F400075432F4F532D49494920495352205175AC
:107F5000657565205461736B00000000574B00226B
:107F60008261196819B1C161886118607047C26186
:107F7000FBE72DE9F05F04465148DDE90A7500781A
:107F8000984616468B4610B145F2B96014E045F2AA
:107F9000BB615EB1B8F1020F01D2481C0CE045F2A2
:107FA000C160042F08D316F0030F02D02980BDE86A
:107FB000F09F17F0030F01D02880F8E7A8F1010126
:107FC0008BB23246002104E0D0191060491C0246F1
:107FD00089B29942F8D34FF0000AC2F800A0FDF729
:107FE00027FDDFF8E09099F80010491C89F800108F
:107FF000FDF722FD344884E84108E660A4F81480C7
:10800000A4F8128027822046FFF7A8FF2F48018896
:10801000491C0180FDF70CFD99F80010491E89F8F4
:108020000010FDF709FDA5F800A0C0E770B5040039
:108030000D460ED0FDF7FCFCA18A71B1E668491E21
:108040003268E260A182FDF7F7FC0020288030460C
:1080500070BD45F2BF60088004E0FDF7EDFC45F21D
:10806000C2602880002070BD70B50E460400154621
:108070000BD06EB1FDF7DCFCA18A628A91420BD372
:10808000FDF7DAFC45F2BA600FE045F2BF6001E0AF
:1080900045F2BE60108070BDE1683160E660A18A83
:1080A000491CA182FDF7C8FC0020288070BD034A4E
:1080B00000211160054A118001807047C000002036
:1080C000A0000020E80000204D454D20C400002005
:1080D00010B5491E8CB2002100F110020B4608E0D9
:1080E000E0E80223491C20F8083B89B240F8043C30
:1080F0001032A142F4D3036043600381C36010BD1A
:1081000070B5524D0446286880B1514E308880B118
:1081100081B22868FFF7DCFF4E482968016031888A
:1081200081800021C1800181218070BD45F21E70D7
:1081300001E045F21D70208070BD10B5428992B1FA
:10814000444903680C681C6043680B60CB88448911
:108150001B1BCB808B88448923448B800021418169
:10816000818101604160104610BD01810021418183
:108170008181016041607047F0B544890025CCB130
:108180004468278966680F800AB1E1681160216838
:108190004160B9B14189491E41812E480168216081
:1081A00004608188491C8180C188491EC1801D806E
:1081B0003046F0BD0D8002B1156046F29250188035
:1081C0000020F0BD05604581E7E7F0B54489DDE9B1
:1081D00005E60589AC4202D346F293501EE01D4DE0
:1081E000AF88CFB12C687F1ED4F800C0C5F800C09E
:1081F000AF80EF887F1CBFB2EF80B5F808C0BC45E8
:1082000000D22F814789002557B1DB060CD40368C3
:108210001C60256004600AE045F21D703080F0BDEE
:1082200004600123446004E04368236044604389A0
:108230005B1C438187899BB29F4200D2838161602E
:108240002281C4F80CE03580F0BD0000E4D60008BF
:10825000A6D60008E02400200023FD4AFBA14361CC
:10826000C161116819B18161486110607047836113
:10827000FBE72DE9F0410446F6480F461546007825
:1082800010B142F6E1602AE03CB3FDF7D1FBF24EBB
:108290003178491C3170FDF7CFFBF048C4E9000785
:1082A0000027276284F825704020A76284F8240004
:1082B00004F10800FEF7F3FF2046FFF7CDFFE84981
:1082C0000888401C0880FDF7B3FB3178491E3170E7
:1082D000FDF7B2FB2F80BDE8F08145F6C35010805A
:1082E000F9E7E04902C0E0A102C0002181614177C5
:1082F000016240210177FEF7D2BFD0E905210023BA
:108300002AB151B191614A61836143617047D04A9A
:10831000116001B14B61836170479361F5E72DE90D
:10832000F05F0746CB480E461446007810B143F282
:10833000C92008E02FB146B1012E06D045F62560D0
:1083400001E045F6C3501080A4E0C4493868884273
:1083500002D045F6C450F6E7FDF76AFBDFF8F89265
:1083600099F80020521C89F80020FDF765FB3D8A32
:10837000DFF8FCA207F10808AB4666B1012E48D031
:10838000FDF756FB99F80010491E11F0FF0189F81E
:10839000001079D0A9E0BBF1000F0AD0FDF748FB2F
:1083A00099F80010491E11F0FF0189F8001020D043
:1083B00027E03846FFF7A1FFA9480188491E018040
:1083C0003846FFF78EFFFDF733FB99F80010491E82
:1083D00011F0FF0189F8001007D1BAF8001021B19F
:1083E000FDF72AFBFFF71EF801E0FDF725FB002053
:1083F0000BE0BAF8001021B1FDF71EFBFFF712F8F1
:1084000001E0FDF719FB47F25F1020805846BDE8F8
:10841000F09F3E6A16B396F8370097F8241088420A
:108420001CD096F8360008281CD2DFE800F00411B2
:108430001414111114143046FEF7BBFD97F82400F4
:1084400086F8370000F093FA3046FEF76AFE05E042
:1084500086F8371002E03046FEF7E9FEFDF7EDF949
:10846000064622E0FDF7E4FA99F80010491E11F0E3
:10847000FF0189F8001008D1BAF8001029B1FDF702
:10848000DBFAFEF7CFFF02E027E0FDF7D5FA46F66C
:108490002D6020800020BAE7D8F8000032468168BD
:1084A0003846FEF721FF6D1EADB2002DF4D13846DF
:1084B000FFF723FF6A480188491E01803846FFF70D
:1084C00010FFFDF7B5FA99F80020521E89F8002038
:1084D000FDF7B2FAFEF795FB89E7BAF8001021B173
:1084E000FDF7AAFAFEF79EFF01E0FDF7A5FA45F6B3
:1084F00025608AE72DE9F04F0646564889B01C46AC
:108500000078129D17468B4610B146F2AE10C9E0B6
:1085100036B147B1B7F5004F05D045F62560C1E04B
:1085200045F6C350BEE04D493068884202D045F65A
:10853000C450B7E04FF000080CB1C4F80080FDF75C
:1085400077FA96F825104B4B012281B19A46D6F85E
:1085500020C01B689C451CD1491C86F825100CB115
:10856000B16A2160FDF768FA45F282709AE01968F5
:10857000316291F8371086F8241086F825200CB166
:10858000B16A2160FDF758FAA5F8008009B0BDE88E
:10859000F08F390404D5FDF74FFA46F2B01081E0B0
:1085A0002D490B7823B1FDF747FA46F6635079E081
:1085B00089460A70FDF740FA376ADAF8000097F842
:1085C000372090F837108A421ED997F836000828CD
:1085D00052D2DFE800F004131616131316163846AD
:1085E000FEF7E7FCDAF8000090F8370087F837006C
:1085F00000F0BDF93846FEF77AFD05E087F8371040
:1086000002E03846FEF713FE5B4604223146684618
:10861000FEF70BFDFDF70CFA99F80020521E89F8C1
:108620000020FDF709FAFEF7ECFAFDF701FADAF897
:10863000002092F8351041B101293BD0022948D0E1
:1086400003293DD046F62E613FE02DE020000000DA
:10865000C8000020A0000020E80000204D5554581C
:10866000CC0000204E4F4E453F4D5554455800001C
:10867000AC00002040010020FDF7DAF999F8001065
:10868000491E11F0FF0189F8001007D1A34909889C
:1086900021B1FDF7D1F9FEF7C5FE01E0FDF7CCF9F8
:1086A00046F62D60288071E70CB1116C2160A5F8A9
:1086B00000800BE00CB1116C216046F2A91104E0BE
:1086C0000CB1C4F8008047F2D9212980FDF7B4F934
:1086D0005CE70CB1116C216045F6C251F5E72DE95C
:1086E000F05F80468E480F461446007810B146F27F
:1086F000AA1012E0B8F1000F0DD04FF4807A77B1D4
:1087000057450CD0B7F5004F09D0B7F5014F06D04B
:1087100045F6256001E045F6C350108021E081490F
:10872000D8F80000884202D045F6C450F5E7FDF7BE
:108730007FF9B8F8101008F1080569B1DFF8E89181
:1087400099F80020521C89F80020FDF775F90026E1
:10875000FDF773F8834610E0FDF76EF946F2AB10B3
:108760002080002053E628685A4681684046FEF77C
:1087700010FD761CB6B2574502D128890028F2D1E7
:10878000FDF756F999F80020521E89F80020FDF7F0
:1087900053F9380401D4FEF734FA00202080304623
:1087A00035E62DE9F84F04465D4815468A460078BF
:1087B00010B146F20E2011E03CB1080008D0B1F52E
:1087C000004F05D045F6256008E045F6C35005E0AA
:1087D00054492068884204D045F6C4501080BDE852
:1087E000F88FFDF725F9DFF84491226AD9F80010D7
:1087F0008A4204D0FDF720F945F281706CE0DFF881
:10880000288198F80020521C88F80020FDF714F900
:10881000FDF713F80646A06294F82500DFF8FCB0D7
:10882000401E10F0FF0084F8250016D0FDF700F977
:1088300098F80010491E11F0FF0188F8001007D1C8
:10884000BBF8001021B1FDF7F7F8FEF7EBFD01E0F2
:10885000FDF7F2F845F283703EE0208A04F1080744
:10886000E0B3D9F8000094F8243090F837209A4209
:1088700013D0FEF79EFBD9F8001094F8240081F87D
:10888000370000F074F8D9F80000FEF74AFCD9F878
:108890000000274990F837000870386800231A460E
:1088A0008168216291F8370084F82400012084F85F
:1088B000250020460096FEF769FDFDF7B9F898F807
:1088C0000020521E88F80020FDF7B6F85FEA0A4043
:1088D00001D4FEF796F90020288080E7FFE7002604
:1088E0002662FDF7A5F898F80010491E11F0FF0167
:1088F00088F8001007D1BBF8001021B1FDF79CF8F3
:10890000FEF790FD01E0FDF797F82E8067E7094A32
:1089100000211160084A118001807047AC000020DE
:10892000A00000204D555458E800002040010020D0
:10893000CE000020C8000020CC00002000201A4AF1
:10894000014642F82010401C0228FAD3704710B5A7
:108950000024154802E02034E4B2001D016800291B
:10896000F9D00846FDF76FF82044C0B210BD00F002
:108970001F0241090120C2F11F0290400A4A52F829
:108980002130034342F82130704700F01F024109B3
:108990000120C2F11F029040034A52F82130834364
:1089A00042F8213070470000780000200023F84A88
:1089B000F6A14361C161116819B18161486110601C
:1089C00070478361FBE72DE9F0410446F148174603
:1089D000884600781D4610B142F6E1602CE034B3C1
:1089E00047B3FDF725F8EC4E3178491C3170FDF79F
:1089F00023F8EA48C4E90008394604F12000FFF7EB
:108A0000B4FB04F10800FEF74AFC2046FFF7CEFF56
:108A1000E3490888401C0880FDF70AF83178491EB0
:108A20003170FDF709F800202880BDE8F08145F697
:108A3000C35001E046F294501880F6E770B5044642
:108A400020300546FFF779FBD6482060D6A060604D
:108A500000212846FFF789FB04F10800BDE87040BB
:108A6000FEF71DBCD0E9052100232AB151B1916167
:108A70004A61836143617047C54A116001B14B612E
:108A8000836170479361F5E72DE9F05F0746C148C0
:108A900014468946007810B143F2C9200BE047B173
:108AA000080045F6256B0AD0012908D0A2F800B0CD
:108AB00002E045F6C35010800020BDE8F09FB749A2
:108AC0003868884202D045F6C450F4E7FCF7B0FF9E
:108AD00082463D8A5FEA0900DFF8C49207F1080682
:108AE000A84608D001281FD05046FCF7A5FFA4F8DF
:108AF00000B04046E1E75FEA080006D05046FCF7C8
:108B00009BFF47F25F102080F3E73846FFF7AAFF8C
:108B1000B9F800103846491EA9F80010FFF78EFF7B
:108B20005046FCF789FF2DE0DFF86CB250469BF809
:108B30000010491C8BF80010FCF77EFFFCF77DFE4F
:108B4000824607E03068524681683846FEF7CCFB23
:108B50006D1EADB2002DF5D13846FFF783FFB9F891
:108B600000103846491EA9F80010FFF767FFFCF710
:108B70005FFF9BF80020521E8BF80020FCF75CFF83
:108B8000FEF73FF80020BEE770B5054681480C4669
:108B9000007810B14FF46C500BE045B17F49286864
:108BA000884208D045F6C4502080002070BD45F6AC
:108BB000C3500880F9E7FCF73BFF774E3178491C3A
:108BC0003170FCF739FF05F12000FFF7B6FA0546D2
:108BD000FCF72EFF3178491E11F0FF01317007D1EB
:108BE0007249098821B1FCF727FFFEF71BFC01E061
:108BF000FCF722FF00202080284670BD2DE9F04FB1
:108C0000074689B06348DDE9125400781E46914654
:108C10008B4610B146F2AE1040E047B156B110009D
:108C20000BD0B2F5004F08D045F6256036E045F68A
:108C3000C35033E046F2D52030E0584938688842C6
:108C400002D045F6C45029E04FF000080DB1C5F838
:108C50000080FCF7EDFE009023462A46314607F1DE
:108C60002000FFF789FA8246208840B15FEA094078
:108C70000CD50098FCF7E0FE46F2B0100EE000982C
:108C8000FCF7DAFE504609B0BDE8F08F42480178A3
:108C900039B10098FCF7D0FE46F6635020800020E2
:108CA000F1E78146012089F800000098FCF7C4FE36
:108CB0005B460522394601A8FEF7B7F9FCF7B8FE76
:108CC00099F80010491E89F80010FCF7B5FEFDF771
:108CD00098FFFCF7ADFE364A0346116891F835005F
:108CE00060B1012815D002282AD003284FF00007D0
:108CF00019D0A6F8008046F62E601BE0B1F860009F
:108D0000CF6D308015B11068006C2860A4F8008029
:108D100011E00027A6F8008015B11068006C2860EB
:108D200046F2A91006E04046A6F8008005B128608A
:108D300047F2D92020801846FCF77EFE3846A2E78D
:108D40000027A6F8008015B11068006C286045F671
:108D5000C250EFE72DE9F05F80460E480F461446FB
:108D6000007810B146F2AA1026E0B8F1000F21D029
:108D70004FF4807A17B3574520D0B7F5004F1DD078
:108D8000B7F5014F1AD045F6256015E02000000028
:108D9000D4000020A0000020E800002051554555D7
:108DA000D80000204E4F4E453F510000AC0000203F
:108DB0004001002045F6C350108021E07949D8F8E1
:108DC0000000884202D045F6C450F5E7FCF730FEBB
:108DD000B8F8101008F1080569B1DFF8CC9199F8DE
:108DE0000020521C89F80020FCF726FE0026FCF724
:108DF00024FD834610E0FCF71FFE46F2AB102080F6
:108E000000205AE628685A4681684046FEF7C1F9B4
:108E1000761CB6B2574502D128890028F2D1FCF75A
:108E200007FE99F80020521E89F80020FCF704FE86
:108E3000380401D4FDF7E5FE0020208030463CE6F2
:108E40002DE9FF4F83B01E46DDE9107A9346814637
:108E5000FCF7EEFDDFF8508198F80020521C88F8EE
:108E60000020FCF7E9FDB9F8104009F1080024B131
:108E7000B10500D4012405682FE0F00601D40023D9
:108E800000E01023CDE9007A5A4609F12000049948
:108E9000FFF79BF9FCF7CCFD98F80010491E11F084
:108EA000FF0188F8001009D14049098831B1FCF769
:108EB000C3FD07B0BDE8F04FFEF7B4BA07B0BDE898
:108EC000F04FFCF7B9BDA9686D685B46009748464E
:108ED000049AFEF75BFA641EA4B2002CF3D1FCF7EF
:108EE000A7FD98F80020521E88F80020FCF7A4FD8A
:108EF000300401D4FDF785FE0021AAF8001007B068
:108F0000C2E62DE9FF471E460C9C904689460500A7
:108F10000ED04FF40070B3F5004F18D00BDCB3B196
:108F2000102B14D0834212D0B6F5047F0CD10EE082
:108F300045F6C35011E0A6F50043103B07D0B3F54A
:108F4000F87F04D0834202D045F6256005E0154F36
:108F50002868B84204D045F6C4502080BDE8FF8799
:108F6000FCF76BFC1249097859B10021CDE90016D4
:108F7000CDE9020443464A4629463846FEF75AFEE2
:108F8000ECE7CDE900043346424649462846FFF760
:108F900057FFE3E7074A00211160074A118001806B
:108FA0007047000051554555E8000020AC000020F6
:108FB000A0000020D4000020D80000200023F94A9F
:108FC000F7A14361C161116819B181614861106005
:108FD00070478361FBE72DE9F0410446F2481746EC
:108FE000884600781D4610B142F6E16025E014B3D2
:108FF000FCF71EFDED4E3178491C3170FCF71CFD6D
:1090000027620027EA486762C4E9000804F1080003
:10901000FEF745F92046FFF7D1FFE6490888401CD6
:109020000880FCF705FD3178491E3170FCF704FD1E
:109030002F80BDE8F08145F6C3501880F9E7DE497E
:1090400040F8201B002102C040F82019DBA102C01B
:10905000FEF725B9D0E9052100232AB151B191616C
:109060004A61836143617047CE4A116001B14B612F
:10907000836170479361F5E72DE9F05F0746CA48C1
:1090800014468946007810B143F2C9200BE047B17D
:10909000080045F6256B0AD0012908D0A2F800B0D7
:1090A00002E045F6C35010800020BDE8F09FC049A3
:1090B0003868884202D045F6C450F4E7FCF7B8FCA3
:1090C00082463D8A5FEA0900DFF8E89207F1080668
:1090D000A84608D001281FD05046FCF7ADFCA4F8E4
:1090E00000B04046E1E75FEA080006D05046FCF7D2
:1090F000A3FC47F25F102080F3E73846FFF7AAFF92
:10910000B9F800103846491EA9F80010FFF797FF7C
:109110005046FCF791FC2DE0DFF890B250469BF8EA
:109120000010491C8BF80010FCF786FCFCF785FB4F
:10913000824607E03068524681683846FEF7D4F828
:109140006D1EADB2002DF5D13846FFF783FFB9F89B
:1091500000103846491EA9F80010FFF770FFFCF711
:1091600067FC9BF80020521E8BF80020FCF764FC83
:10917000FDF747FD0020BEE72DE9F04706468A4887
:1091800088B01C460078109D91468A4610B146F280
:10919000AE100AE03EB1100009D0B2F5004F06D083
:1091A00045F6256001E045F6C35028805BE0804825
:1091B0003168814202D045F6C450F6E7002704B179
:1091C0002760FCF735FCD6F82080B8F1000F0BD0F3
:1091D000A8F10108C6F820800CB1716A2160346AD8
:1091E000FCF72AFC2F8054E05FEA094108D5FCF720
:1091F00023FC46F2B0102880404608B0BDE8F08756
:109200006A490A7822B1FCF717FC46F66350CCE7AE
:109210008846012188F80010FCF70EFC5346062210
:1092200031466846FDF701FFFCF702FC98F8001094
:10923000491E88F80010FCF7FFFBFDF7E2FCFCF785
:10924000F7FB02465F48016891F8350068B10128D4
:1092500010D002281FD0032812D046F62E60288096
:109260001046FCF7E9FB0020C7E70CB1086C206052
:109270002F800AE00CB1086C206046F2A91003E0D0
:1092800004B1276047F2D92028801046346AFCF7E1
:10929000D3FB2046B1E70CB1086C206045F6C25004
:1092A000F2E72DE9F05F80463F480F46144600780C
:1092B00010B146F2AA1012E0B8F1000F0DD04FF431
:1092C000807A77B157450CD0B7F5004F09D0B7F584
:1092D000014F06D045F6256001E045F6C3501080E9
:1092E00021E03349D8F80000884202D045F6C45046
:1092F000F5E7FCF79DFBB8F8101008F1080569B117
:10930000DFF8A89099F80020521C89F80020FCF79B
:1093100093FB0026FCF791FA834610E0FCF78CFBE8
:1093200046F2AB1020800020BFE628685A468168CC
:109330004046FDF72EFF761CB6B2574502D128896C
:109340000028F2D1FCF774FB99F80020521E89F82E
:109350000020FCF771FB380401D4FDF752FC00201B
:1093600020803046A1E62DE9F84F1F4690468946F9
:109370000646FCF75DFB318A06F108054FF0000B4D
:1093800069B1DFF828A09AF80020521C8AF8002062
:10939000FCF752FB5FEA895027D52C8926E013E0C1
:1093A00020000000F4000020A0000020E8000020C1
:1093B00053454D41F80000204E4F4E453F53454D1B
:1093C0000000000040010020346A611C05D0641CCC
:1093D000C6E90848FCF730FB26E0FCF72DFB46F613
:1093E000C55038800020BDE8F88F01242D680AE0C0
:1093F000A9686D6800231A463046CDF80080FDF755
:10940000C5FF641EA4B2002CF2D1346AFCF710FB35
:109410009AF80020521E8AF80020FCF70DFB5FEA44
:10942000094001D4FDF7EDFBA7F800B02046DAE7CC
:109430002DE9FF410C46060015460DD07CB1B4F570
:10944000007F0CD0B4F5004F09D0B4F5024F06D020
:1094500045F6256010801AE045F6C350FAE7284F1C
:109460003068B84202D045F6C450F3E7FCF7E5F99E
:1094700002462448007868B1002003950090CDE9A9
:1094800001420346024631463846FEF7D3FB002030
:1094900004B0CEE504B02B4621463046BDE8F0418D
:1094A00061E770B5044617480E461546007810B1BE
:1094B00046F6C65006E03CB111492068884206D005
:1094C00045F6C450108070BD45F6C350FAE7002041
:1094D0002880FCF7ADFA216A41B9218A31B147F2FF
:1094E0005F112980BDE87040FCF7A6BA2662F9E753
:1094F000054A00211160054A118001807047000073
:1095000053454D41A0000020F4000020F800002049
:109510002DE9F0410746FCF78BFAD94900250D608B
:10952000D8490D80D8490D80D8490D60D8490D60C3
:10953000D8490D60D8490D60D8490D81FCF77CFAF7
:10954000FCF776FAD6490C6815E0FCF771FAC4F816
:10955000B45044F8785F06462563A561A582E5828C
:109560006562A562FCF769F944F8200FA4F13400A4
:109570008581646A3046FCF75FFA002CE5D1FCF780
:1095800057FAC8490C6803E0FCF752FAA585A469AC
:10959000FCF752FA002CF7D101F0C4FA01F073FF86
:1095A0003D80BDE8F081F8B504466946BE4801F04B
:1095B000D9F8BDF8000028BB6A460021022001F05E
:1095C000E5FABDF80000E8B9FCF732FAB74E00251D
:1095D0003560FCF731FAB649B6480A6803689A4222
:1095E00002D9B2FBF3F010B90A21B2FBF1F06A46DE
:1095F000002101F0CBFA6946AB4800F04AFEBDF805
:10960000000008B12080F8BDFCF712FA9F49AA4A71
:109610000D6031681160A94A01211170FCF70CFA44
:109620002580F8BD1CB5A34EA44D3068440004E06D
:1096300020466A46002101F0A9FA28780128F7D1CE
:109640006846FFF765FF9A4832680168914204D97D
:10965000B1FBF2F15FEA010B03D100680A21B0FB14
:10966000F1FB4FF47A79DFF838A242F210764FF02E
:109670000008FCF7E2F80190FCF7DAF98B49904C0E
:109680000A682260C1F80080FCF7D6F98A4823688E
:1096900002689A4228D98B48824202D23046012180
:1096A00013E08948824202D248460A210DE08748E9
:1096B000824202D26420014607E08548824202D2FB
:1096C0000A20494601E001203146B2FBF1F158433E
:1096D000B0FBF1F07F49301A80B208806A490A88ED
:1096E000824203D2088001E07A48068001F015FF2B
:1096F0000025FCF79DF9DAF8004023E0FCF798F923
:10970000754F3978491C3970FCF796F9D4F89C00EC
:10971000C4E92780FCF78CF93978491E11F0FF0164
:10972000397007D16D49098821B1FCF785F9FDF73A
:1097300079FE01E0FCF780F954F8A00F0544FCF72E
:1097400077F9E469FCF778F9002CD7D1E5B15D48E9
:10975000854202D23746012013E05B48854202D29F
:109760004F460A200DE05948854202D26427384608
:1097700007E05748854202D20A27484601E0012700
:109780003046B5FBF0F501E000270125FCF750F964
:10979000DAF800401BE0D4F8A0007843B0FBF5F005
:1097A00080B2B04200D93046A4F88C00B4F88E10D4
:1097B000814201D2A4F88E0004F1AC026B46111D67
:1097C000204600F03CFFFCF733F9D4F8BC40FCF72E
:1097D00033F9002CDFD142480178012904D180F807
:1097E00000806846FFF794FEFCF727F80199401ABD
:1097F00026490A68824200D208606A46002158461B
:1098000001F0C4F935E730B5284A89B0002111606C
:109810002B4A344C1160284A1160284A1170304A92
:109820001170226842B1304A304D13682D68AB4246
:1098300005D246F62C6108E046F62B6105E02C4B7C
:109840001D783F2D04D346F62A61018009B030BD52
:10985000032505910691CDE9075026481268246832
:109860000068CDE902020194049118780023AFF258
:109870004B22009020A1254800F02BF9E6E70000DC
:10988000B4000020AE000020FE00002010010020E7
:109890002401002030010020E0000020E02400200E
:1098A00018010020D40000207429002000010020AD
:1098B00000D70008E8D60008040100200C010020B1
:1098C00008010020801A060000093D00005A6202CB
:1098D0000084D717FC000020E8000020AC00002026
:1098E000FA000020ECD60008F4D60008FCD60008E8
:1098F000A0D60008F0D6000875432F4F532D4949D4
:10990000492053746174205461736B00EC2700206C
:109910002DE9F0410446F9480D461646007810B18D
:1099200047F2491004E046F273200DB13F2D02D3F7
:109930001080BDE8F081ACB10027FCF779F8DFF8C2
:10994000C08398F80020521C88F80020FCF774F8B7
:1099500094F8360008283CD2DFE800F00C261C1CE6
:1099600026261C1CFCF764F8E6490C68FCF764F832
:109970000127E2E72046FDF71CFB84F83750284614
:10998000FEF7F5FF204617B1FDF7B1FB13E0FDF739
:10999000C8FB10E094F8340008280CD2DFE800F08F
:1099A0000B0404070707070484F8375003E029462F
:1099B0002046FDF73CFCFCF73BF898F80020521ECF
:1099C00088F80020FCF738F8FDF71BF900203080FC
:1099D000AFE7FCF72DF898F80010491E11F0FF01D1
:1099E00088F8001007D1C849098821B1FCF724F88C
:1099F000FDF718FD01E0FCF71FF846F62D60E6E7DD
:109A0000C24B0022C0F8B820196829B1C0F8BC10B8
:109A1000C1F8B80018607047C0F8BC20FAE770B50C
:109A20000025056085604560C560056145610446A7
:109A30008561B7A0C4E907506562A562E562256447
:109A4000E565A4F86050294604F16400FEF78DFB3B
:109A50006567A567C4F88050A4F888500020C4F852
:109A6000845004EB8001401CCD6710F0FF00F8D05B
:109A70006564C4F8A450C4F8A850A56384F88A505B
:109A8000C4F8B050C4F8AC50A5874FF00040C4E90A
:109A9000120525656565A565A4F88C50A4F88E505F
:109AA000C4F89050C4F894503434FBF7C6FEC4E9AF
:109AB0001905C4F8805004F8015B402004F8015BEC
:109AC00004F8015B04F8810B93A020C4C4E90050A2
:109AD00070BD2DE9FF4F83B004468848DDE9178546
:109AE000DDE910970078DDF854A0139E10B147F21D
:109AF0004A102AE04CB1059850B167B18748006818
:109B000086420BD246F630601FE047F2AD101CE0F3
:109B100047F24F1019E046F62F6016E01298B04257
:109B200002D346F6316010E046F27320B9F1400FDF
:109B30000BD25FEA090103D0B9F13F0F02D008E070
:109B4000774900E077498C4203D0288007B0BDE810
:109B5000F08F2046FFF763FF4FF0000BA5F800B031
:109B60005FEAC8700AD05FEA887007D538460021DE
:109B70005A4601E004C0491CB142FBD31298CDE91A
:109B8000006807EB8005DDE905012B463A4601F048
:109B9000DCFC0599A1620699E1620499216284F8CE
:109BA0003790C4F854A0A56020605FEA0A003AD05C
:109BB000A06516986762A6636060A4F83C800020E8
:109BC000594604EB8002401CD16710F0FF00F8D02A
:109BD00004F164001499FEF7C8FA204601F0A3FCD2
:109BE000FBF726FF464D2978491C2970FBF724FF17
:109BF00094F83700FEF7BBFE2046FDF792FA2046A8
:109C0000FFF7FEFE48490888401C08804748007856
:109C100001281AD0FBF70CFF2978491E11F0FF012B
:109C2000297003D00CE042480068C1E73649098832
:109C300031B1FBF701FF07B0BDE8F04FFDF7F2BB14
:109C400007B0BDE8F04FFBF7F7BEFBF7F1FE297850
:109C5000491E2970FBF7F0FE07B0BDE8F04FFCF796
:109C6000D0BFD0E92E2100234AB181B1C2F8BC1087
:109C7000C1F8B820C0F8BC30C0F8B8307047234AEB
:109C8000116009B1C1F8B830C0F8BC307047C2F8F3
:109C9000BC30F1E770B5044618480D46007810B1A5
:109CA00047F24E100AE01F48844202D147F24C109E
:109CB00004E01B48844203D147F24D10088070BD78
:109CC0002CB9FBF7B5FE0F490C68FBF7B5FEFBF7A7
:109CD000AFFE0B4E3178491C3170FBF7ADFE94F8A6
:109CE000360008285BD2DFE800F004252929392551
:109CF00029292046FDF75DF930E00000A000002092
:109D0000E800002040010020AC00002018010020E5
:109D10003F5461736B00000020000000FCD6000877
:109D20001C240020582300201C010020A10000203A
:109D3000EC000020204600F081FD0FE0204600F0FE
:109D40007DFD94F83400072808D2DFE800F007040E
:109D50000704040404002046FDF7A6F904F164009A
:109D6000FEF7EBF9204601F0E4FB2046FFF779FF10
:109D7000F9490888401E08802046FFF750FEFF2062
:109D800084F83600FBF754FE3178491E3170FBF73A
:109D900053FE00202880BDE87040FCF732BFFBF77F
:109DA00047FE3178491E11F0FF01317007D1EB49B0
:109DB000098821B1FBF740FEFDF734FB01E0FBF71A
:109DC0003BFE46F62D60288070BD70B50446E44821
:109DD0000E46007820B14FF46C500880002070BD12
:109DE0002CB9FBF725FEDF490C68FBF725FEFBF7D6
:109DF0001FFEDD4D2978491C2970FBF71DFE04F17B
:109E00006400FEF79AF90446FBF712FE2978491E12
:109E100011F0FF01297007D1D049098821B1FBF762
:109E20000BFEFDF7FFFA01E0FBF706FE0020308095
:109E3000204670BD2DE9F84F8346C9480A9D1C464F
:109E4000007816460F4610B146F2AE100AE03EB159
:109E5000080009D0B1F5004F06D045F6256001E0B5
:109E600046F2D52028801CE04FF000090CB1C4F860
:109E70000090FBF7DDFDDFF8EC8200902B46D8F870
:109E80000000224631466430FEF776F98246288883
:109E900050B1380419D546F2B01028800098FBF76D
:109EA000CBFD0020BDE8F88F54B1FBF7C6FC21685C
:109EB000401AD8F8001048678A6F824200D288673B
:109EC0000098FBF7B9FD5046ECE7A748017829B1A7
:109ED0000098FBF7B1FD46F66350C3E70746012043
:109EE00038700098FBF7A8FD00215B460222084667
:109EF000FDF79BF8FBF79CFD3978491E3970FBF79D
:109F00009BFDFCF77EFEFBF793FD8246D8F8000030
:109F100090F8351091B101294FF0000726D0A6F82E
:109F200000901CB1D8F80000006C206047F2D920E6
:109F300028805046FBF780FD3846B3E7C76DB0F880
:109F4000600030807CB1D8F80000006C2060FBF726
:109F500074FC0146D8F80000026C891A4167826FD0
:109F60008A4200D28167A5F80090E2E74846A6F849
:109F7000009004B1206046F2A910D9E72DE9F04124
:109F8000054677480F461446007810B146F2AA10ED
:109F900005E037B1B7F5004F03D045F625601080D6
:109FA00014E0FBF745FD1DB16E4909688D4204D1EF
:109FB000FBF742FD46F2AC1007E095F83410022999
:109FC00006D0FBF739FD46F2AB1020800020B0E44C
:109FD000654E3178491C3170FBF72EFDFBF72DFCE7
:109FE000024629460020FDF7D4F8FBF721FD317821
:109FF000491E3170FBF720FD380401D4FCF701FE47
:10A0000000202080012094E42DE9FC5F9946DDE9E1
:10A010000C7592468B460446FBF70AFD524E31788A
:10A02000491C3170FBF708FD0CB94E48046800204C
:10A03000288094F83600DFF8248108283CD2DFE835
:10A0400000F004041E1E04041E1ECDE900754B46DC
:10A050005246594604F16400FEF7B7F8FBF7E8FCF6
:10A060003178491E11F0FF01317021D1B8F800108C
:10A07000F1B1FBF7E1FCBDE8FC5FFDF7D3B994F863
:10A0800034000228E1D153465A4621460020009769
:10A09000FDF77CF9FBF7CCFC3178491E3170FBF7FA
:10A0A000CBFC5FEA09401CD4BDE8FC5FFCF7A9BD0E
:10A0B000BDE8FC5FFBF7C0BCFBF7BAFC3178491E7A
:10A0C00011F0FF01317007D1B8F8001021B1FBF792
:10A0D000B3FCFDF7A7F901E0FBF7AEFC46F62D60F7
:10A0E0002880BDE8FC9F2DE9FF411C000A9D164613
:10A0F0000F4680460DD0102C0BD0B4F5004F08D081
:10A10000A4F50040103804D045F625602880BDE84D
:10A11000FF81FBF792FB1249097859B10021CDE983
:10A120000014CDE9020533463A4641460F48FDF793
:10A1300081FDECE7CDE9000523463246394640462D
:10A14000FFF762FFE3E770B51546044681B146F6B6
:10A1500079101080002070BD1C010020AC00002090
:10A16000A000002040010020E8000020544D53478B
:10A17000FBF75EFC0CB9FD490C68E46FFBF75CFC77
:10A18000002028802046E6E710B50446FBF750FC87
:10A19000F7490A7832B145F6DA112180FBF74CFC19
:10A1A000012010BD01220A70FBF746FC0020208030
:10A1B00010BD70B51D461646044619B146F6791015
:10A1C0001880C8E7FBF734FC0CB9E8490C68E6676F
:10A1D000FBF732FC00202880BDE770B50D46044631
:10A1E000FBF726FC00262E8094F8361008294AD268
:10A1F000DFE801F0040404040A23333DFBF71CFCF0
:10A2000047F25310288024E0DA4D2978491C297040
:10A21000FBF712FC94F88A00401E10F0FF0084F84F
:10A220008A0004D184F836602046FCF7A5FFFBF7CE
:10A23000FFFB2978491E297009E094F88A10491E0D
:10A2400011F0FF0184F88A1001D1012118E0FBF719
:10A25000F3FBBDE87040FCF7D4BC94F88A10491EAB
:10A2600011F0FF0184F88A10F1D1022108E094F87E
:10A270008A10491E11F0FF0184F88A10E7D10321EA
:10A2800084F83610E3E7FBF7D7FB46F62D6028800D
:10A2900061E77FB50D460446FBF7CAFB1CB1B34925
:10A2A00009688C4205D1FBF7C7FB47F2571028809D
:10A2B0007FBDFBF7C1FBB048007858B10020CDE965
:10A2C000020500900346024601902146AB48FDF787
:10A2D000B1FC7FBD04B029462046BDE870407CE754
:10A2E0002DE9F0478246A44814460F4600781D46E3
:10A2F00010B146F2AE1005E037B1B7F5004F03D00C
:10A3000045F62560188037E0002604B12660FBF78B
:10A310008FFBDFF858828146D8F80000416CD1B13C
:10A32000491E4746884641640CB1006C2060FBF72B
:10A3300084FA39680A6C801AC1F8A400D1F8A82000
:10A34000824201D2C1F8A8004846FBF775FB2E8077
:10A350004046BDE8F087380405D54846FBF76CFB5E
:10A3600046F2B01007E0834F387838B14846FBF723
:10A3700063FB46F6635028800020EAE7012038702E
:10A380004846FBF759FB0021534607220846FCF7D5
:10A390004CFEFBF74DFB3978491E3970FBF74CFB3F
:10A3A000FCF72FFCFBF744FBD8F80010814647462A
:10A3B00091F8350030B1012816D003281AD046F69E
:10A3C0002E601BE074B1086C2060FBF736FA396828
:10A3D0000A6C801AC1F8A400D1F8A820824201D2E8
:10A3E000C1F8A8002E800AE00CB1086C206046F28B
:10A3F000A91003E004B1266047F2D920288038680C
:10A40000446C4846FBF718FB2046A2E72DE9F041D3
:10A41000054659480E461446007810B146F2AA1077
:10A4200005E036B1B6F5004F03D045F62560108043
:10A4300014E0FBF7FDFA1DB14C4909688D4204D1C7
:10A44000FBF7FAFA46F2AC1007E095F8341007294A
:10A4500006D0FBF7F1FA46F2AB1020800020B6E5FB
:10A46000FBF7EAFAFBF7E4FA424F3978491C3970F6
:10A47000FBF7E2FAFBF7E1F9024629460020FCF778
:10A4800088FEFBF7D5FA3978491E3970FBF7D4FA04
:10A49000300401D4FCF7B5FB00202080012096E5B4
:10A4A0002DE9F84F984616468A460446FBF7C0FA4F
:10A4B000304D2978491C2970FBF7BEFA0CB92B489E
:10A4C000046800202E4F2664A8F8000094F8360097
:10A4D00046F6C559082859D2DFE800F02424202088
:10A4E00024242020FBF7A8FAFCF79CFF01E0FBF7EF
:10A4F000A3FAA8F800900020D4E4761C6664FBF769
:10A5000097FA2978491E11F0FF0129703BD139884B
:10A51000C1B3FBF791FAFCF785FF4DE094F83400E6
:10A5200007280ED0666C701CE7D1FBF781FA2978FA
:10A53000491E11F0FF012970D9D139880029D6D0E0
:10A54000D0E700231A46214618460096FCF71EFF66
:10A55000666CFBF76DFA2978491E2970FBF76CFAD7
:10A560005FEA0A4028D4FCF74CFB25E040010020BC
:10A570001E010020E8000020A00000205452455396
:10A58000AC000020FFE7FBF757FA15E0FBF750FAA5
:10A590002978491E11F0FF01297006D1398821B1AF
:10A5A000FBF74AFAFCF73EFF01E0FBF745FA46F6F7
:10A5B0002D60A8F800000026304673E47FB50C003B
:10A5C0000646154606D0B4F5004F03D045F6256083
:10A5D000108010E0FBF731F902468D48007868B131
:10A5E000002001A9009081E825000346024631467B
:10A5F0008848FDF71FFB002004B0ACE504B02B46F3
:10A6000021463046BDE870404AE72DE9F041044656
:10A610007F480F461546007820B146F6C650108098
:10A620000020D4E4FBF704FA0CB97B490C68666C93
:10A630006764FBF701FA002028803046C7E42DE963
:10A64000F0410546724816460F4600781C4610B188
:10A6500047F2591007E046F2D52027B11EB1FBF7AB
:10A66000E7F915B103E01880B1E46B490D684FF0CC
:10A670000008296841B195F83C10C9070DD0FBF7D7
:10A68000DBF90020696A14E0FBF7D6F9C7F800800F
:10A6900047F25210C6F8008007E0FBF7CDF9C7F883
:10A6A000008047F25410C6F8008020808FE4401CE0
:10A6B000091D0A68002AFAD03860A96B081A3060B0
:10A6C000A4F8008083E42DE9F0410D460446FBF731
:10A6D000AFF9514904B90C680968504E8C4206D153
:10A6E000317821B1FBF7A8F946F6635038E0002134
:10A6F000298094F83610012708292DD2DFE801F0CF
:10A7000004171F21272727273178491C3170FBF7B1
:10A7100093F9042084F8360084F88A702046FCF708
:10A7200048FCFBF785F93178491E317001E00521BD
:10A7300008E0FBF781F9BDE8F041FCF762BA0621B9
:10A7400000E0072184F8361084F88A70F1E714F8E5
:10A750008A1F491C2170ECE7FBF76EF946F62D6065
:10A76000288034E41FB52E4A904202D147F25B1094
:10A7700004E02C4A904203D147F25C1008801FBDD0
:10A78000234A127852B10022CDE9022101460092FB
:10A79000134601922448FDF74DFA1FBD04B0BDE8F1
:10A7A000104090E770B5044619480E4615460078EB
:10A7B00018B146F6C6501080CDE4FBF739F90146D2
:10A7C0000CB9154804685EB130466665A26D9042CA
:10A7D00000D9A0650846FBF72FF900202880BAE4CD
:10A7E000124800686065F1E7114A00211160114AC2
:10A7F0001180114A116001807047074808B5006850
:10A8000000F09DFE69460020FFF744FA08BD0000F5
:10A81000A00000205453494740010020E8000020D8
:10A82000582300201C24002054535553EC000020D2
:10A83000180100201C0100201401002010B5C1697E
:10A84000002915D0002404650A68824204D14269B7
:10A850000A6032B1946104E0D0E905235A6102B183
:10A86000936144618461C461C4648888401E8880A7
:10A8700010BD2DE9F05FFBF7DBF8B24A1178491CF7
:10A880001170FBF7D9F8FAF7D8FFAF4E8346AF49FE
:10A8900030684FF00309401C306009880025B0FB88
:10A8A000F1F201FB1200AA4980B22F4651F8304064
:10A8B0004FF0040AC4B394F83600D4F81480082882
:10A8C0004DD2DFE800F04C044C104C254C32E06CCB
:10A8D0003168421A2265884240D184F83670204699
:10A8E000FCF74AFC3BE0E06C3168421A2265884282
:10A8F00034D1E765A4F86070FAF79FFF2064204622
:10A90000FCF7D2FB2046FCF737FC84F8367020E0D9
:10A91000E06C3168421A226588421FD184F836A063
:10A920002046FFF78BFF1AE01CE0E06C3168421A0A
:10A930002265884212D1E765A4F86070FAF77DFFBE
:10A9400020642046FCF7B0FB2046FFF777FF84F831
:10A9500036A084F8359084F8347000E00125444630
:10A96000002DA7D0FAF769FF7A49A0EB0B000A681F
:10A97000824200D20860FBF75BF8724A1178491EE8
:10A9800011F0FF01117008D17349098829B1FBF753
:10A9900053F8BDE8F05FFCF745BDBDE8F05FFBF79D
:10A9A0004BB81CB56D4C00216B4601AA0846FFF759
:10A9B00097FCBDF800000028F5D120780128F2D1DD
:10A9C000FFF757FFEFE710B500200246604B5F4CE2
:10A9D00006E003EBC001401C0A608A80CA8080B296
:10A9E00021888842F5D310BD30B50446564889B059
:10A9F0000025056057480560FFF7E5FF584A1068D5
:10AA000040B15848584B01681B68994205D247F23B
:10AA1000132008E047F2122005E054490B783F2B41
:10AA200004D347F21120208009B030BD0B230595D7
:10AA30000695CDE907344E4B006812681B68CDE9D6
:10AA400002300495019208780023AFF2A902009029
:10AA500048A14D48FFF73DF8E6E7F0B53A4C00262F
:10AA600047F27E252468042A08D0B1B3364D082A5F
:10AA70002D680D440BD0C0E9135115E00A1B521E7E
:10AA800012F5803F2AD8521CC0E913120CE0826CE8
:10AA90000A44171B7F1E8F4201D2C26400E0C564C6
:10AAA000C16C0A1B02658164284AC16C1288B1FB23
:10AAB000F2F502FB1511264A89B202EBC102918818
:10AAC00089B11168F1B1CD6C2D1B0D65076DAF42D9
:10AAD00012D94D6965B12946F5E7FFE7C6640665F9
:10AAE000C6611D80F0BD46618661012110600BE0EA
:10AAF000C0E90561486105E08C6974B1C0E90514DD
:10AB0000606188619188491C9180D48889B28C42A7
:10AB100000D2D180C2611E80F0BDC0E905168861F7
:10AB20001060EFE710B500200246094B074C04E027
:10AB300003EBC001401CCA8080B221888842F7D351
:10AB400010BD0000E800002020010020A8D6000869
:10AB50004820002024010020AC000020A10000209B
:10AB600004D700080CD70008FCD60008A1D60008BE
:10AB700008D7000875432F4F532D49494920546980
:10AB8000636B205461736B00B02800202DE9F04105
:10AB90000646BA480D461446007810B147F27520B3
:10ABA00030E0B74F387810B146F663502AE045B12F
:10ABB000022D06D0042D05D0082D02D045F62560C3
:10ABC00020E0EEB1FAF734FF3978491C3970FAF712
:10ABD00033FFDFF8B08201212346D8F800002A466F
:10ABE00080F836103146FFF738FF208868B1FAF751
:10ABF0001FFF3978491E3970BDE8F041FAF71CBFD4
:10AC000047F27E201080BDE8F081D8F80000FCF704
:10AC1000D0F9FAF70DFF3978491E3970FAF70CFFB1
:10AC2000FBF7EFFF00202080EDE72DE9F047934D83
:10AC30001646DDE908242D7815B147F2752088E025
:10AC4000DFF83CA29AF8005015B146F6635080E058
:10AC500012F00E0547F27E2945F6256C05D0022D2F
:10AC600003D0042D05D0082D2AD113B90EB901B98E
:10AC7000F0B332F01E0700D001270FBBC2F3001261
:10AC800047F2792847F2782C4FF47A773AB142F2BA
:10AC90000F72914212D9A4F80080BDE8F087BB4240
:10ACA00002D347F27B2054E03B2E02D947F27A20B0
:10ACB0004FE03B29EFD8632802D804E0B84202D322
:10ACC000A4F800C0E9E7704A4FF4FA7CC1EB011127
:10ACD0001268BCFBF2FC63445343B3FBF7F34FF43D
:10ACE0006167784300EB8100304400FB023600E0EE
:10ACF00031E086B3FAF79CFE9AF800105746491CDB
:10AD00008AF80010FAF798FEDFF8788101212346CF
:10AD1000D8F800002A4680F836103146FFF79DFE2D
:10AD2000208840B1FAF784FE3978491E3970BDE8B1
:10AD3000F047FAF781BED8F80000FCF73AF9FAF7C5
:10AD400077FE3978491E3970FAF776FEFBF759FF1E
:10AD500000202080A1E7FFE7A4F800909DE72DE9FF
:10AD6000F041054645480C46007818B147F2762078
:10AD7000088048E747F2511655B1FAF759FE4149A4
:10AD800009688D4206D12680BDE8F041FAF754BE2D
:10AD90000E8038E795F83610394F082936D2DFE8AB
:10ADA00001F004080404041C0404FAF745FE26809C
:10ADB00028E03978491C3970FAF73EFE002685F8FC
:10ADC00036602846FFF73AFD2846FCF7C2F9FAF745
:10ADD0002FFE3978491E3970E7E73978491C3970F8
:10ADE000FAF72AFE042085F836002846FFF726FDEC
:10ADF000FAF71EFE3978491E3970FAF71DFE47F240
:10AE00005A102080BDE8F041FBF7FBBEFAF714FEB4
:10AE100046F62D60F5E770B50546FAF709FE1B49C1
:10AE20000C68FAF709FE00202880204670BD70B536
:10AE30000D460446FAF7FCFD14490C60FAF7FCFDD8
:10AE40000020288070BD00B585B000F0D2FBFAF775
:10AE5000F4FC04AA002103920091CDE901100C48F2
:10AE60000C49002300781A4600EB400001EB8001FA
:10AE70000948FCF7DFFE05B000BD0000A00000207F
:10AE8000E80000204001002000D700082001002039
:10AE9000CE000020EC2400205449434BF84B002204
:10AEA000C262196819B10163C86218607047026311
:10AEB000FBE72DE9F05F0446F248DDE90A9B0078E4
:10AEC0000D9D984616468A4610B147F2433042E03F
:10AED00044B14846B9F1010F0DD0022805D045F61E
:10AEE000256038E045F6C35035E0B8F1000F03D1D6
:10AEF00047F240302FE066B3FAF79AFDE24F397817
:10AF0000491C3970FAF798FD012084F82A0026625E
:10AF10000026A661C4F82480DC48E661C4E9000A82
:10AF2000A4F82890C4F808B00C98C4E90306204699
:10AF30006661FFF7B3FFD6490888401C0880FAF71E
:10AF400077FD3978491E3970FAF776FD2E80BDE815
:10AF5000F09F47F23F302880F9E7002180F82A105F
:10AF6000CC4A026001628161CBA2C1614260416250
:10AF700001858160C16001614161704710B5C84AB7
:10AF8000816900241288B1FBF2F302FB1311C54A58
:10AF900089B202EBC10102690B68834203D10A60E6
:10AFA0002AB1546103E043691A6102B1536101227D
:10AFB00080F82A20046144618888401E888010BD82
:10AFC000D0E90B2100232AB151B11163CA62036396
:10AFD000C3627047AA4A116001B1CB620363704734
:10AFE0001363F5E7F8B50546A6480C46007810B19E
:10AFF00047F2433009E035B1A4492868884206D0B9
:10B0000045F6C4502EE047F2423008802BE06846F7
:10B01000FBF72CFE2846FFF7D3FF9D480188491E09
:10B02000018095F82A10C1B1002601290CD002290F
:10B0300007D0032908D06846FBF751FE47F241309C
:10B0400010E02846FFF79AFF2846FFF786FF68467C
:10B05000FBF745FE26800120F8BD6846FBF73FFE62
:10B0600047F23D3020800020F8BDF8B50446854801
:10B070000D46007810B147F2433009E034B18349FE
:10B080002068884206D045F6C45031E047F242308D
:10B0900008802EE06846FBF7E9FD94F82A0010B31B
:10B0A000002701280ED0022807D00328684616D0B2
:10B0B000FBF715FE47F241301AE07B49A0690968A9
:10B0C000461A05E0208D266A022801D106B9666A73
:10B0D0006846E661FBF703FE2F803046F8BDFBF7BC
:10B0E000FEFD2F8005E06846FBF7F9FD47F23D3095
:10B0F00028800020F8BD70B5022280F82A206A4A14
:10B10000012913681ED0016AE1B1654A19448161C1
:10B1100012880025B1FBF2F402FB1412614C92B2CA
:10B1200004EBC20214687CB1C91AC1611168D1B1C3
:10B130008C69E41ACC61C669A6420ED90C6944B187
:10B140002146F5E7416AE0E70561456110600120AD
:10B150000BE0C0E90451086105E04B6963B1C0E947
:10B160000413186148619088401C9080D18880B297
:10B17000814200D2D08070BDC0E9041548611060E2
:10B18000F1E7F8B505463F480C46007810B147F2A4
:10B19000433009E035B13D492868884206D045F67C
:10B1A000C45028E047F24230088025E06846FBF7AB
:10B1B0005DFD95F82A10C9B1002601290CD002299D
:10B1C00007D0032908D06846FBF789FD47F24130D4
:10B1D00011E02846FFF7D2FE00212846FFF78BFF3B
:10B1E0006846FBF77CFD26800120F8BD6846FBF72A
:10B1F00076FD47F23D3020800020F8BD70B5054651
:10B2000020480C46007810B147F243300BE045B1BE
:10B210001E492868884208D045F6C4502080002086
:10B2200070BD47F242300880F9E7FAF701FC95F863
:10B230002A5045B1012D06D0022D04D0032D02D095
:10B2400047F2413100E000212180FAF7F5FB284662
:10B2500070BDF8B505460B4817460E4600781C46EB
:10B2600010B147F2433009E035B1084928688842F7
:10B270001CD045F6C45001E047F24230188057E038
:10B2800028010020A0000020E8000020544D52209A
:10B290002C0100204E4F4E453F544D5200000000FF
:10B2A000AAD60008D0220020340100206846FBF70F
:10B2B000DDFC95F82A00A0B301282BD0022807D086
:10B2C000032827D06846FBF70AFD47F241302EE0FD
:10B2D0002846FFF753FE00202080B6B147F24430E5
:10B2E000032E07D0042E09D06846FBF7F8FC45F67C
:10B2F00025601CE0AA683AB1E96802E0AA681AB1C0
:10B3000039462846904700E020806846FBF7E7FC76
:10B310000120F8BD6846FBF7E2FC47F24930208087
:10B32000F6E7FFE76846FBF7DAFC47F23D3020809E
:10B330000020F8BD1CB5DFF86CA1DFF86CB15B4FE5
:10B34000DFF86C9100216B4601AA0846FEF7C8FFA2
:10B350006846FBF78BFCFAF770FA064638684FF040
:10B360000308401C3860BAF800100025B0FBF1F269
:10B3700001FB120080B25BF830C0BCF1000F19D0A5
:10B38000DCF818003968DCF81040884212D16046B9
:10B39000FFF7F4FDBCF82800022818D08CF82A80AA
:10B3A000DCF808201AB16046DCF80C109047A4467F
:10B3B000002DE2D0FAF741FA841B6846FBF78FFCB8
:10B3C000D9F80010A142BDD2C9F80040BAE7012166
:10B3D0006046FFF790FEE3E730B5364989B00023B9
:10B3E000354A0B60354C364915681DB12468B4FBED
:10B3F000F5F203E022680A24B2FBF4F20A60114677
:10B40000304A294C274D116028490B6028490B60B0
:10B41000002106E004EBC102491C9380D38089B26D
:10B4200013602A889142F5D3274C216841B12749FE
:10B43000274D0A682D68AA4205D247F2483108E034
:10B4400047F2473105E0234A15783F2D04D347F2F0
:10B450004631018009B030BD0B2505930693CDE937
:10B46000075008681C4924680968CDE90210019456
:10B47000049310780023AFF24312009017A11D48E7
:10B48000FEF727FBE6E710B500200246064B054C09
:10B4900004E003EBC001401CCA8080B221888842CE
:10B4A000F7D310BDAAD60008D02200203401002016
:10B4B000300100202801002018D7000800D700081C
:10B4C000380100203C0100201CD7000824D70008C8
:10B4D000FCD60008A2D6000820D7000875432F4FDD
:10B4E000532D4949492054696D6572205461736B2D
:10B4F000000000007429002051480068002800D096
:10B50000004770474F4850490068096800EB8100C8
:10B510004E4920F00700086070474D480068002839
:10B5200000D0004770474B490968002900D0084700
:10B53000704749490968002900D0084770474749C2
:10B540000968002900D00847704710B5029C02EB3B
:10B55000840222F007024FF0807442E9020440485E
:10B5600042F80C0DA2F108004FF012344FF00332F4
:10B5700060E80A244FF002324262C0E907134FF03C
:10B5800011318161D1004161611001619100C1609F
:10B590004FF0073181604FF0063141604FF00531C7
:10B5A00040F804195100016010BD2E4810B5006824
:10B5B00000B18047FAF741F92B492C4A0968136812
:10B5C000994209D0D1F89820821AC1F89420D1F874
:10B5D0009C402244C1F89C20254AC3F89800D1F829
:10B5E000B4301068834201D2C1F8B400002010606A
:10B5F00010BD20480068002800D00047704710B5F3
:10B60000FAF716FA1C4A1178491C1170FAF714FA65
:10B61000FFF719FCBDE81040FBF7C1BA4FF0E0217D
:10B62000401E4861154A106820F07F40106008698C
:10B6300040F005000861086940F0020008617047A9
:10B640008C000020D4D60008D8D60008480100207D
:10B65000900000208000002084000020880000204E
:10B66000FBA70008940000204001002044010020B6
:10B67000E400002098000020A000002020ED00E061
:10B68000704753EA020C00F069802DE9F04B4FF04F
:10B690000006002B1FBFB3FA83F503FA05F424FA62
:10B6A00005F65E4012BF1643B2FA82F502FA05F4BF
:10B6B000C5F120051EBF22FA05FC44EA0C04203522
:10B6C00056EA044C4FEA144418BF641C4FF00008BB
:10B6D0004FF00009904271EB030C39D3002919BFD8
:10B6E000B1FA81F701FA07F6B0FA80F700FA07F627
:10B6F000C7F120071EBF20FA07FC46EA0C062037D8
:10B70000B6FBF4FCA7EB0507103F07F01F0BCBF1CE
:10B7100020060CFA0BFB2CFA06F644BFB3460026B3
:10B72000202FA4BF5E464FF0000B5BEA060C08BF5B
:10B730004FF0010B19EB0B09ABFB027C48EB060841
:10B74000C01B06FB02CC0BFB03CC71EB0C01C1E769
:10B750000B46024641464846BDE8F08B13B54FF014
:10B7600000004FF00001AFF30080BDE81C407047BF
:10B770000FB4044910B503AA029800F0FFF810BCFA
:10B780005DF814FB580000202DE9F0410E460446F8
:10B79000002020622046E168884730B3252805D084
:10B7A000D4E901219047206A401CF2E7E168204675
:10B7B00000278847050018D0A5F14100192802D8B4
:10B7C00020354FF400673246294620462760F4F7BB
:10B7D00009FD40B1012804D0F61D26F00706083601
:10B7E000D8E7361DD6E72846DAE7206ABDE8F081BB
:10B7F0002DE9F0410646002410687529314616A54A
:10B8000010D0AFF30080002802DA404213A507E011
:10B8100031688A0701D512A502E0490704D511A5B0
:10B82000012401E0AFF3008000210A2206F1240781
:10B8300009E0B0FBF2FCB0FBF2F302FB1C0030307D
:10B8400078541846491C0028F3D123462A4630462E
:10B85000BDE8F04100F038B8000000002D00000005
:10B860002B0000002000000070B504460D46214664
:10B870001068AFF300802188090502D50F4A7A4489
:10B8800002E00E4A7A440E32002104F1240305E05E
:10B8900000F00F060009965D5E54491C0028F7D1A0
:10B8A00020780023000704D5702D02D009B10223AF
:10B8B00011322046BDE8704000F006B8B21E00000C
:10B8C00070477047704770472DE9F0470D4699461D
:10B8D0009246044600F124080168880604D5E06910
:10B8E00021F01001216000E00120A84201DD471B8A
:10B8F00000E00027A1697A1902EB0900081AA0618B
:10B900002078C00602D42046AFF30080002608E06D
:10B91000D4E901211AF806009047206A401C761CE1
:10B9200020624E45F4DB2078C0060AD52046AFF3EE
:10B93000008006E0D4E9012130209047206A401CB5
:10B940002062381EA7F10107F4DC07E0D4E90121E9
:10B9500018F805009047206A401C2062281EA5F1B7
:10B960000105F3DC2046AFF300802078000602D505
:10B970000220BDE8F0870120FBE70000074B70B50F
:10B980000D467B4400F011F80446284600F020F8EC
:10B9900010B14FF0FF3070BD204670BD3594FFFFF1
:10B9A00001694A1C02610878704700B58FB0CDE983
:10B9B00001310021059105497944CDE90310114673
:10B9C0006846FFF7E1FE0FB000BD0000E5FFFFFF96
:10B9D000007B00F080007047754600F029F8AE4605
:10B9E00005006946534620F00700854618B020B58B
:10B9F000F9F77CFABDE820404FF000064FF0000751
:10BA00004FF000084FF0000B21F00701AC46ACE806
:10BA1000C009ACE8C009ACE8C009ACE8C0098D4673
:10BA200070470446AFF300802046F4F7F0FB0000B7
:10BA300000487047382A00201D484FF6FF710170FA
:10BA4000002080F309881B48016881F308881A48A0
:10BA50004FF08051016062B6FEE717484FF0805109
:10BA60000160704714484FF080510160704772B612
:10BA7000EFF3098028B1203880E8F00F0F490968FA
:10BA8000086000B50E4880475DF804EB0D480E498C
:10BA90000A78027009480D490A680260106890E847
:10BAA000F00F203080F309884EF0040E62B6704724
:10BAB00022ED00E04801002004ED00E040010020FC
:10BAC000ABB50008CE000020CF00002044010020CC
:10BAD0004FEA1153A3F58063D3F11E03A8BFD3F13E
:10BAE000200C08DB4FF0004242EAC12252EA5052D9
:10BAF00032FA03F0704709420BD4102BC4BF002068
:10BB0000704703F5787CBCF1FF3F05D04FF0FF3064
:10BB100070474FF00000704770B500F0C3F800BFE9
:10BB20004992248000207047F0E7B0FA80F310FAC1
:10BB300003F10AD0C3F11D0303F580634FEA4150BE
:10BB40004FEA035202EBD12170474FF000007047DB
:10BB5000DFF848C170B51CEA111E1EBF1CEA1315A0
:10BB60009EEA0C0F95EA0C0F00F06F8081EA030447
:10BB700023EA4C134EEAD47E21EA4C1141F48011A1
:10BB800043F48013AE44A1FB024CA0FB0365AEF16D
:10BB90007F7E361955EB0C05A1FB034C4CF10003DD
:10BBA000A0FB021C16EB0C06654153F10003094291
:10BBB00018BF46F0010613F4007F0BD14FEA0331A2
:10BBC0004FEA0530340341EA155140EA16506FF050
:10BBD00003020AE04FEAC3214FEAC520F40241EA1A
:10BBE000555140EA56506FF0020202EB2E4201EB33
:10BBF000025585EACE710AD05FEA440C18BF24F0E2
:10BC0000004450F1000041F1000120EAD47040F2FC
:10BC1000FE7C624500D270BDA84214BF4FF0804444
:10BC20004FF04044002E08BF0024BEF1806FA8BF33
:10BC3000A1F1C041BDE8704080F282804FF0000069
:10BC400001F1C04101F0004170479EEA0C0F0CEA7F
:10BC5000131518BF95EA0C0F06D04FF0000081EACB
:10BC6000030E0EF0004170BD00F01CF88900013E8B
:10BC700000F007B800F009B84FEA430C5FEA5C5CDB
:10BC800008D081EA030100F05BB84FEA410C5FEA9B
:10BC90005C5CF6D14FF00000014970470000FF07DF
:10BCA0000000F87F0EF1020E2EF0030E5EF8046B1A
:10BCB000364205D4012A43EB030515F5001F12D8BF
:10BCC000012841EB010C1CF5001F0CD80ED14FEAE6
:10BCD000D17C15F5001F0CEB4C0C0CF1020C08BFCD
:10BCE0004CEBD37C04E04FF0080C01E04FEAD37C2E
:10BCF0000CEB4C0526FA05F606F00706B6F1040C27
:10BD000006D20EEB860CBDE870404CF0010C60478B
:10BD1000DFE80CF0090B02024FF000414FF0000089
:10BD2000A1F5002170BD19461046012851EB010410
:10BD300018BFD4F5001484BF002001F0004170BD8D
:10BD40000808A0F500114FEA31017047000000001B
:10BD50000000000000000000000000003F40000064
:10BD600000000000000030004000300040000000F3
:10BD700009000BC03D000BC03D00090018C0244065
:10BD80007FE0224031800000180024C01B000D809D
:10BD90003240018003801C4027401C800740004047
:10BDA0001000600000000000000000000000000023
:10BDB00000001F80204040200000402020401F80C5
:10BDC00000000000090006001F80060009000000B6
:10BDD000040004003F800400040000000010006024
:10BDE0000000000000000000040004000400040043
:10BDF00004000000000000400000000000000000FF
:10BE0000002001C006003800400000001F802040D4
:10BE1000204020401F800000000010403FC0004034
:10BE20000000000018C021402240244018400000BB
:10BE300010802040244024401B80000002000D00A0
:10BE400011003FC0014000003C80244024402440B9
:10BE5000238000001F8024402440344003800000E1
:10BE60003000200027C03800200000001B80244044
:10BE7000244024401B8000001C0022C0224022409D
:10BE80001F800000000000000840000000000000CB
:10BE9000000000000460000000000000000004003A
:10BEA0000A00110020804040090009000900090033
:10BEB0000900000000004040208011000A0004003A
:10BEC0001800200023402400180000001F8020409C
:10BED000274029401F400000004007C039000F00E4
:10BEE00001C0004020403FC0244024401B8000008F
:10BEF0001F802040204020403080000020403FC074
:10BF0000204020401F80000020403FC024402E40A1
:10BF100030C0000020403FC024402E003000000010
:10BF20000F001080204022403380020020403FC09C
:10BF3000040004003FC02040204020403FC020407B
:10BF4000204000000060202020203FC02000200072
:10BF500020403FC024400B0030C0204020403FC064
:10BF600020400040004000C03FC03C0003C03C00F7
:10BF70003FC0000020403FC00C4023003FC02000D5
:10BF80001F802040204020401F80000020403FC0F4
:10BF900024402400180000001F802140214020E0A0
:10BFA0001FA0000020403FC02440260019C00040D0
:10BFB00018C024402440224031800000300020403E
:10BFC0003FC020403000000020003F800040004083
:10BFD0003F80200020003E0001C007003800200004
:10BFE000380007C03C0007C038000000204039C0BE
:10BFF000060039C0204000002000384007C038400B
:10C0000020000000304021C02640384020C0000001
:10C01000000000007FE04020402000000000700091
:10C020000C000380004000000000402040207FE022
:10C030000000000000002000400020000000000080
:10C040000010001000100010001000100000000090
:10C050004000000000000000000002800540054094
:10C0600003C0004020003FC00440044003800000A3
:10C0700000000380044004400640000000000380EC
:10C08000044024403FC000400000038005400540BC
:10C0900003400000000004401FC024402440200052
:10C0A000000002E0055005500650042020403FC02B
:10C0B0000440040003C000400000044027C00040CA
:10C0C0000000000000100010041027E00000000035
:10C0D00020403FC00140070004C0044020402040F1
:10C0E0003FC000400040000007C0040007C004003B
:10C0F00003C00000044007C00440040003C0004027
:10C10000000003800440044003800000041007F096
:10C1100004500440038000000000038004400450E9
:10C1200007F00010044007C00240040004000000B3
:10C13000000006400540054004C000000000040067
:10C140001F800440004000000400078000400440BD
:10C1500007C000400400070004C00180060004007E
:10C16000060001C0070001C006000000044006C030
:10C17000010006C0044000000410071004E0018024
:10C18000060004000000044005C006400440000012
:10C190000000000004007BE04020000000000000E0
:10C1A0000000FFF000000000000040207BE00400E1
:10C1B00000000000400080004000200020004000FF
:10C1C000000000000000000000000000000000006F
:10C1D0000000000000001FCC000C00000000000068
:10C1E000000008003000600008003000600000001F
:10C1F000022003FC1E20022003FC1E20022000005F
:10C2000000000E1811043FFF10840C78000000009D
:10C210000F0010840F3800C00778188400780000E1
:10C2200000780F8410C411240E9800E400840008E4
:10C23000080068007000000000000000000000001E
:10C2400000000000000007E0181820044002000071
:10C25000000040022004181807E000000000000061
:10C260000240024001800FF00180024002400000C5
:10C270000080008000800FF80080008000800000B7
:10C280000001000D000E0000000000000000000092
:10C29000000000800080008000800080008000801E
:10C2A0000000000C000C0000000000000000000076
:10C2B0000000000600180060018006001800200041
:10C2C000000007F0080810041004080807F0000038
:10C2D0000000080408041FFC000400040000000023
:10C2E00000000E0C10141024104411840E0C0000D9
:10C2F00000000C1810041104110412880C700000C6
:10C30000000000E00320042408241FFC0024000097
:10C3100000001F9810841104110410881070000090
:10C32000000007F00888110411041888007000004C
:10C3300000001C00100010FC13001C001000000086
:10C3400000000E3811441084108411440E3800008F
:10C3500000000700088C10441044088807F0000013
:10C36000000000000000030C030C000000000000AF
:10C3700000000000000101060000000000000000B5
:10C380000000008001400220041008081004000092
:10C3900002200220022002200220022002200000AF
:10C3A0000000100408080410022001400080000072
:10C3B00000000E001200100C106C10800F00000026
:10C3C00003E00C1813E4142417C4082807D0000055
:10C3D0000004003C03C41C40074000E4001C0004AF
:10C3E00010041FFC1104110411040E8800700000D9
:10C3F00003E00C1810041004100410081C100000B6
:10C4000010041FFC100410041004080807F00000BA
:10C4100010041FFC1104110417C4100408180000B4
:10C4200010041FFC1104110017C0100008000000C8
:10C4300003E00C181004100410441C7800400000A5
:10C4400010041FFC10840080008010841FFC100466
:10C450000000100410041FFC100410040000000071
:10C4600000030001100110011FFE10001000000069
:10C4700010041FFC110403801464181C1004000035
:10C4800010041FFC1004000400040004000C000051
:10C4900010041FFC1F0000FC1F001FFC1004000004
:10C4A00010041FFC0C04030000E010181FFC100017
:10C4B00007F00808100410041004080807F0000032
:10C4C00010041FFC10841080108010800F000000EA
:10C4D00007F0081810241024101C080A07F20000A6
:10C4E00010041FFC1104110011C011300E0C0004C7
:10C4F00000000E1C11041084108410441C3800002D
:10C500001800100010041FFC100410001800000098
:10C5100010001FF810040004000410041FF810009D
:10C5200010001E0011E0001C007013801C001000A1
:10C530001FC0103C00E01F0000E0103C1FC00000C6
:10C540001004180C163401C001C01634180C100465
:10C5500010001C00130400FC13041C001000000059
:10C560000804101C1064108413041C04101800002C
:10C570000000000000007FFE400240024002000078
:10C58000000030000C0003800060001C000300006D
:10C5900000004002400240027FFE00000000000058
:10C5A000000000002000400040004000200000008B
:10C5B0000001000100010001000100010001000173
:10C5C00000004000400020000000000000000000CB
:10C5D00000000098012401440144014400FC0004CF
:10C5E00010001FFC00880104010400880070000096
:10C5F00000000070008801040104010400880000AC
:10C600000000007000880104010411081FFC0004F0
:10C61000000000F8014401440144014400C8000046
:10C620000000010401040FFC1104110411001800A2
:10C63000000000D601290129012901C901060000D5
:10C6400010041FFC008401000100010400FC000430
:10C6500000000104190419FC00040004000000009B
:10C660000000000300010101190119FE0000000093
:10C6700010041FFC0024004001B4010C0104000060
:10C680000000100410041FFC00040004000000005F
:10C69000010401FC0104010001FC0104010000FC93
:10C6A000010401FC008401000100010400FC0004FD
:10C6B000000000F8010401040104010400F8000076
:10C6C000010101FF008501040104008800700000E1
:10C6D00000000070008801040104010501FF000151
:10C6E0000104010401FC0084010401000180000038
:10C6F000000000CC01240124012401240198000041
:10C7000000000100010007F801040104000000001E
:10C71000010001F8000400040004010801FC000409
:10C72000010001800170000C001001600180010017
:10C7300001F0010C003001C00030010C01F00100DB
:10C7400000000104018C00740170018C01040000E0
:10C75000010101810171000E0018016001800100DA
:10C7600000000184010C013401440184010C00002B
:10C77000000000000000000001003EFC40024002FA
:10C780000000000000000000FFFF000000000000AB
:10C790000000400240023EFC0100000000000000DA
:10C7A0000000600080008000400040002000200069
:10C7B0000000000000000000000000000000000079
:10C7C0000000000000000000000000000000000069
:10C7D0000000000000000000000000000000000059
:10C7E0000000000F80380FFE380F80380000000076
:10C7F0000000000000000000000000000000010038
:10C80000000600000C0000380000310000060000A7
:10C810000C000038000030000000000000000000A4
:10C8200061800067F807F980006180006180006125
:10C83000800061800067F807F980006180000000D7
:10C8400000000000000001C0E003E0F00630080432
:10C8500018081FFFFE040E080787F00381E00000A0
:10C860000000000001F000060C00040408060C7033
:10C8700001F9C0000E00003BE000EC1807080804B6
:10C880000C180003E00000000001E00007F003F8CE
:10C8900018041C0804170807E1D003C0E00023B007
:10C8A000003C08002008000010000000000000010B
:10C8B00000003100003200001C00000000000000F9
:10C8C0000000000000000000000000000000000068
:10C8D0000000000000000000000000000000000058
:10C8E0007F0001FFC00780F00C001810000420003A
:10C8F000020000000000002000021000040C0018DC
:10C900000780F001FFC0007F000000000000000071
:10C91000000000000000000000000000420000666F
:10C9200000006600003C0000180003FFC000180073
:10C93000003C0000660000660000420000000000AD
:10C94000080000080000080000080000080001FFBF
:10C95000C0000800000800000800000800000800EF
:10C9600000000000000100003100003200001C0047
:10C9700000000000000000000000000000000000B7
:10C98000000000000000000008000008000008008F
:10C99000000800000800000800000800000800006F
:10C9A0000800000800000000000000000000000077
:10C9B00038000038000038000000000000000000CF
:10C9C0000000000000000000000000000000000067
:10C9D000000600001C000070000180000E000038FE
:10C9E0000000C0000700001C000030000000000034
:10C9F000000000007F8001FFE00380700600180443
:10CA0000000804000806001803807001FFE0007FA2
:10CA10008000000000000000000001000801000884
:10CA200001000803FFF807FFF800000800000800F5
:10CA3000000800000000000000000001C03802C033
:10CA400058040098040118040218040418061C185D
:10CA500003F81801E0F800000000000000000001E9
:10CA6000C0E003C0F0040008040808040808061821
:10CA70000803F41801E7F00001E0000000000000E6
:10CA8000000000000300000D000011000061000024
:10CA9000810803010807FFF80FFFF80001080001F3
:10CAA000080000000000000000E007FCD0060808B5
:10CAB000061008061008061008061838060FF006BB
:10CAC00007C0000000000000000000003F8001FFE0
:10CAD000E003843002081804100804100804100849
:10CAE000071810030FF00007C0000000000000004E
:10CAF000000003C0000700000600000600F806075B
:10CB0000F806180006E0000700000600000000001C
:10CB100000000001E1E003F7F006341004180804F7
:10CB20001808040C08040C0806161803F3F001C1D9
:10CB3000E000000000000000F80003FC30030638AD
:10CB40000402080402080402080404100308F001A7
:10CB5000FFC0007F00000000000000000000000097
:10CB600000000000000000007038007038007038CD
:10CB700000000000000000000000000000000000B5
:10CB8000000000000000000000000000301A00302B
:10CB90001C00000000000000000000000000000079
:10CBA0000000000000000008000014000022000047
:10CBB00041000080800100400200200400100800B5
:10CBC00008000000000000002100002100002100FA
:10CBD00000210000210000210000210000210000B0
:10CBE00021000021000000000000000000000800FB
:10CBF0000804001002002001004000808000410075
:10CC000000220000140000080000000000000003E3
:10CC1000C00004C000040000080038080F380808ED
:10CC2000380810000C300007E00003C000000000CE
:10CC3000000000003F8000FFE0038070020F10063C
:10CC4000708804C088048308047F8802C0900301B0
:10CC50002000FE400000080000180001F8003E0817
:10CC600001C20007020007E20000FE00001FC8002A
:10CC700001F800003800000804000807FFF807FF6B
:10CC8000F804080804080804080804080806180836
:10CC900003F41801E7F00001E000000000000000CC
:10CCA0003F8001FFE00380700200180400080400C8
:10CCB000080400080400100600200780C0000000DF
:10CCC00004000807FFF807FFF80400080400080440
:10CCD000000804001802001003807001FFE0007FCC
:10CCE0008000000004000807FFF807FFF8040808A8
:10CCF000040808040808040808043E08040008069C
:10CD0000001801006000000004000807FFF807FF9A
:10CD1000F8040808040800040800040800043E00A1
:10CD20000600000600000180000000000000000076
:10CD30003F8001FFE0038070060018040008040231
:10CD4000080402080203F00783F00002000002005A
:10CD500004000807FFF807FFF804080800080000AF
:10CD6000080000080000080004080807FFF807FF93
:10CD7000F804000800000000000004000804000897
:10CD800004000807FFF807FFF8040008040008047F
:10CD90000008000000000000000000000006000085
:10CDA0000700000104000104000104000307FFFE66
:10CDB00007FFFC0400000400000400000400080752
:10CDC000FFF807FFF8040C08001800003E0004C735
:10CDD000800503C80600F8040038040018000008A5
:10CDE00004000807FFF807FFF80400080000080027
:10CDF00000080000080000080000080000180000FB
:10CE00006000000004000807FFF807800807FC0026
:10CE1000007FC00003F80007C00078000780080703
:10CE2000FFF807FFF804000804000807FFF80700F0
:10CE30000803C00000E000003800001E00000700EA
:10CE40000001C00400F007FFF8040000000000002B
:10CE50007F8001FFE00380700600180400080400D2
:10CE60000806001803003001FFE0007F800000008A
:10CE700004000807FFF807FFF8040408040400048E
:10CE80000400040400040400060C0003F80001F090
:10CE900000000000000000007F8001FFE0038070C0
:10CEA0000600880400880400C806003C03003E0118
:10CEB000FFE6007F8400000004000807FFF807FF7A
:10CEC000F8040808040800040C00040F00040BC058
:10CED0000610F003F03801E008000008000000012F
:10CEE000E0F803F030063010041808041808040CA9
:10CEF00008040C080206180207F00781E000000091
:10CF0000018000060000040000040000040008077F
:10CF1000FFF807FFF8040008040000040000060002
:10CF20000001800004000007FFE007FFF004001884
:10CF300000000800000800000800000800000804C5
:10CF4000001007FFE004000004000006000007E0F6
:10CF50000007FE00041FE00001F80000380001E0B7
:10CF6000043E0007C00006000004000004000007A3
:10CF7000E00007FFC0041FF80007C007F80007FF24
:10CF800080043FF80007C004F80007000004000018
:10CF900000000004000806001807C07805F1C8006A
:10CFA0003E00001F800463E80780F80600180400B4
:10CFB0000800000004000006000007800007E008E9
:10CFC000047C08001FF80007F800180804E00807B0
:10CFD0000000060000040000000000010008060038
:10CFE000380400F80403E8040F08047C0805F0087E
:10CFF00007C00807001804006000000000000000DF
:10D0000000000000000000000000003FFFFE2000C4
:10D010000220000220000220000220000200000086
:10D0200000000000000008000007000000C0000031
:10D0300038000006000001C000003000000E0000B3
:10D04000010000000000000000002000022000029B
:10D050002000022000022000023FFFFE000000002E
:10D0600000000000000000000000000000000000C0
:10D070000008000010000030000020000030000018
:10D080001000000800000000000000000000010087
:10D09000000100000100000100000100000100008B
:10D0A000010000010000010000010000010000017A
:10D0B0000000000000000000002000002000001020
:10D0C0000000100000000000000000000000000050
:10D0D000000000000000000000F00019F8001B181C
:10D0E000002208002608002408002410003FF80051
:10D0F0001FF800000800001800000004000007FFEF
:10D10000F80FFFF000181800100800200800200891
:10D11000003018001FF0000FC000000000000000E9
:10D1200007C0001FF0001830002008002008002071
:10D1300008003C08001C1000006000000000000017
:10D140000000000007C0001FF00038180020080091
:10D15000200800200804101007FFF80FFFF000005F
:10D16000100000000000000000000007C0001FF0D9
:10D1700000123000221800220800220800320800A5
:10D180001E10000E20000000000000002000002003
:10D190000800200801FFF803FFF806200804200813
:10D1A0000420080720000300000000000000000029
:10D1B000000E000E6E001FF30031B10020B1002000
:10D1C000B1003191001F13002E1E00200E00300010
:10D1D00000000004000807FFF80FFFF80010080027
:10D1E0002000002000002008003FF8001FF8000089
:10D1F00008000000000000000000002008002008D7
:10D20000002008063FF8063FF8000008000008006C
:10D210000008000000000000000000000000000006
:10D2200003000003002001002001002003063FFE50
:10D23000063FFC00000000000000000000000004A9
:10D24000000807FFF80FFFF8000188000300002F17
:10D25000C00038F800203800200800000800000056
:10D260000000000000000400080400080400080793
:10D27000FFF80FFFF8000008000008000008000099
:10D2800000000000002008003FF8003FF8001008F0
:10D29000002000003FF8003FF800100800200000C8
:10D2A0003FF8003FF8000008000000002008003FA1
:10D2B000F8003FF8001008001000002000002008CF
:10D2C000003FF8001FF80000080000000000000008
:10D2D00007C0000FF00018300030080020080020C0
:10D2E00008003008001830000FF00007C0000000F0
:10D2F000000000002001003FFF003FFF0010110070
:10D300002009002008002008003038001FF0000F1E
:10D31000C00000000000000007C0001FF000381827
:10D32000002008002008002009001011001FFF0045
:10D330003FFF00000100000000200800200800203E
:10D3400008003FF8003FF800080800100800200817
:10D35000002000003000003000000000000000004D
:10D360000000000C78001E1800330800230800217C
:10D37000080021880021980030F00038600000008B
:10D3800000000000200000200000200000FFF0034B
:10D39000FFF80020080020080020080000300000EE
:10D3A00000000000000000002000003FF0007FF8B7
:10D3B000000018000008000008002010003FF800DE
:10D3C0007FF000001000000000000000200000308E
:10D3D00000003C00003F800023F000007800007057
:10D3E000002380003C0000300000200000200000EE
:10D3F0003C00003FE00023F80000E0002700003E72
:10D4000000003FE00021F80001E0003E00002000A5
:10D41000000000002008002008003838003E6800A6
:10D4200027800003C8002CF800383800201800209E
:10D4300008000000000000002000003003003C0154
:10D44000003F830023EC000070002380003C0000BC
:10D450002000002000000000000000000000003854
:10D46000080020380020F80023E8002F88003E083C
:10D4700000380800201800007000000000000000C4
:10D480000000000000000000000000000800001480
:10D49000001FF7FC30000620000200000000000022
:10D4A000000000000000000000000000000000007C
:10D4B0000000FFFFFF00000000000000000000006F
:10D4C0000000000000000000000020000230000604
:10D4D0001FF7FC001400000800000000000000001E
:10D4E00000000000000000000000001800006000C4
:10D4F0000040000040000020000010000008000074
:10D500000400000400000C000010000008070606DC
:10D5100005050505040404040404040403030303CB
:10D5200003030303030303030303030302020202CF
:10D5300002020202020202020202020202020202CB
:10D5400002020202020202020202020201010101BF
:10D5500001010101010101010101010101010101BB
:10D5600001010101010101010101010101010101AB
:10D57000010101010101010101010101010101019B
:10D58000010101010101010101010101000000008F
:10D59000000000000000000000000000000000008B
:10D5A000000000000000000000000000000000007B
:10D5B000000000000000000000000000000000006B
:10D5C000000000000000000000000000000000005B
:10D5D000000000000000000000000000000000004B
:10D5E000000000000000000000000000000000003B
:10D5F000000000000000000000000000000000002B
:10D60000000000000000000000000000FFFFFFFF1E
:10D61000FFFFFFFFFFFFFF7F55555555FFFFFF3F02
:10D6200033333333AAAAAA2A24499224FFFFFF1FC7
:10D630001CC7711C9999991974D1451755555515E1
:10D64000133BB1139224491211111111FFFFFF0F67
:10D650000F0F0F0F8EE3380E5E43790DCCCCCC0C40
:10D660000CC3300CBAE8A20B2C64210BAAAAAA0A9C
:10D67000A3703D0A899DD8095E427B09499224091D
:10D68000B0DCD3088888880884104208FFFFFF07B1
:10D690007CF0C1078787870707755007C7711C078C
:10D6A0003E0102000A00640011001100C80E0020B3
:10D6B0000C0000008000000000020000C8100020E4
:10D6C00040010000081200200C0000008000000053
:10D6D000000200000814002080000000000200008A
:10D6E00040060000081600200A000000481C002028
:10D6F0000C0000008000000000020000400000005C
:10D70000C8000000481E00200C000000800000003F
:10D71000000200008800000064000000D02000200B
:10D720000C000000800000000002000088000000E3
:10D7300090140000303132333435363738394142B5
:10D740004344454640305800303132333435363763
:10D750003839616263646566403078007CD70008C0
:10D76000000000204C0100006C010008BCD700083C
:10D770004C0100204C2F0000C801000863FFFF2A65
:10D780001F0422F81AE01033FF07190C3910190C86
:10D790004BFF7F182340BC2307FC33308484A24A0C
:10D7A00004180901020304060708092A594E616D8D
:0CD7B0000204060820892401DA000000B1
:0400000508000131BD
:00000001FF
